{
  "_format": "hh-sol-artifact-1",
  "contractName": "Escrow",
  "sourceName": "contracts/Escrow.sol",
  "abi": [
    {
      "inputs": [
        {
          "internalType": "address",
          "name": "_admin",
          "type": "address"
        },
        {
          "internalType": "address",
          "name": "_registryAddress",
          "type": "address"
        },
        {
          "internalType": "uint256",
          "name": "_platformFeePercentage",
          "type": "uint256"
        },
        {
          "internalType": "uint256",
          "name": "_penaltyPercentage",
          "type": "uint256"
        }
      ],
      "stateMutability": "nonpayable",
      "type": "constructor"
    },
    {
      "inputs": [],
      "name": "InvalidInitialization",
      "type": "error"
    },
    {
      "inputs": [],
      "name": "NotInitializing",
      "type": "error"
    },
    {
      "inputs": [],
      "name": "ReentrancyGuardReentrantCall",
      "type": "error"
    },
    {
      "anonymous": false,
      "inputs": [
        {
          "indexed": true,
          "internalType": "uint256",
          "name": "tradeId",
          "type": "uint256"
        },
        {
          "indexed": false,
          "internalType": "uint256",
          "name": "amount",
          "type": "uint256"
        }
      ],
      "name": "CryptoLocked",
      "type": "event"
    },
    {
      "anonymous": false,
      "inputs": [
        {
          "indexed": true,
          "internalType": "uint256",
          "name": "tradeId",
          "type": "uint256"
        },
        {
          "indexed": false,
          "internalType": "uint256",
          "name": "amount",
          "type": "uint256"
        },
        {
          "indexed": false,
          "internalType": "uint256",
          "name": "penaltyAmount",
          "type": "uint256"
        }
      ],
      "name": "CryptoPenalized",
      "type": "event"
    },
    {
      "anonymous": false,
      "inputs": [
        {
          "indexed": true,
          "internalType": "uint256",
          "name": "tradeId",
          "type": "uint256"
        },
        {
          "indexed": false,
          "internalType": "uint256",
          "name": "amount",
          "type": "uint256"
        }
      ],
      "name": "CryptoRefunded",
      "type": "event"
    },
    {
      "anonymous": false,
      "inputs": [
        {
          "indexed": true,
          "internalType": "uint256",
          "name": "tradeId",
          "type": "uint256"
        },
        {
          "indexed": false,
          "internalType": "uint256",
          "name": "amount",
          "type": "uint256"
        }
      ],
      "name": "CryptoReleased",
      "type": "event"
    },
    {
      "anonymous": false,
      "inputs": [
        {
          "indexed": true,
          "internalType": "uint256",
          "name": "tradeId",
          "type": "uint256"
        },
        {
          "indexed": false,
          "internalType": "uint256",
          "name": "amount",
          "type": "uint256"
        },
        {
          "indexed": false,
          "internalType": "uint256",
          "name": "splitAmount",
          "type": "uint256"
        }
      ],
      "name": "CryptoSplit",
      "type": "event"
    },
    {
      "anonymous": false,
      "inputs": [
        {
          "indexed": true,
          "internalType": "uint256",
          "name": "sourceTradeId",
          "type": "uint256"
        },
        {
          "indexed": true,
          "internalType": "uint256",
          "name": "destTradeId",
          "type": "uint256"
        },
        {
          "indexed": false,
          "internalType": "uint256",
          "name": "amount",
          "type": "uint256"
        }
      ],
      "name": "EscrowTransferred",
      "type": "event"
    },
    {
      "anonymous": false,
      "inputs": [
        {
          "indexed": false,
          "internalType": "uint256",
          "name": "platformFeePercentage",
          "type": "uint256"
        },
        {
          "indexed": false,
          "internalType": "uint256",
          "name": "penaltyPercentage",
          "type": "uint256"
        }
      ],
      "name": "FeePercentagesUpdated",
      "type": "event"
    },
    {
      "anonymous": false,
      "inputs": [
        {
          "indexed": false,
          "internalType": "uint64",
          "name": "version",
          "type": "uint64"
        }
      ],
      "name": "Initialized",
      "type": "event"
    },
    {
      "anonymous": false,
      "inputs": [
        {
          "indexed": true,
          "internalType": "uint256",
          "name": "tradeId",
          "type": "uint256"
        },
        {
          "indexed": false,
          "internalType": "uint256",
          "name": "feeAmount",
          "type": "uint256"
        }
      ],
      "name": "PlatformFeePaid",
      "type": "event"
    },
    {
      "inputs": [],
      "name": "admin",
      "outputs": [
        {
          "internalType": "address",
          "name": "",
          "type": "address"
        }
      ],
      "stateMutability": "view",
      "type": "function"
    },
    {
      "inputs": [
        {
          "internalType": "uint256",
          "name": "",
          "type": "uint256"
        }
      ],
      "name": "escrows",
      "outputs": [
        {
          "internalType": "uint256",
          "name": "tradeId",
          "type": "uint256"
        },
        {
          "internalType": "uint256",
          "name": "amount",
          "type": "uint256"
        },
        {
          "internalType": "bool",
          "name": "isLocked",
          "type": "bool"
        },
        {
          "internalType": "bool",
          "name": "isReleased",
          "type": "bool"
        },
        {
          "internalType": "bool",
          "name": "isRefunded",
          "type": "bool"
        }
      ],
      "stateMutability": "view",
      "type": "function"
    },
    {
      "inputs": [
        {
          "internalType": "uint256",
          "name": "_tradeId",
          "type": "uint256"
        },
        {
          "internalType": "uint256",
          "name": "_amount",
          "type": "uint256"
        }
      ],
      "name": "lockCrypto",
      "outputs": [],
      "stateMutability": "nonpayable",
      "type": "function"
    },
    {
      "inputs": [
        {
          "internalType": "uint256",
          "name": "_tradeId",
          "type": "uint256"
        }
      ],
      "name": "payPlatformFee",
      "outputs": [],
      "stateMutability": "nonpayable",
      "type": "function"
    },
    {
      "inputs": [
        {
          "internalType": "uint256",
          "name": "_tradeId",
          "type": "uint256"
        }
      ],
      "name": "penalizeCrypto",
      "outputs": [],
      "stateMutability": "nonpayable",
      "type": "function"
    },
    {
      "inputs": [],
      "name": "penaltyPercentage",
      "outputs": [
        {
          "internalType": "uint256",
          "name": "",
          "type": "uint256"
        }
      ],
      "stateMutability": "view",
      "type": "function"
    },
    {
      "inputs": [],
      "name": "platformFeePercentage",
      "outputs": [
        {
          "internalType": "uint256",
          "name": "",
          "type": "uint256"
        }
      ],
      "stateMutability": "view",
      "type": "function"
    },
    {
      "inputs": [
        {
          "internalType": "uint256",
          "name": "_tradeId",
          "type": "uint256"
        }
      ],
      "name": "refundCrypto",
      "outputs": [],
      "stateMutability": "nonpayable",
      "type": "function"
    },
    {
      "inputs": [],
      "name": "registry",
      "outputs": [
        {
          "internalType": "contract ContractRegistry",
          "name": "",
          "type": "address"
        }
      ],
      "stateMutability": "view",
      "type": "function"
    },
    {
      "inputs": [
        {
          "internalType": "uint256",
          "name": "_tradeId",
          "type": "uint256"
        },
        {
          "internalType": "address payable",
          "name": "_receiver",
          "type": "address"
        }
      ],
      "name": "releaseCrypto",
      "outputs": [],
      "stateMutability": "nonpayable",
      "type": "function"
    },
    {
      "inputs": [
        {
          "internalType": "uint256",
          "name": "_tradeId",
          "type": "uint256"
        },
        {
          "internalType": "uint256",
          "name": "_splitAmount",
          "type": "uint256"
        },
        {
          "internalType": "address payable",
          "name": "_receiver",
          "type": "address"
        }
      ],
      "name": "splitCrypto",
      "outputs": [],
      "stateMutability": "nonpayable",
      "type": "function"
    },
    {
      "inputs": [
        {
          "internalType": "uint256",
          "name": "_sourceTradeId",
          "type": "uint256"
        },
        {
          "internalType": "uint256",
          "name": "_destTradeId",
          "type": "uint256"
        },
        {
          "internalType": "uint256",
          "name": "_amount",
          "type": "uint256"
        }
      ],
      "name": "transferEscrow",
      "outputs": [],
      "stateMutability": "nonpayable",
      "type": "function"
    },
    {
      "inputs": [
        {
          "internalType": "uint256",
          "name": "_platformFeePercentage",
          "type": "uint256"
        },
        {
          "internalType": "uint256",
          "name": "_penaltyPercentage",
          "type": "uint256"
        }
      ],
      "name": "updateFeePercentages",
      "outputs": [],
      "stateMutability": "nonpayable",
      "type": "function"
    },
    {
      "inputs": [],
      "name": "withdrawPlatformFees",
      "outputs": [],
      "stateMutability": "nonpayable",
      "type": "function"
    }
  ],
  "bytecode": "0x6080346200020257601f6200189438819003918201601f191683019291906001600160401b0384118385101762000207578160809284926040968752833981010312620002025762000051816200021d565b906020620000618183016200021d565b84830151606090930151936001600160a01b03908116918215620001be57169182156200017c5760018411620001215760648511620000c9575060018060a01b0319908160005416176000556001541617600155600255600355516116619081620002338239f35b60849086519062461bcd60e51b82526004820152602c60248201527f50656e616c74792070657263656e74616765206d75737420626520626574776560448201526b0656e203020616e64203130360a41b6064820152fd5b60849086519062461bcd60e51b82526004820152602f60248201527f506c6174666f726d206665652070657263656e74616765206d7573742062652060448201526e6265747765656e203020616e64203160881b6064820152fd5b60649086519062461bcd60e51b825280600483015260248201527f496e76616c696420436f6e7472616374526567697374727920616464726573736044820152fd5b865162461bcd60e51b815260048101859052601560248201527f496e76616c69642061646d696e206164647265737300000000000000000000006044820152606490fd5b600080fd5b634e487b7160e01b600052604160045260246000fd5b51906001600160a01b0382168203620002025756fe608060408181526004918236101561001657600080fd5b600092833560e01c918263012f52ee146112f75750816304c07093146111d157816315908d51146111b25781631dea25f814611026578163277c2ee514610bfc5781636850cb5614610a5357816378578bb3146109315781637b10399914610908578163af967b7c146107da578163be81abd5146103f7578163cdd78cfc146103d8578163d0b7830b1461036c578163de9d8587146100e9575063f851a440146100bf57600080fd5b346100e557816003193601126100e557905490516001600160a01b039091168152602090f35b5080fd5b9050346103685781600319360112610368578035906001600160a01b039060243582811691908290036103645761011e6115db565b826001541685519384916324ed653d60e11b8352828460209788935afa801561035a5761015592899161032d575b5016331461156a565b83865280835260ff6002868820015416156102da5783865280835260ff6002868820015460081c166102815783865280835260ff6002868820015460101c16610228578386528083528580808060018982200154809682821561021f575bf115610215579383947f7a31789475faba05f57ad17e6e2164d1072a06f3de2a1b2847e99c066ff3019c948752835260028187208760018201550161010061ff001982541617905551908152a2600160008051602061160c8339815191525580f35b84513d87823e3d90fd5b506108fc6101b3565b845162461bcd60e51b8152908101839052602d60248201527f5468652063727970746f20697320616c726561647920726566756e646564206660448201526c6f72207468697320747261646560981b6064820152608490fd5b845162461bcd60e51b8152908101839052602d60248201527f5468652063727970746f20697320616c72656164792072656c6561736564206660448201526c6f72207468697320747261646560981b6064820152608490fd5b845162461bcd60e51b8152908101839052602760248201527f5468652063727970746f206973206e6f74206c6f636b656420666f72207468696044820152667320747261646560c81b6064820152608490fd5b61034d9150863d8811610353575b6103458183611513565b81019061154b565b3861014c565b503d61033b565b87513d8a823e3d90fd5b8580fd5b8280fd5b5050346100e557816003193601126100e5576103866115db565b8180808060018060a01b0381541661039f81331461136f565b47908282156103cf575bf1156103c55750600160008051602061160c8339815191525580f35b51903d90823e3d90fd5b506108fc6103a9565b5050346100e557816003193601126100e5576020906002549051908152f35b9050346103685760603660031901126103685780356024928335926044918235916104206115db565b60018060a01b0393600197858954168451966324ed653d60e11b918289528c6020998a818981865afa9081156107d0578261046f866002948f948e9560ff98926107b3575b505016331461156a565b8d8152898d5220015416156107645760ff6002888f8d8152898d5220015460081c1661070f5760ff6002888f8d8152898d5220015460101c166106ba57888b15159384610607575b50505050156105c957868a528286528489858c20015410610578575050907f89e4b1459b49d20eb85836c6a44fdfa48b13ad5f744fa48c09a59cff289584b093929185895280845287828a200161050f848254611506565b905586895280845287828a20016105278482546115ce565b905585895283528088208781015415610567575b50858852808820600201805460ff19168817905551908152a360008051602061160c8339815191525580f35b600201805460ff191690553861053b565b9060297f496e73756666696369656e742062616c616e636520696e2074686520736f75729287608496519562461bcd60e51b875286015284015282015268636520657363726f7760b81b6064820152fd5b90857f44657374696e6174696f6e20747261646520646f6573206e6f742065786973749281606496519562461bcd60e51b8752860152840152820152fd5b90919293508688518094819382525afa9081156106b0579088918d91610693575b5085875180948193635eaa811560e11b8352165afa908115610689578b91610658575b50881115388088816104b7565b90508681813d8311610682575b61066f8183611513565b8101031261067e57513861064b565b8a80fd5b503d610665565b85513d8d823e3d90fd5b6106aa9150823d8411610353576103458183611513565b38610628565b86513d8e823e3d90fd5b865162461bcd60e51b81528087018a9052602b818601527f54686520736f7572636520747261646520657363726f7720697320616c726561818701526a191e481c99599d5b99195960aa1b6064820152608490fd5b865162461bcd60e51b81528087018a9052602b818601527f54686520736f7572636520747261646520657363726f7720697320616c726561818701526a191e481c995b19585cd95960aa1b6064820152608490fd5b865162461bcd60e51b81528087018a90526025818601527f54686520736f7572636520747261646520657363726f77206973206e6f74206c81870152641bd8dad95960da1b6064820152608490fd5b6107c99250803d10610353576103458183611513565b8f80610465565b89513d84823e3d90fd5b9190503461036857602080600319360112610904578235916107fa6115db565b84546001600160a01b03169061081133831461136f565b83865284835261082960ff60028389200154166113c9565b83865284835261084560ff6002838920015460081c1615611421565b83865284835261086160ff6002838920015460101c161561147f565b838652848352606461087c60018389200154600254906114dd565b049184875285845286808080866108998160018985200154611506565b958282156108fb575bf1156108f15784957f93e7aaa64db1f3164fb844c7465be63c3d09a211e1307c3fe2a96a3f585d441595885284526001828820015551908152a2600160008051602061160c8339815191525580f35b81513d88823e3d90fd5b506108fc6108a2565b8380fd5b5050346100e557816003193601126100e55760015490516001600160a01b039091168152602090f35b8383346100e55761094136611354565b9361095660018060a01b03855416331461136f565b600182116109f857606485116109a057507f073f097766577c031a7e3e9a4c6310cb7c54d9bf12b491c3ab986c1b55c1639f9293816002558060035582519182526020820152a180f35b608490602084519162461bcd60e51b8352820152602c60248201527f50656e616c74792070657263656e74616765206d75737420626520626574776560448201526b0656e203020616e64203130360a41b6064820152fd5b608490602084519162461bcd60e51b8352820152602f60248201527f506c6174666f726d206665652070657263656e74616765206d7573742062652060448201526e6265747765656e203020616e64203160881b6064820152fd5b8383346100e557610a6336611354565b60015483516324ed653d60e11b8152929360209390916001600160a01b039190859082908a90829086165afa908115610bf25790610aab92918891610bd5575016331461156a565b83855285835260ff6002828720015416610b7f57805160a0810181811067ffffffffffffffff821117610b6c57967fb8d9fb8008ad16c0fcdb3b7892877ae2803c9e2380132fc401d165477f664eb09596978352868252848201908482526002848401936001855260608101938b855260808201938c85528b8d528952868c209151825551600182015501925115159160ff62ff000061ff0086549351151560081b169351151560101b1693169062ffffff1916171717905551908152a280f35b634e487b7160e01b875260418852602487fd5b5162461bcd60e51b8152808601839052602b60248201527f5468652063727970746f20697320616c7265616479206c6f636b656420666f7260448201526a207468697320747261646560a81b6064820152608490fd5b610bec9150863d8811610353576103458183611513565b8961014c565b83513d89823e3d90fd5b9050346103685760208060031936011261090457813590610c1b6115db565b6001805485516324ed653d60e11b80825292966001600160a01b039693909287169185818681865afa90811561101c57610c609189918c91611005575016331461156a565b85895283855260029160ff83858c2001541615610fc257868a5284865260ff83858c20015460081c16610f7357868a5284865260ff83858c20015460101c16610f24579084868b938651928380928682525afa908115610ea55783929188918b9591610f07575b5060248751809c81936304ba98d360e21b83528d8c840152165afa988915610efd578299610ece575b508815610db157507f89e4b1459b49d20eb85836c6a44fdfa48b13ad5f744fa48c09a59cff289584b095949392915086905282845287828a2001928984549455878a5288838b2001610d438582546115ce565b9055868a52845280828a20016201000062ff00ff19825416179055868952818920018760ff19825416179055847f1f399fe92ae750e24fb2322835ceb5c791d578f23e7e7707adebb7d51c0f0f30848351858152a251908152a35b60008051602061160c8339815191525580f35b909194989750868252888652878483200194828654965586818a5416928b87518095819382525afa918215610ea5578392610eaf575b50868860248c8489519687948593630a72bb6d60e31b8552840152165afa918215610ea557868493849384938492610e86575b5083918315610e7c575b1690f115610e72578495967f1f399fe92ae750e24fb2322835ceb5c791d578f23e7e7707adebb7d51c0f0f309589528452818820016201000062ff00ff1982541617905551908152a2610d9e565b81513d89823e3d90fd5b6108fc9250610e24565b610e9e9192508b3d8d11610353576103458183611513565b9038610e1a565b85513d85823e3d90fd5b610ec7919250873d8911610353576103458183611513565b9038610de7565b9098508681813d8311610ef6575b610ee68183611513565b810103126100e557519738610cf0565b503d610edc565b85513d84823e3d90fd5b610f1e9150823d8411610353576103458183611513565b38610cc7565b835162461bcd60e51b81528086018790526024808201527f54686520747261646520657363726f7720697320616c726561647920726566756044820152631b99195960e21b6064820152608490fd5b835162461bcd60e51b81528086018790526024808201527f54686520747261646520657363726f7720697320616c72656164792072656c65604482015263185cd95960e21b6064820152608490fd5b835162461bcd60e51b8152808601879052601e60248201527f54686520747261646520657363726f77206973206e6f74206c6f636b656400006044820152606490fd5b61034d9150883d8a11610353576103458183611513565b84513d8c823e3d90fd5b91905034610368576060366003190112610368578135906001600160a01b0360443581811691602435918390036111ae5761106d906110636115db565b875416331461136f565b838652602085815261108760ff6002868a200154166113c9565b8487528581526110a360ff6002868a20015460081c1615611421565b8487528581526110bf60ff6002868a20015460101c161561147f565b84875285815260018488200154821161115d5784875285815286808080856110ed8160018b85200154611506565b97828215611154575bf11561114a5784957f2487c8055466e8a5c549f617bde385d5b6daa8a3bd11d1b59a3166fa4ac10acc958852815282600185892001558351928352820152a2600160008051602061160c8339815191525580f35b83513d88823e3d90fd5b506108fc6110f6565b8560849185519162461bcd60e51b8352820152602660248201527f53706c697420616d6f756e74206578636565647320746865206c6f636b656420604482015265185b5bdd5b9d60d21b6064820152fd5b8680fd5b5050346100e557816003193601126100e5576020906003549051908152f35b919050346103685760209081600319360112610904578235916111f26115db565b84546001600160a01b03169061120933831461136f565b83865284815261122160ff60028589200154166113c9565b83865284815261123d60ff6002858920015460081c1615611421565b83865284815261125960ff6002858920015460101c161561147f565b838652848152606461127460018589200154600354906114dd565b049084875285815286808080856112918160018b85200154611506565b978282156112ee575bf11561114a5784957ff5c946d1dae8f0d2d541d67fb006e85e756fd371b635bbc4a19cddd38bc5e5dc958852815282600185892001558351928352820152a2600160008051602061160c8339815191525580f35b506108fc61129a565b9291503461090457602036600319011261090457908060a0948360ff943582526020522090815491600260018201549101549285526020850152828216151590840152818160081c161515606084015260101c1615156080820152f35b604090600319011261136a576004359060243590565b600080fd5b1561137657565b60405162461bcd60e51b815260206004820152602560248201527f4f6e6c7920616e2061646d696e2063616e20706572666f726d2074686973206160448201526431ba34b7b760d91b6064820152608490fd5b156113d057565b60405162461bcd60e51b815260206004820152602360248201527f43727970746f206973206e6f74206c6f636b656420666f72207468697320747260448201526261646560e81b6064820152608490fd5b1561142857565b60405162461bcd60e51b815260206004820152602960248201527f43727970746f20697320616c72656164792072656c656173656420666f72207460448201526868697320747261646560b81b6064820152608490fd5b1561148657565b60405162461bcd60e51b815260206004820152602960248201527f43727970746f20697320616c726561647920726566756e64656420666f72207460448201526868697320747261646560b81b6064820152608490fd5b818102929181159184041417156114f057565b634e487b7160e01b600052601160045260246000fd5b919082039182116114f057565b90601f8019910116810190811067ffffffffffffffff82111761153557604052565b634e487b7160e01b600052604160045260246000fd5b9081602091031261136a57516001600160a01b038116810361136a5790565b1561157157565b60405162461bcd60e51b815260206004820152602f60248201527f4f6e6c792074686520547261646520636f6e74726163742063616e207065726660448201526e37b936903a3434b99030b1ba34b7b760891b6064820152608490fd5b919082018092116114f057565b60008051602061160c83398151915260028154146115f95760029055565b604051633ee5aeb560e01b8152600490fdfe9b779b17422d0df92223018b32b4d1fa46e071723d6817e2486d003becc55f00a26469706673582212204810189e66ba667b5191b192d6eb93d140445d28e98d3ea0217eb5d681ec68ad64736f6c63430008180033",
  "linkReferences": {},
  "deployedLinkReferences": {}
}