{
  "_format": "hh-sol-artifact-1",
  "contractName": "Offer",
  "sourceName": "contracts/Offer.sol",
  "abi": [
    {
      "inputs": [
        {
          "internalType": "address",
          "name": "_registryAddress",
          "type": "address"
        }
      ],
      "stateMutability": "nonpayable",
      "type": "constructor"
    },
    {
      "anonymous": false,
      "inputs": [],
      "name": "ContractPaused",
      "type": "event"
    },
    {
      "anonymous": false,
      "inputs": [],
      "name": "ContractUnpaused",
      "type": "event"
    },
    {
      "anonymous": false,
      "inputs": [
        {
          "indexed": true,
          "internalType": "uint256",
          "name": "offerId",
          "type": "uint256"
        }
      ],
      "name": "OfferActivated",
      "type": "event"
    },
    {
      "anonymous": false,
      "inputs": [
        {
          "indexed": true,
          "internalType": "uint256",
          "name": "offerId",
          "type": "uint256"
        },
        {
          "indexed": true,
          "internalType": "address",
          "name": "offerOwner",
          "type": "address"
        },
        {
          "indexed": false,
          "internalType": "uint256",
          "name": "minTradeAmount",
          "type": "uint256"
        },
        {
          "indexed": false,
          "internalType": "uint256",
          "name": "maxTradeAmount",
          "type": "uint256"
        },
        {
          "indexed": false,
          "internalType": "string",
          "name": "fiatCurrency",
          "type": "string"
        },
        {
          "indexed": false,
          "internalType": "enum Offer.OfferStatus",
          "name": "status",
          "type": "uint8"
        }
      ],
      "name": "OfferCreated",
      "type": "event"
    },
    {
      "anonymous": false,
      "inputs": [
        {
          "indexed": true,
          "internalType": "uint256",
          "name": "offerId",
          "type": "uint256"
        },
        {
          "indexed": false,
          "internalType": "uint256",
          "name": "disputeId",
          "type": "uint256"
        }
      ],
      "name": "OfferDisputeInvolved",
      "type": "event"
    },
    {
      "anonymous": false,
      "inputs": [
        {
          "indexed": true,
          "internalType": "uint256",
          "name": "offerId",
          "type": "uint256"
        },
        {
          "indexed": false,
          "internalType": "uint256",
          "name": "disputeId",
          "type": "uint256"
        }
      ],
      "name": "OfferDisputeLost",
      "type": "event"
    },
    {
      "anonymous": false,
      "inputs": [
        {
          "indexed": true,
          "internalType": "uint256",
          "name": "offerId",
          "type": "uint256"
        },
        {
          "indexed": false,
          "internalType": "uint256",
          "name": "minAmount",
          "type": "uint256"
        },
        {
          "indexed": false,
          "internalType": "uint256",
          "name": "maxAmount",
          "type": "uint256"
        }
      ],
      "name": "OfferMinMaxTradeAmountsChanged",
      "type": "event"
    },
    {
      "anonymous": false,
      "inputs": [
        {
          "indexed": true,
          "internalType": "uint256",
          "name": "offerId",
          "type": "uint256"
        }
      ],
      "name": "OfferPaused",
      "type": "event"
    },
    {
      "anonymous": false,
      "inputs": [
        {
          "indexed": true,
          "internalType": "uint256",
          "name": "offerId",
          "type": "uint256"
        }
      ],
      "name": "OfferStatsUpdated",
      "type": "event"
    },
    {
      "anonymous": false,
      "inputs": [
        {
          "indexed": true,
          "internalType": "uint256",
          "name": "offerId",
          "type": "uint256"
        }
      ],
      "name": "OfferTradeAccepted",
      "type": "event"
    },
    {
      "anonymous": false,
      "inputs": [
        {
          "indexed": true,
          "internalType": "uint256",
          "name": "offerId",
          "type": "uint256"
        },
        {
          "indexed": false,
          "internalType": "uint256",
          "name": "tradeVolume",
          "type": "uint256"
        }
      ],
      "name": "OfferTradeCompleted",
      "type": "event"
    },
    {
      "anonymous": false,
      "inputs": [
        {
          "indexed": true,
          "internalType": "uint256",
          "name": "offerId",
          "type": "uint256"
        },
        {
          "indexed": false,
          "internalType": "uint256",
          "name": "minTradeAmount",
          "type": "uint256"
        },
        {
          "indexed": false,
          "internalType": "uint256",
          "name": "maxTradeAmount",
          "type": "uint256"
        },
        {
          "indexed": false,
          "internalType": "enum Offer.OfferStatus",
          "name": "status",
          "type": "uint8"
        }
      ],
      "name": "OfferUpdated",
      "type": "event"
    },
    {
      "anonymous": false,
      "inputs": [
        {
          "indexed": true,
          "internalType": "uint256",
          "name": "offerId",
          "type": "uint256"
        }
      ],
      "name": "OfferWithdrawn",
      "type": "event"
    },
    {
      "anonymous": false,
      "inputs": [
        {
          "indexed": true,
          "internalType": "address",
          "name": "previousOwner",
          "type": "address"
        },
        {
          "indexed": true,
          "internalType": "address",
          "name": "newOwner",
          "type": "address"
        }
      ],
      "name": "OwnershipTransferred",
      "type": "event"
    },
    {
      "inputs": [],
      "name": "getOfferCounts",
      "outputs": [
        {
          "internalType": "uint256",
          "name": "",
          "type": "uint256"
        },
        {
          "internalType": "uint256",
          "name": "",
          "type": "uint256"
        },
        {
          "internalType": "uint256",
          "name": "",
          "type": "uint256"
        },
        {
          "internalType": "uint256",
          "name": "",
          "type": "uint256"
        }
      ],
      "stateMutability": "view",
      "type": "function"
    },
    {
      "inputs": [
        {
          "internalType": "uint256",
          "name": "_offerId",
          "type": "uint256"
        }
      ],
      "name": "getOfferDetails",
      "outputs": [
        {
          "internalType": "address",
          "name": "",
          "type": "address"
        },
        {
          "internalType": "uint256",
          "name": "",
          "type": "uint256"
        },
        {
          "internalType": "uint256",
          "name": "",
          "type": "uint256"
        },
        {
          "internalType": "uint256",
          "name": "",
          "type": "uint256"
        },
        {
          "internalType": "uint256",
          "name": "",
          "type": "uint256"
        },
        {
          "internalType": "uint256",
          "name": "",
          "type": "uint256"
        },
        {
          "internalType": "uint256",
          "name": "",
          "type": "uint256"
        },
        {
          "internalType": "uint256",
          "name": "",
          "type": "uint256"
        },
        {
          "internalType": "string",
          "name": "",
          "type": "string"
        },
        {
          "internalType": "bool",
          "name": "",
          "type": "bool"
        },
        {
          "internalType": "uint256",
          "name": "",
          "type": "uint256"
        },
        {
          "internalType": "uint256",
          "name": "",
          "type": "uint256"
        },
        {
          "internalType": "bool",
          "name": "",
          "type": "bool"
        },
        {
          "internalType": "string",
          "name": "",
          "type": "string"
        },
        {
          "internalType": "string",
          "name": "",
          "type": "string"
        },
        {
          "internalType": "string",
          "name": "",
          "type": "string"
        },
        {
          "internalType": "int256",
          "name": "",
          "type": "int256"
        },
        {
          "internalType": "string",
          "name": "",
          "type": "string"
        }
      ],
      "stateMutability": "view",
      "type": "function"
    },
    {
      "inputs": [
        {
          "internalType": "address",
          "name": "_user",
          "type": "address"
        }
      ],
      "name": "getUserOffers",
      "outputs": [
        {
          "internalType": "uint256[]",
          "name": "",
          "type": "uint256[]"
        }
      ],
      "stateMutability": "view",
      "type": "function"
    },
    {
      "inputs": [],
      "name": "offerCount",
      "outputs": [
        {
          "internalType": "uint256",
          "name": "",
          "type": "uint256"
        }
      ],
      "stateMutability": "view",
      "type": "function"
    },
    {
      "inputs": [
        {
          "internalType": "uint256",
          "name": "_minTradeAmount",
          "type": "uint256"
        },
        {
          "internalType": "uint256",
          "name": "_maxTradeAmount",
          "type": "uint256"
        },
        {
          "internalType": "string",
          "name": "_fiatCurrency",
          "type": "string"
        },
        {
          "internalType": "bool",
          "name": "_buyingCrypto",
          "type": "bool"
        },
        {
          "internalType": "string",
          "name": "_country",
          "type": "string"
        },
        {
          "internalType": "string",
          "name": "_paymentMethod",
          "type": "string"
        },
        {
          "internalType": "string",
          "name": "_terms",
          "type": "string"
        },
        {
          "internalType": "int256",
          "name": "_rate",
          "type": "int256"
        },
        {
          "internalType": "string",
          "name": "_title",
          "type": "string"
        }
      ],
      "name": "offerCreate",
      "outputs": [],
      "stateMutability": "nonpayable",
      "type": "function"
    },
    {
      "inputs": [
        {
          "internalType": "uint256",
          "name": "",
          "type": "uint256"
        },
        {
          "internalType": "uint256",
          "name": "",
          "type": "uint256"
        }
      ],
      "name": "offerDisputeCounted",
      "outputs": [
        {
          "internalType": "bool",
          "name": "",
          "type": "bool"
        }
      ],
      "stateMutability": "view",
      "type": "function"
    },
    {
      "inputs": [
        {
          "internalType": "address",
          "name": "",
          "type": "address"
        },
        {
          "internalType": "bytes32",
          "name": "",
          "type": "bytes32"
        }
      ],
      "name": "offerParametersUsed",
      "outputs": [
        {
          "internalType": "bool",
          "name": "",
          "type": "bool"
        }
      ],
      "stateMutability": "view",
      "type": "function"
    },
    {
      "inputs": [
        {
          "internalType": "uint256",
          "name": "_offerId",
          "type": "uint256"
        },
        {
          "internalType": "uint256",
          "name": "_minTradeAmount",
          "type": "uint256"
        },
        {
          "internalType": "uint256",
          "name": "_maxTradeAmount",
          "type": "uint256"
        },
        {
          "internalType": "enum Offer.OfferStatus",
          "name": "_status",
          "type": "uint8"
        },
        {
          "internalType": "bool",
          "name": "_buyingCrypto",
          "type": "bool"
        },
        {
          "internalType": "string",
          "name": "_country",
          "type": "string"
        },
        {
          "internalType": "string",
          "name": "_paymentMethod",
          "type": "string"
        },
        {
          "internalType": "string",
          "name": "_terms",
          "type": "string"
        },
        {
          "internalType": "int256",
          "name": "_rate",
          "type": "int256"
        },
        {
          "internalType": "string",
          "name": "_title",
          "type": "string"
        }
      ],
      "name": "offerUpdateOffer",
      "outputs": [],
      "stateMutability": "nonpayable",
      "type": "function"
    },
    {
      "inputs": [
        {
          "internalType": "uint256",
          "name": "",
          "type": "uint256"
        }
      ],
      "name": "offers",
      "outputs": [
        {
          "internalType": "address",
          "name": "offerOwner",
          "type": "address"
        },
        {
          "internalType": "uint256",
          "name": "offerTotalTradesAccepted",
          "type": "uint256"
        },
        {
          "internalType": "uint256",
          "name": "offerTotalTradesCompleted",
          "type": "uint256"
        },
        {
          "internalType": "uint256",
          "name": "offerDisputesInvolved",
          "type": "uint256"
        },
        {
          "internalType": "uint256",
          "name": "offerDisputesLost",
          "type": "uint256"
        },
        {
          "internalType": "uint256",
          "name": "offerAverageTradeVolume",
          "type": "uint256"
        },
        {
          "internalType": "uint256",
          "name": "offerMinTradeAmount",
          "type": "uint256"
        },
        {
          "internalType": "uint256",
          "name": "offerMaxTradeAmount",
          "type": "uint256"
        },
        {
          "internalType": "string",
          "name": "offerFiatCurrency",
          "type": "string"
        },
        {
          "internalType": "enum Offer.OfferStatus",
          "name": "offerStatus",
          "type": "uint8"
        },
        {
          "internalType": "uint256",
          "name": "offerCreatedTime",
          "type": "uint256"
        },
        {
          "internalType": "uint256",
          "name": "offerLastUpdatedTime",
          "type": "uint256"
        },
        {
          "internalType": "bool",
          "name": "offerBuyingCrypto",
          "type": "bool"
        },
        {
          "internalType": "string",
          "name": "offerCountry",
          "type": "string"
        },
        {
          "internalType": "string",
          "name": "offerPaymentMethod",
          "type": "string"
        },
        {
          "internalType": "string",
          "name": "offerTerms",
          "type": "string"
        },
        {
          "internalType": "int256",
          "name": "offerRate",
          "type": "int256"
        },
        {
          "internalType": "string",
          "name": "offerTitle",
          "type": "string"
        }
      ],
      "stateMutability": "view",
      "type": "function"
    },
    {
      "inputs": [],
      "name": "owner",
      "outputs": [
        {
          "internalType": "address",
          "name": "",
          "type": "address"
        }
      ],
      "stateMutability": "view",
      "type": "function"
    },
    {
      "inputs": [],
      "name": "pauseContract",
      "outputs": [],
      "stateMutability": "nonpayable",
      "type": "function"
    },
    {
      "inputs": [],
      "name": "paused",
      "outputs": [
        {
          "internalType": "bool",
          "name": "",
          "type": "bool"
        }
      ],
      "stateMutability": "view",
      "type": "function"
    },
    {
      "inputs": [],
      "name": "registry",
      "outputs": [
        {
          "internalType": "contract ContractRegistry",
          "name": "",
          "type": "address"
        }
      ],
      "stateMutability": "view",
      "type": "function"
    },
    {
      "inputs": [
        {
          "internalType": "address",
          "name": "_newOwner",
          "type": "address"
        }
      ],
      "name": "transferOwnership",
      "outputs": [],
      "stateMutability": "nonpayable",
      "type": "function"
    },
    {
      "inputs": [],
      "name": "unpauseContract",
      "outputs": [],
      "stateMutability": "nonpayable",
      "type": "function"
    },
    {
      "inputs": [
        {
          "internalType": "uint256",
          "name": "_offerId",
          "type": "uint256"
        },
        {
          "internalType": "uint256",
          "name": "_tradeVolume",
          "type": "uint256"
        },
        {
          "internalType": "bool",
          "name": "_accepted",
          "type": "bool"
        },
        {
          "internalType": "bool",
          "name": "_completed",
          "type": "bool"
        },
        {
          "internalType": "bool",
          "name": "_disputed",
          "type": "bool"
        },
        {
          "internalType": "bool",
          "name": "_lost",
          "type": "bool"
        },
        {
          "internalType": "uint256",
          "name": "_disputeId",
          "type": "uint256"
        }
      ],
      "name": "updateOfferStats",
      "outputs": [],
      "stateMutability": "nonpayable",
      "type": "function"
    },
    {
      "inputs": [
        {
          "internalType": "address",
          "name": "",
          "type": "address"
        },
        {
          "internalType": "uint256",
          "name": "",
          "type": "uint256"
        }
      ],
      "name": "userOffers",
      "outputs": [
        {
          "internalType": "uint256",
          "name": "",
          "type": "uint256"
        }
      ],
      "stateMutability": "view",
      "type": "function"
    }
  ],
  "bytecode": "0x6080346100c657601f6200264638819003918201601f19168301916001600160401b038311848410176100cb578084926020946040528339810103126100c657516001600160a01b038116908190036100c65780156100825760018060a01b03193381600054161760005560015416176001556040516125649081620000e28239f35b606460405162461bcd60e51b815260206004820152602060248201527f496e76616c696420436f6e7472616374526567697374727920616464726573736044820152fd5b600080fd5b634e487b7160e01b600052604160045260246000fdfe6101c0604052600436101561001357600080fd5b60003560e01c806310bcb2e2146120be5780631115c24d146120a05780632337c5151461192957806337e5814c14610dd8578063439766ce14610d285780634fb64be214610a325780635c975abb14610a0c578063661d2c2c146109585780636862a30d146109195780637b103999146108f05780638a72ea6a146107335780638da5cb5b1461070a578063b33712c514610666578063bd5fec651461060e578063d9efb457146101e1578063e7c84dee146101945763f2fde38b146100d857600080fd5b3461018f57602036600319011261018f576100f1612280565b6000546001600160a01b038082169261010b3385146124ca565b1691821561014a5782907f8be0079c531659141344cd1fd0a4f28419497f9722a3daafe3b4186f6b6457e0600080a36001600160a01b03191617600055005b60405162461bcd60e51b815260206004820152601960248201527f496e76616c6964206e6577206f776e65722061646472657373000000000000006044820152606490fd5b600080fd5b3461018f57604036600319011261018f576001600160a01b036101b5612280565b1660005260066020526040600020602435600052602052602060ff604060002054166040519015158152f35b3461018f5760e036600319011261018f5760246004356044358235811515820361018f5761020d612196565b610215612187565b9060a43590811515820361018f5760c4359186151580610602575b610239906123e2565b61024b60ff60005460a01c1615612489565b60018060a01b0393600195858754169560405180976324ed653d60e11b825281600460209a8b935afa9081156105f6576000916105c0575b5016330361056857841561052f5788600052600386526040600020936000986104f1575b61040f575b508798508097959697906103ec575b610387575b80610364575b6102fd575b50505050506102d657005b7fd66b67374d1f0cfe2efd9e7c89fbe05eab80e430747d044742774ec81a700721600080a2005b7f1974caaa56f2396b7a1eeec15c7637b135dff85ae0a1bad43e7f14cd03317dae9394955060040161032f81546123b0565b90558360005260058252604060002081600052825260406000208560ff19825416179055604051908152a282828180806102cb565b508360005260058352604060002082600052835260ff60406000205416156102c6565b95506003810161039781546123b0565b90558360005260058352604060002082600052835260406000208560ff19825416179055837fd86f9dd1c77d777f69bde5be40f3c0a44f83a19822ec9f1d01706d627b1a649584604051858152a284956102c0565b508460005260058452604060002083600052845260ff60406000205416156102bb565b90965060028301908661042283546123b0565b8084558a7f6510c4115e936f9940135bbcf97d3e4ef247410d1d0b00d0ca466d80d8a5c7fd89604051868152a211156104de57600584019182549054916000198301918383116104c9578281029281840414901517156104b457610485916123d5565b811561049f57899a50989697980490555b859496896102ac565b8a634e487b7160e01b60005260126004526000fd5b8b634e487b7160e01b60005260116004526000fd5b8c634e487b7160e01b60005260116004526000fd5b9050879850600583989697980155610496565b975086840161050081546123b0565b9055887f7c9e0b0754047e1ead631140358526ca151225070ab023c5dc9a68f77f77e774600080a286976102a7565b60405162461bcd60e51b8152600481018790526012818c015271125b9d985b1a5908191a5cdc1d5d1948125160721b6044820152606490fd5b60405162461bcd60e51b815260048101879052602b818c01527f4f6e6c7920547261646520636f6e74726163742063616e20706572666f726d2060448201526a3a3434b99030b1ba34b7b760a91b6064820152608490fd5b90508781813d83116105ef575b6105d781836121c1565b8101031261018f5751818116810361018f578c610283565b503d6105cd565b6040513d6000823e3d90fd5b50600254871115610230565b3461018f57604036600319011261018f57610627612280565b6001600160a01b031660009081526004602052604090208054602435919082101561018f5760209161065891612382565b90546040519160031b1c8152f35b3461018f57600036600319011261018f5760005461068e336001600160a01b038316146124ca565b60ff8160a01c16156106cc5760ff60a01b191660009081557f0e5e3b3fb504c22cf5c42fa07d521225937514c654007e1f12646f89768d6f949080a1005b60405162461bcd60e51b815260206004820152601660248201527510dbdb9d1c9858dd081a5cc81b9bdd081c185d5cd95960521b6044820152606490fd5b3461018f57600036600319011261018f576000546040516001600160a01b039091168152602090f35b3461018f57602036600319011261018f576004356000526003602052604060002080600160a01b60019003815416600182015490600283015460e0526003830154610100526004830154600584015460068501546007860154936008870161079a906122d0565b90600988015460ff1695600a89015493600b8a015495600c8b015460ff1697600d8c016107c6906122d0565b9a6107d3600e8e016122d0565b9c600f016107e0906122d0565b9d60108101546080526011016107f5906122d0565b60a05260405160c0526102409560c0515260c0516020015260e05160c051604001526101005160c0516060015260c0516080015260c05160a0015260c05160c0015260c05160e001528060c051610100015260c051016108549161225b565b9360c0516101200161086591612375565b60c051610140015260c0516101600152151560c051610180015260c051810360c0516101a001526108959161225b565b60c051810360c0516101c001526108ab9161225b565b60c051810360c0516101e001526108c19161225b565b60805160c051610200015260c051810360c051610220015260c0519060a051906108ea9161225b565b0360c051f35b3461018f57600036600319011261018f576001546040516001600160a01b039091168152602090f35b3461018f57604036600319011261018f5760043560005260056020526040600020602435600052602052602060ff604060002054166040519015158152f35b3461018f5760208060031936011261018f576001600160a01b0361097a612280565b1660005260048152604060002060405190818382549182815201908192600052846000209060005b868282106109f85786866109b8828803836121c1565b604051928392818401908285525180915260408401929160005b8281106109e157505050500390f35b8351855286955093810193928101926001016109d2565b8354855290930192600192830192016109a2565b3461018f57600036600319011261018f57602060ff60005460a01c166040519015158152f35b3461018f57602036600319011261018f5760043580151580610d1c575b610a58906123e2565b6000526003602052604060002060405190610a72826121a5565b80546001600160a01b0316825260018101546020830152600281015460408301526003810154606083015260048101546080830152600581015460a0830152600681015460c0830152600781015460e0830152610ad1600882016122d0565b61010083015260ff6009820154166003811015610d0657610b6291601191610120850152600a810154610140850152600b81015461016085015260ff600c820154161515610180850152610b27600d82016122d0565b6101a0850152610b39600e82016122d0565b6101c0850152610b4b600f82016122d0565b6101e08501526010810154610200850152016122d0565b6102208201528051602082015160408301516101805260608301516101a052608083015160a084015160c085015160e0860151610100870151610120880151919691949392916001600160a01b03166003861015610d06578897610140890151936101608a0151956101808b01511515976101a08c01519a6101c08d01519c6101e001519d610200810151610120526102200151610140526040516101605261024095610160515261016051602001526101805161016051604001526101a051610160516060015261016051608001526101605160a001526101605160c001526101605160e00152806101605161010001526101605101610c629161225b565b9315610160516101200152610160516101400152610160516101600152610160516101800152610160518103610160516101a00152610ca09161225b565b610160518103610160516101c00152610cb89161225b565b610160518103610160516101e00152610cd09161225b565b6101205161016051610200015261016051810361016051610220015261016051906101405190610cff9161225b565b0361016051f35b634e487b7160e01b600052602160045260246000fd5b50600254811115610a4f565b3461018f57600036600319011261018f57600054610d50336001600160a01b038316146124ca565b60ff8160a01c16610d935760ff60a01b1916600160a01b1760009081557fab35696f06e428ebc5ceba8cd17f8fed287baf43440206d1943af1ee53e6d2679080a1005b60405162461bcd60e51b815260206004820152601a60248201527f436f6e747261637420697320616c7265616479207061757365640000000000006044820152606490fd5b3461018f5761012036600319011261018f576044356001600160401b03811161018f57610e099036906004016121e2565b610e11612196565b906084356001600160401b03811161018f57610e319036906004016121e2565b60a4356001600160401b03811161018f57610e509036906004016121e2565b60c4356001600160401b03811161018f57610e6f9036906004016121e2565b610104356001600160401b03811161018f57610e8f9036906004016121e2565b91610ea260ff60005460a01c1615612489565b610eb26024356004351115612425565b8451156118e45783511561189f5780511561185a5781511561181d578251156117e0576040513360601b602082015260043560348201526024356054820152610f846095828851610f0a816074840160208d01612238565b8a151560f81b60748284010152885190610f2d8260758386010160208d01612238565b820101855190610f44826075830160208a01612238565b01865190610f59826075830160208b01612238565b0160e4356075820152875190610f758285830160208c01612238565b010360758101845201826121c1565b6020815191012033600052600660205260406000208160005260205260ff6040600020541661179b573360005260066020526040600020906000526020526040600020600160ff19825416179055610fdd6002546123b0565b938460025560405196610fef886121a5565b33885260006020890152600060408901526000606089015260006080890152600060a089015260043560c089015260243560e0890152866101008901526000610120890152426101408901524261016089015215156101808801526101a08701526101c08601526101e085015260e4356102008501526102208401526000526003602052604060002060018060a01b038351166bffffffffffffffffffffffff60a01b8254161781556020830151600182015560408301516002820155606083015160038201556080830151600482015560a0830151600582015560c0830151600682015560e083015160078201556101008301519283516001600160401b0381116113bc576111026008840154612296565b601f8111611754575b506020601f82116001146116e55781929394956000926116da575b50508160011b916000199060031b1c19161760088301555b6101208101516003811015610d065761115a9060098401612471565b610140810151600a830155610160810151600b8301556111906101808201511515600c84019060ff801983541691151516179055565b6101a08101519283516001600160401b0381116113bc576111b4600d850154612296565b601f8111611693575b506020601f8211600114611624578192939495600092611619575b50508160011b916000199060031b1c191617600d8401555b6101c08201519283516001600160401b0381116113bc57611214600e830154612296565b601f81116115d2575b506020601f8211600114611563578192939495600092611558575b50508160011b916000199060031b1c191617600e8201555b6101e08301519283516001600160401b0381116113bc57611274600f840154612296565b601f8111611511575b506020601f821160011461149d578190610220949596600092611492575b50508160011b916000199060031b1c191617600f8401555b610200810151601084015501518051906001600160401b0382116113bc576112de6011840154612296565b601f811161144b575b50602090601f83116001146113dd5760119291600091836113d2575b50508160011b916000199060031b1c1916179101555b3360005260046020526040600020600254908054680100000000000000008110156113bc5761134d91600182018155612382565b819291549060031b91821b91600019901b19161790556002547f4ff5427640a489b1309586ab0601b3a3efe935b24a10675c05b4c967c67e1af56113ac604051936004358552602435602086015260806040860152608085019061225b565b92600060608201528033940390a3005b634e487b7160e01b600052604160045260246000fd5b015190508580611303565b90601f198316916011850160005260206000209260005b8181106114335750916001939185601196941061141a575b505050811b01910155611319565b015160001960f88460031b161c1916905585808061140c565b929360206001819287860151815501950193016113f4565b601184016000526020600020601f840160051c81016020851061148b575b601f830160051c8201811061147f5750506112e7565b60008155600101611469565b5080611469565b01519050868061129b565b600f840160005260206000209560005b601f19841681106114f95750958291610220959697600194601f198116106114e0575b505050811b01600f8401556112b3565b015160001960f88460031b161c191690558680806114d0565b828201518855600190970196602092830192016114ad565b600f84016000526020600020601f830160051c810160208410611551575b601f830160051c8201811061154557505061127d565b6000815560010161152f565b508061152f565b015190508580611238565b600e830160005260206000209060005b601f19841681106115ba575060019394959683601f198116106115a1575b505050811b01600e820155611250565b015160001960f88460031b161c19169055858080611591565b9091602060018192858b015181550193019101611573565b600e83016000526020600020601f830160051c810160208410611612575b601f830160051c8201811061160657505061121d565b600081556001016115f0565b50806115f0565b0151905085806111d8565b600d850160005260206000209060005b601f198416811061167b575060019394959683601f19811610611662575b505050811b01600d8401556111f0565b015160001960f88460031b161c19169055858080611652565b9091602060018192858b015181550193019101611634565b600d85016000526020600020601f830160051c8101602084106116d3575b601f830160051c820181106116c75750506111bd565b600081556001016116b1565b50806116b1565b015190508580611126565b6008840160005260206000209060005b601f198416811061173c575060019394959683601f19811610611723575b505050811b01600883015561113e565b015160001960f88460031b161c19169055858080611713565b9091602060018192858b0151815501930191016116f5565b600884016000526020600020601f830160051c810160208410611794575b601f830160051c8201811061178857505061110b565b60008155600101611772565b5080611772565b60405162461bcd60e51b815260206004820152601a60248201527f4475706c6963617465206f6666657220706172616d65746572730000000000006044820152606490fd5b60405162461bcd60e51b81526020600482015260156024820152745469746c652063616e6e6f7420626520656d70747960581b6044820152606490fd5b60405162461bcd60e51b81526020600482015260156024820152745465726d732063616e6e6f7420626520656d70747960581b6044820152606490fd5b60405162461bcd60e51b815260206004820152601e60248201527f5061796d656e74206d6574686f642063616e6e6f7420626520656d70747900006044820152606490fd5b60405162461bcd60e51b815260206004820152601760248201527f436f756e7472792063616e6e6f7420626520656d7074790000000000000000006044820152606490fd5b60405162461bcd60e51b815260206004820152601d60248201527f466961742063757272656e63792063616e6e6f7420626520656d7074790000006044820152606490fd5b3461018f5761014036600319011261018f576003606435101561018f5761194e612187565b60a4356001600160401b03811161018f5761196d9036906004016121e2565b9060c4356001600160401b03811161018f5761198d9036906004016121e2565b9160e4356001600160401b03811161018f576119ad9036906004016121e2565b91610124356001600160401b03811161018f576119ce9036906004016121e2565b91600435151580612092575b6119e3906123e2565b6004356000908152600360205260409020546001600160a01b0316330361203f57611a146044356024351115612425565b6004356000526003602052611a5b6040600020926006840160243581541480159061202f575b611fe4575b5042600b850155600c84019060ff801983541691151516179055565b8051906001600160401b0382116113bc578190611a7b600d850154612296565b601f8111611f91575b50602090601f8311600114611f1f57600092611f14575b50508160011b916000199060031b1c191617600d8201555b83516001600160401b0381116113bc57611ad0600e830154612296565b601f8111611ecd575b506020601f8211600114611e5e578192939495600092611e53575b50508160011b916000199060031b1c191617600e8201555b82516001600160401b0381116113bc57611b29600f830154612296565b601f8111611e0c575b506020601f8211600114611d9e5781929394600092611d93575b50508160011b916000199060031b1c191617600f8201555b6101043560108201558151916001600160401b0383116113bc57611b8b6011830154612296565b601f8111611d4c575b50602090601f8411600114611cda576009939160009183611ccf575b50508160011b916000199060031b1c19161760118201555b60405160243581526044356020820152611be760408201606435612375565b7f717fc81b09bb28d1499ca69d8f6d21b741760663f18fe922dbe60d620edd02d6606060043592a20160ff8154166003811015610d065760643503611c2857005b611c359060643590612471565b606435600103611c6a576004357f8775e89363a51ba48aada8894a2b439b5661fbdb59f8c48bf080272e04e7a4d8600080a25b005b606435611c9b576004357f5f69fa7e73fc633eabbf61aa5ba9af951cb73bbb6c0c1378638af9323a998e52600080a2005b600260643503611c68576004357facbc44b7f46dc350c99fc0d9e5f61ed5c588cb4cdc6b69ea0deb0c5b28e5efc4600080a2005b015190508480611bb0565b906011830160005260206000209160005b601f1986168110611d345750918491600193600996601f19811610611d1b575b505050811b016011820155611bc8565b015160001960f88460031b161c19169055848080611d0b565b91926020600181928685015181550194019201611ceb565b601183016000526020600020601f850160051c810160208610611d8c575b601f830160051c82018110611d80575050611b94565b60008155600101611d6a565b5080611d6a565b015190508480611b4c565b600f830160005260206000209060005b601f1984168110611df45750600193949583601f19811610611ddb575b505050811b01600f820155611b64565b015160001960f88460031b161c19169055848080611dcb565b9091602060018192858a015181550193019101611dae565b600f83016000526020600020601f830160051c810160208410611e4c575b601f830160051c82018110611e40575050611b32565b60008155600101611e2a565b5080611e2a565b015190508580611af4565b600e830160005260206000209060005b601f1984168110611eb5575060019394959683601f19811610611e9c575b505050811b01600e820155611b0c565b015160001960f88460031b161c19169055858080611e8c565b9091602060018192858b015181550193019101611e6e565b600e83016000526020600020601f830160051c810160208410611f0d575b601f830160051c82018110611f01575050611ad9565b60008155600101611eeb565b5080611eeb565b015190508680611a9b565b9250600d84016000526020600020906000935b601f1984168510611f76576001945083601f19811610611f5d575b505050811b01600d820155611ab3565b015160001960f88460031b161c19169055868080611f4d565b81810151835560209485019460019093019290910190611f32565b909150600d84016000526020600020601f840160051c810160208510611fdd575b90849392915b601f830160051c82018110611fce575050611a84565b60008155859450600101611fb8565b5080611fb2565b60243590556044356007850155604051602435815260443560208201527f55d5258cbaf85df9ff05dc6686d48ac69a8348fb5a953140fa91f218d3af9cbe604060043592a287611a3f565b5060443560078601541415611a3a565b60405162461bcd60e51b815260206004820152602560248201527f4f6e6c79206f66666572206f776e65722063616e20757064617465207468652060448201526437b33332b960d91b6064820152608490fd5b5060025460043511156119da565b3461018f57600036600319011261018f576020600254604051908152f35b3461018f57600036600319011261018f576000806000806001936001600295600254965b878311156121085750505060809450604051938452602084015260408301526060820152f35b90919461217a612180918760009997969952600361216561214f61213960209a848c528960406000200154906123d5565b9b8b600052838b528760406000200154906123d5565b978a600052828a528260406000200154906123d5565b978960005252600460406000200154906123d5565b956123b0565b91906120e2565b60843590811515820361018f57565b60643590811515820361018f57565b61024081019081106001600160401b038211176113bc57604052565b90601f801991011681019081106001600160401b038211176113bc57604052565b81601f8201121561018f578035906001600160401b0382116113bc5760405192612216601f8401601f1916602001856121c1565b8284526020838301011161018f57816000926020809301838601378301015290565b60005b83811061224b5750506000910152565b818101518382015260200161223b565b9060209161227481518092818552858086019101612238565b601f01601f1916010190565b600435906001600160a01b038216820361018f57565b90600182811c921680156122c6575b60208310146122b057565b634e487b7160e01b600052602260045260246000fd5b91607f16916122a5565b906040519182600082546122e381612296565b908184526020946001916001811690816000146123535750600114612314575b505050612312925003836121c1565b565b600090815285812095935091905b81831061233b5750506123129350820101388080612303565b85548884018501529485019487945091830191612322565b9250505061231294925060ff191682840152151560051b820101388080612303565b906003821015610d065752565b805482101561239a5760005260206000200190600090565b634e487b7160e01b600052603260045260246000fd5b60001981146123bf5760010190565b634e487b7160e01b600052601160045260246000fd5b919082018092116123bf57565b156123e957565b60405162461bcd60e51b815260206004820152601460248201527313d999995c88191bd95cc81b9bdd08195e1a5cdd60621b6044820152606490fd5b1561242c57565b60405162461bcd60e51b815260206004820152601a60248201527f496e76616c696420747261646520616d6f756e742072616e67650000000000006044820152606490fd5b906003811015610d065760ff80198354169116179055565b1561249057565b60405162461bcd60e51b815260206004820152601260248201527110dbdb9d1c9858dd081a5cc81c185d5cd95960721b6044820152606490fd5b156124d157565b60405162461bcd60e51b815260206004820152602f60248201527f4f6e6c792074686520636f6e7472616374206f776e65722063616e207065726660448201526e37b936903a3434b99030b1ba34b7b760891b6064820152608490fdfea26469706673582212209859cc9663d0934d91ef477548d7cceeff8f382f66629360a850141836ba7cea64736f6c63430008180033",
  "linkReferences": {},
  "deployedLinkReferences": {}
}