{
  "_format": "hh-sol-artifact-1",
  "contractName": "Offer",
  "sourceName": "contracts/Offer.sol",
  "abi": [
    {
      "inputs": [
        {
          "internalType": "address",
          "name": "_registryAddress",
          "type": "address"
        }
      ],
      "stateMutability": "nonpayable",
      "type": "constructor"
    },
    {
      "anonymous": false,
      "inputs": [],
      "name": "ContractPaused",
      "type": "event"
    },
    {
      "anonymous": false,
      "inputs": [],
      "name": "ContractUnpaused",
      "type": "event"
    },
    {
      "anonymous": false,
      "inputs": [
        {
          "indexed": true,
          "internalType": "uint256",
          "name": "offerId",
          "type": "uint256"
        }
      ],
      "name": "OfferActivated",
      "type": "event"
    },
    {
      "anonymous": false,
      "inputs": [
        {
          "indexed": true,
          "internalType": "uint256",
          "name": "offerId",
          "type": "uint256"
        },
        {
          "indexed": true,
          "internalType": "address",
          "name": "offerOwner",
          "type": "address"
        },
        {
          "indexed": false,
          "internalType": "uint256",
          "name": "minTradeAmount",
          "type": "uint256"
        },
        {
          "indexed": false,
          "internalType": "uint256",
          "name": "maxTradeAmount",
          "type": "uint256"
        },
        {
          "indexed": false,
          "internalType": "string",
          "name": "fiatCurrency",
          "type": "string"
        },
        {
          "indexed": false,
          "internalType": "enum Offer.OfferStatus",
          "name": "status",
          "type": "uint8"
        }
      ],
      "name": "OfferCreated",
      "type": "event"
    },
    {
      "anonymous": false,
      "inputs": [
        {
          "indexed": true,
          "internalType": "uint256",
          "name": "offerId",
          "type": "uint256"
        },
        {
          "indexed": false,
          "internalType": "uint256",
          "name": "disputeId",
          "type": "uint256"
        }
      ],
      "name": "OfferDisputeInvolved",
      "type": "event"
    },
    {
      "anonymous": false,
      "inputs": [
        {
          "indexed": true,
          "internalType": "uint256",
          "name": "offerId",
          "type": "uint256"
        },
        {
          "indexed": false,
          "internalType": "uint256",
          "name": "disputeId",
          "type": "uint256"
        }
      ],
      "name": "OfferDisputeLost",
      "type": "event"
    },
    {
      "anonymous": false,
      "inputs": [
        {
          "indexed": true,
          "internalType": "uint256",
          "name": "offerId",
          "type": "uint256"
        },
        {
          "indexed": false,
          "internalType": "uint256",
          "name": "minAmount",
          "type": "uint256"
        },
        {
          "indexed": false,
          "internalType": "uint256",
          "name": "maxAmount",
          "type": "uint256"
        }
      ],
      "name": "OfferMinMaxTradeAmountsChanged",
      "type": "event"
    },
    {
      "anonymous": false,
      "inputs": [
        {
          "indexed": true,
          "internalType": "uint256",
          "name": "offerId",
          "type": "uint256"
        }
      ],
      "name": "OfferPaused",
      "type": "event"
    },
    {
      "anonymous": false,
      "inputs": [
        {
          "indexed": true,
          "internalType": "uint256",
          "name": "offerId",
          "type": "uint256"
        }
      ],
      "name": "OfferStatsUpdated",
      "type": "event"
    },
    {
      "anonymous": false,
      "inputs": [
        {
          "indexed": true,
          "internalType": "uint256",
          "name": "offerId",
          "type": "uint256"
        }
      ],
      "name": "OfferTradeAccepted",
      "type": "event"
    },
    {
      "anonymous": false,
      "inputs": [
        {
          "indexed": true,
          "internalType": "uint256",
          "name": "offerId",
          "type": "uint256"
        },
        {
          "indexed": false,
          "internalType": "uint256",
          "name": "tradeVolume",
          "type": "uint256"
        }
      ],
      "name": "OfferTradeCompleted",
      "type": "event"
    },
    {
      "anonymous": false,
      "inputs": [
        {
          "indexed": true,
          "internalType": "uint256",
          "name": "offerId",
          "type": "uint256"
        },
        {
          "indexed": false,
          "internalType": "uint256",
          "name": "minTradeAmount",
          "type": "uint256"
        },
        {
          "indexed": false,
          "internalType": "uint256",
          "name": "maxTradeAmount",
          "type": "uint256"
        },
        {
          "indexed": false,
          "internalType": "enum Offer.OfferStatus",
          "name": "status",
          "type": "uint8"
        }
      ],
      "name": "OfferUpdated",
      "type": "event"
    },
    {
      "anonymous": false,
      "inputs": [
        {
          "indexed": true,
          "internalType": "uint256",
          "name": "offerId",
          "type": "uint256"
        }
      ],
      "name": "OfferWithdrawn",
      "type": "event"
    },
    {
      "anonymous": false,
      "inputs": [
        {
          "indexed": true,
          "internalType": "address",
          "name": "previousOwner",
          "type": "address"
        },
        {
          "indexed": true,
          "internalType": "address",
          "name": "newOwner",
          "type": "address"
        }
      ],
      "name": "OwnershipTransferred",
      "type": "event"
    },
    {
      "inputs": [],
      "name": "getOfferCounts",
      "outputs": [
        {
          "internalType": "uint256",
          "name": "",
          "type": "uint256"
        },
        {
          "internalType": "uint256",
          "name": "",
          "type": "uint256"
        },
        {
          "internalType": "uint256",
          "name": "",
          "type": "uint256"
        },
        {
          "internalType": "uint256",
          "name": "",
          "type": "uint256"
        }
      ],
      "stateMutability": "view",
      "type": "function"
    },
    {
      "inputs": [
        {
          "internalType": "uint256",
          "name": "_offerId",
          "type": "uint256"
        }
      ],
      "name": "getOfferDetails",
      "outputs": [
        {
          "internalType": "address",
          "name": "",
          "type": "address"
        },
        {
          "internalType": "uint256",
          "name": "",
          "type": "uint256"
        },
        {
          "internalType": "uint256",
          "name": "",
          "type": "uint256"
        },
        {
          "internalType": "uint256",
          "name": "",
          "type": "uint256"
        },
        {
          "internalType": "uint256",
          "name": "",
          "type": "uint256"
        },
        {
          "internalType": "uint256",
          "name": "",
          "type": "uint256"
        },
        {
          "internalType": "uint256",
          "name": "",
          "type": "uint256"
        },
        {
          "internalType": "uint256",
          "name": "",
          "type": "uint256"
        },
        {
          "internalType": "string",
          "name": "",
          "type": "string"
        },
        {
          "internalType": "bool",
          "name": "",
          "type": "bool"
        },
        {
          "internalType": "uint256",
          "name": "",
          "type": "uint256"
        },
        {
          "internalType": "uint256",
          "name": "",
          "type": "uint256"
        }
      ],
      "stateMutability": "view",
      "type": "function"
    },
    {
      "inputs": [
        {
          "internalType": "address",
          "name": "_user",
          "type": "address"
        }
      ],
      "name": "getUserOffers",
      "outputs": [
        {
          "internalType": "uint256[]",
          "name": "",
          "type": "uint256[]"
        }
      ],
      "stateMutability": "view",
      "type": "function"
    },
    {
      "inputs": [],
      "name": "offerCount",
      "outputs": [
        {
          "internalType": "uint256",
          "name": "",
          "type": "uint256"
        }
      ],
      "stateMutability": "view",
      "type": "function"
    },
    {
      "inputs": [
        {
          "internalType": "uint256",
          "name": "_minTradeAmount",
          "type": "uint256"
        },
        {
          "internalType": "uint256",
          "name": "_maxTradeAmount",
          "type": "uint256"
        },
        {
          "internalType": "string",
          "name": "_fiatCurrency",
          "type": "string"
        }
      ],
      "name": "offerCreate",
      "outputs": [],
      "stateMutability": "nonpayable",
      "type": "function"
    },
    {
      "inputs": [
        {
          "internalType": "uint256",
          "name": "",
          "type": "uint256"
        },
        {
          "internalType": "uint256",
          "name": "",
          "type": "uint256"
        }
      ],
      "name": "offerDisputeCounted",
      "outputs": [
        {
          "internalType": "bool",
          "name": "",
          "type": "bool"
        }
      ],
      "stateMutability": "view",
      "type": "function"
    },
    {
      "inputs": [
        {
          "internalType": "address",
          "name": "",
          "type": "address"
        },
        {
          "internalType": "bytes32",
          "name": "",
          "type": "bytes32"
        }
      ],
      "name": "offerParametersUsed",
      "outputs": [
        {
          "internalType": "bool",
          "name": "",
          "type": "bool"
        }
      ],
      "stateMutability": "view",
      "type": "function"
    },
    {
      "inputs": [
        {
          "internalType": "uint256",
          "name": "_offerId",
          "type": "uint256"
        },
        {
          "internalType": "uint256",
          "name": "_minTradeAmount",
          "type": "uint256"
        },
        {
          "internalType": "uint256",
          "name": "_maxTradeAmount",
          "type": "uint256"
        },
        {
          "internalType": "enum Offer.OfferStatus",
          "name": "_status",
          "type": "uint8"
        }
      ],
      "name": "offerUpdateOffer",
      "outputs": [],
      "stateMutability": "nonpayable",
      "type": "function"
    },
    {
      "inputs": [
        {
          "internalType": "uint256",
          "name": "",
          "type": "uint256"
        }
      ],
      "name": "offers",
      "outputs": [
        {
          "internalType": "address",
          "name": "offerOwner",
          "type": "address"
        },
        {
          "internalType": "uint256",
          "name": "offerTotalTradesAccepted",
          "type": "uint256"
        },
        {
          "internalType": "uint256",
          "name": "offerTotalTradesCompleted",
          "type": "uint256"
        },
        {
          "internalType": "uint256",
          "name": "offerDisputesInvolved",
          "type": "uint256"
        },
        {
          "internalType": "uint256",
          "name": "offerDisputesLost",
          "type": "uint256"
        },
        {
          "internalType": "uint256",
          "name": "offerAverageTradeVolume",
          "type": "uint256"
        },
        {
          "internalType": "uint256",
          "name": "offerMinTradeAmount",
          "type": "uint256"
        },
        {
          "internalType": "uint256",
          "name": "offerMaxTradeAmount",
          "type": "uint256"
        },
        {
          "internalType": "string",
          "name": "offerFiatCurrency",
          "type": "string"
        },
        {
          "internalType": "enum Offer.OfferStatus",
          "name": "offerStatus",
          "type": "uint8"
        },
        {
          "internalType": "uint256",
          "name": "offerCreatedTime",
          "type": "uint256"
        },
        {
          "internalType": "uint256",
          "name": "offerLastUpdatedTime",
          "type": "uint256"
        }
      ],
      "stateMutability": "view",
      "type": "function"
    },
    {
      "inputs": [],
      "name": "owner",
      "outputs": [
        {
          "internalType": "address",
          "name": "",
          "type": "address"
        }
      ],
      "stateMutability": "view",
      "type": "function"
    },
    {
      "inputs": [],
      "name": "pauseContract",
      "outputs": [],
      "stateMutability": "nonpayable",
      "type": "function"
    },
    {
      "inputs": [],
      "name": "paused",
      "outputs": [
        {
          "internalType": "bool",
          "name": "",
          "type": "bool"
        }
      ],
      "stateMutability": "view",
      "type": "function"
    },
    {
      "inputs": [],
      "name": "registry",
      "outputs": [
        {
          "internalType": "contract ContractRegistry",
          "name": "",
          "type": "address"
        }
      ],
      "stateMutability": "view",
      "type": "function"
    },
    {
      "inputs": [
        {
          "internalType": "address",
          "name": "_newOwner",
          "type": "address"
        }
      ],
      "name": "transferOwnership",
      "outputs": [],
      "stateMutability": "nonpayable",
      "type": "function"
    },
    {
      "inputs": [],
      "name": "unpauseContract",
      "outputs": [],
      "stateMutability": "nonpayable",
      "type": "function"
    },
    {
      "inputs": [
        {
          "internalType": "uint256",
          "name": "_offerId",
          "type": "uint256"
        },
        {
          "internalType": "uint256",
          "name": "_tradeVolume",
          "type": "uint256"
        },
        {
          "internalType": "bool",
          "name": "_accepted",
          "type": "bool"
        },
        {
          "internalType": "bool",
          "name": "_completed",
          "type": "bool"
        },
        {
          "internalType": "bool",
          "name": "_disputed",
          "type": "bool"
        },
        {
          "internalType": "bool",
          "name": "_lost",
          "type": "bool"
        },
        {
          "internalType": "uint256",
          "name": "_disputeId",
          "type": "uint256"
        }
      ],
      "name": "updateOfferStats",
      "outputs": [],
      "stateMutability": "nonpayable",
      "type": "function"
    },
    {
      "inputs": [
        {
          "internalType": "address",
          "name": "",
          "type": "address"
        },
        {
          "internalType": "uint256",
          "name": "",
          "type": "uint256"
        }
      ],
      "name": "userOffers",
      "outputs": [
        {
          "internalType": "uint256",
          "name": "",
          "type": "uint256"
        }
      ],
      "stateMutability": "view",
      "type": "function"
    }
  ],
  "bytecode": "0x6080346100c457601f61178c38819003918201601f19168301916001600160401b038311848410176100c9578084926020946040528339810103126100c457516001600160a01b038116908190036100c45780156100805760018060a01b03193381600054161760005560015416176001556040516116ac90816100e08239f35b606460405162461bcd60e51b815260206004820152602060248201527f496e76616c696420436f6e7472616374526567697374727920616464726573736044820152fd5b600080fd5b634e487b7160e01b600052604160045260246000fdfe6080604052600436101561001257600080fd5b60003560e01c806310bcb2e2146112785780631115c24d1461125a578063261d810214611032578063439766ce14610f825780634fb64be214610e155780635c975abb14610def578063661d2c2c14610d3b5780636862a30d14610cfc5780636f086d3a146108365780637b1039991461080d5780638a72ea6a1461073a5780638da5cb5b14610711578063b33712c51461066d578063bd5fec6514610615578063d9efb457146101e0578063e7c84dee146101935763f2fde38b146100d757600080fd5b3461018e57602036600319011261018e576100f0611389565b6000546001600160a01b038082169261010a3385146115d1565b169182156101495782907f8be0079c531659141344cd1fd0a4f28419497f9722a3daafe3b4186f6b6457e0600080a36001600160a01b03191617600055005b60405162461bcd60e51b815260206004820152601960248201527f496e76616c6964206e6577206f776e65722061646472657373000000000000006044820152606490fd5b600080fd5b3461018e57604036600319011261018e576001600160a01b036101b4611389565b1660005260066020526040600020602435600052602052602060ff604060002054166040519015158152f35b3461018e5760e036600319011261018e5760246004356044358235811515820361018e57606435801515810361018e5760843590811515820361018e5760a43590811515820361018e5760c4359186151580610609575b6102409061152a565b61025260ff60005460a01c1615611635565b60018060a01b0393600195858754169560405180976324ed653d60e11b825281600460209a8b935afa9081156105fd576000916105c7575b5016330361056f5784156105365788600052600386526040600020936000986104f8575b610416575b508798508097959697906103f3575b61038e575b8061036b575b610304575b50505050506102dd57005b7fd66b67374d1f0cfe2efd9e7c89fbe05eab80e430747d044742774ec81a700721600080a2005b7f1974caaa56f2396b7a1eeec15c7637b135dff85ae0a1bad43e7f14cd03317dae9394955060040161033681546114f8565b90558360005260058252604060002081600052825260406000208560ff19825416179055604051908152a282828180806102d2565b508360005260058352604060002082600052835260ff60406000205416156102cd565b95506003810161039e81546114f8565b90558360005260058352604060002082600052835260406000208560ff19825416179055837fd86f9dd1c77d777f69bde5be40f3c0a44f83a19822ec9f1d01706d627b1a649584604051858152a284956102c7565b508460005260058452604060002083600052845260ff60406000205416156102c2565b90965060028301908661042983546114f8565b8084558a7f6510c4115e936f9940135bbcf97d3e4ef247410d1d0b00d0ca466d80d8a5c7fd89604051868152a211156104e557600584019182549054916000198301918383116104d0578281029281840414901517156104bb5761048c9161151d565b81156104a657899a50989697980490555b859496896102b3565b8a634e487b7160e01b60005260126004526000fd5b8b634e487b7160e01b60005260116004526000fd5b8c634e487b7160e01b60005260116004526000fd5b905087985060058398969798015561049d565b975086840161050781546114f8565b9055887f7c9e0b0754047e1ead631140358526ca151225070ab023c5dc9a68f77f77e774600080a286976102ae565b60405162461bcd60e51b8152600481018790526012818c015271125b9d985b1a5908191a5cdc1d5d1948125160721b6044820152606490fd5b60405162461bcd60e51b815260048101879052602b818c01527f4f6e6c7920547261646520636f6e74726163742063616e20706572666f726d2060448201526a3a3434b99030b1ba34b7b760a91b6064820152608490fd5b90508781813d83116105f6575b6105de81836113bc565b8101031261018e5751818116810361018e578c61028a565b503d6105d4565b6040513d6000823e3d90fd5b50600254871115610237565b3461018e57604036600319011261018e5761062e611389565b6001600160a01b031660009081526004602052604090208054602435919082101561018e5760209161065f916114ca565b90546040519160031b1c8152f35b3461018e57600036600319011261018e57600054610695336001600160a01b038316146115d1565b60ff8160a01c16156106d35760ff60a01b191660009081557f0e5e3b3fb504c22cf5c42fa07d521225937514c654007e1f12646f89768d6f949080a1005b60405162461bcd60e51b815260206004820152601660248201527510dbdb9d1c9858dd081a5cc81b9bdd081c185d5cd95960521b6044820152606490fd5b3461018e57600036600319011261018e576000546040516001600160a01b039091168152602090f35b3461018e57602036600319011261018e57600435600052600360205260408060002060018060a01b038154166001820154916002810154906107fd6107f1600383015494600484015490600585015460068601546007870154916107a060088901611418565b9460ff60098a0154169a600b600a8b01549a01549a8e519e8f9e8f906101809982526020820152015260608d015260808c015260a08b015260c08a015260e089015280610100890152870190611364565b936101208601906114bd565b6101408401526101608301520390f35b3461018e57600036600319011261018e576001546040516001600160a01b039091168152602090f35b3461018e57606036600319011261018e5760443567ffffffffffffffff811161018e573660238201121561018e5780600401359067ffffffffffffffff8211610b855760405191610891601f8201601f1916602001846113bc565b8083526020830191366024838301011161018e57816000926024602093018537840101526108c760ff60005460a01c1615611635565b6108d7602435600435111561156d565b815115610cb75760405161092260748260208101943360601b8652600435603483015260243560548301526109128751809285850190611341565b81010360548101845201826113bc565b51902033600052600660205260406000208160005260205260ff60406000205416610c72573360005260066020526040600020906000526020526040600020600160ff198254161790556109776002546114f8565b9081600255604051916109898361139f565b33835260006020840152600060408401526000606084015260006080840152600060a084015260043560c084015260243560e084015281610100840152600061012084015242610140840152426101608401526000526003602052604060002060018060a01b038351166bffffffffffffffffffffffff60a01b8254161781556020830151600182015560408301516002820155606083015160038201556080830151600482015560a0830151600582015560c0830151600682015560e0830151600782015561010083015192835167ffffffffffffffff8111610b8557610a7460088401546113de565b601f8111610c2b575b506020601f8211600114610bbc578192939495600092610bb1575b50508160011b916000199060031b1c19161760088301555b6101208101516003811015610b9b57600b91610ad261016092600986016115b9565b610140810151600a8501550151910155336000526004602052604060002060025490805468010000000000000000811015610b8557610b16916001820181556114ca565b819291549060031b91821b91600019901b19161790556002547f4ff5427640a489b1309586ab0601b3a3efe935b24a10675c05b4c967c67e1af5610b756040519360043585526024356020860152608060408601526080850190611364565b92600060608201528033940390a3005b634e487b7160e01b600052604160045260246000fd5b634e487b7160e01b600052602160045260246000fd5b015190508580610a98565b6008840160005260206000209060005b601f1984168110610c13575060019394959683601f19811610610bfa575b505050811b016008830155610ab0565b015160001960f88460031b161c19169055858080610bea565b9091602060018192858b015181550193019101610bcc565b600884016000526020600020601f830160051c810160208410610c6b575b601f830160051c82018110610c5f575050610a7d565b60008155600101610c49565b5080610c49565b60405162461bcd60e51b815260206004820152601a60248201527f4475706c6963617465206f6666657220706172616d65746572730000000000006044820152606490fd5b60405162461bcd60e51b815260206004820152601d60248201527f466961742063757272656e63792063616e6e6f7420626520656d7074790000006044820152606490fd5b3461018e57604036600319011261018e5760043560005260056020526040600020602435600052602052602060ff604060002054166040519015158152f35b3461018e5760208060031936011261018e576001600160a01b03610d5d611389565b1660005260048152604060002060405190818382549182815201908192600052846000209060005b86828210610ddb578686610d9b828803836113bc565b604051928392818401908285525180915260408401929160005b828110610dc457505050500390f35b835185528695509381019392810192600101610db5565b835485529093019260019283019201610d85565b3461018e57600036600319011261018e57602060ff60005460a01c166040519015158152f35b3461018e57602036600319011261018e5760043580151580610f76575b610e3b9061152a565b60005260036020526040600020604051610e548161139f565b60018060a01b039081835416815260018301549160208201928352600284015493604083019485526003810154926060810193845260048201546080820152600582015460a0820152600682015460c0820152600782015460e0820152610ebd60088301611418565b61010082015260ff600983015416936003851015610b9b576020958286610120610f5e950152600b600a860154958661014084015201549586610160830152815116915198519251608082015160a08301519060c08401519261010060e0860151950151966040519d8e9d8e610180998152015260408d015260608c015260808b015260a08a015260c089015260e088015280610100880152860190611364565b92156101208501526101408401526101608301520390f35b50600254811115610e32565b3461018e57600036600319011261018e57600054610faa336001600160a01b038316146115d1565b60ff8160a01c16610fed5760ff60a01b1916600160a01b1760009081557fab35696f06e428ebc5ceba8cd17f8fed287baf43440206d1943af1ee53e6d2679080a1005b60405162461bcd60e51b815260206004820152601a60248201527f436f6e747261637420697320616c7265616479207061757365640000000000006044820152606490fd5b3461018e57608036600319011261018e57600435606435602435604435600383101561018e578315158061124e575b61106a9061152a565b6000848152600360205260409020546001600160a01b031633036111fb57837f717fc81b09bb28d1499ca69d8f6d21b741760663f18fe922dbe60d620edd02d66060846110bb85600997111561156d565b8360005260036020526040600020948160068701818154148015906111ed575b6111af575b505042600b870155604051918252602082015261110060408201886114bd565ba20160ff8154166003811015610b9b57820361111857005b81611122916115b9565b6001810361115257507f8775e89363a51ba48aada8894a2b439b5661fbdb59f8c48bf080272e04e7a4d8600080a2005b8061117f57507f5f69fa7e73fc633eabbf61aa5ba9af951cb73bbb6c0c1378638af9323a998e52600080a2005b60021461118857005b7facbc44b7f46dc350c99fc0d9e5f61ed5c588cb4cdc6b69ea0deb0c5b28e5efc4600080a2005b55806007870155847f55d5258cbaf85df9ff05dc6686d48ac69a8348fb5a953140fa91f218d3af9cbe60408051858152846020820152a2818a6110e0565b5082600789015414156110db565b60405162461bcd60e51b815260206004820152602560248201527f4f6e6c79206f66666572206f776e65722063616e20757064617465207468652060448201526437b33332b960d91b6064820152608490fd5b50600254841115611061565b3461018e57600036600319011261018e576020600254604051908152f35b3461018e57600036600319011261018e576000806000806001936001600295600254965b878311156112c25750505060809450604051938452602084015260408301526060820152f35b90919461133461133a918760009997969952600361131f6113096112f360209a848c5289604060002001549061151d565b9b8b600052838b5287604060002001549061151d565b978a600052828a5282604060002001549061151d565b9789600052526004604060002001549061151d565b956114f8565b919061129c565b60005b8381106113545750506000910152565b8181015183820152602001611344565b9060209161137d81518092818552858086019101611341565b601f01601f1916010190565b600435906001600160a01b038216820361018e57565b610180810190811067ffffffffffffffff821117610b8557604052565b90601f8019910116810190811067ffffffffffffffff821117610b8557604052565b90600182811c9216801561140e575b60208310146113f857565b634e487b7160e01b600052602260045260246000fd5b91607f16916113ed565b9060405191826000825461142b816113de565b9081845260209460019160018116908160001461149b575060011461145c575b50505061145a925003836113bc565b565b600090815285812095935091905b81831061148357505061145a935082010138808061144b565b8554888401850152948501948794509183019161146a565b9250505061145a94925060ff191682840152151560051b82010138808061144b565b906003821015610b9b5752565b80548210156114e25760005260206000200190600090565b634e487b7160e01b600052603260045260246000fd5b60001981146115075760010190565b634e487b7160e01b600052601160045260246000fd5b9190820180921161150757565b1561153157565b60405162461bcd60e51b815260206004820152601460248201527313d999995c88191bd95cc81b9bdd08195e1a5cdd60621b6044820152606490fd5b1561157457565b60405162461bcd60e51b815260206004820152601a60248201527f496e76616c696420747261646520616d6f756e742072616e67650000000000006044820152606490fd5b906003811015610b9b5760ff80198354169116179055565b156115d857565b60405162461bcd60e51b815260206004820152602f60248201527f4f6e6c792074686520636f6e7472616374206f776e65722063616e207065726660448201526e37b936903a3434b99030b1ba34b7b760891b6064820152608490fd5b1561163c57565b60405162461bcd60e51b815260206004820152601260248201527110dbdb9d1c9858dd081a5cc81c185d5cd95960721b6044820152606490fdfea264697066735822122047894616c8597168d7b98dd25739d12e5dca47a3612fd79e569e91ddc029394f64736f6c63430008180033",
  "linkReferences": {},
  "deployedLinkReferences": {}
}