{
  "_format": "hh-sol-artifact-1",
  "contractName": "ContractRegistry",
  "sourceName": "contracts/ContractRegistry.sol",
  "abi": [
    {
      "inputs": [
        {
          "internalType": "address",
          "name": "_accountAddress",
          "type": "address"
        },
        {
          "internalType": "address",
          "name": "_offerAddress",
          "type": "address"
        },
        {
          "internalType": "address",
          "name": "_tradeAddress",
          "type": "address"
        },
        {
          "internalType": "address",
          "name": "_escrowAddress",
          "type": "address"
        },
        {
          "internalType": "address",
          "name": "_ratingAddress",
          "type": "address"
        },
        {
          "internalType": "address",
          "name": "_reputationAddress",
          "type": "address"
        },
        {
          "internalType": "address",
          "name": "_arbitrationAddress",
          "type": "address"
        }
      ],
      "stateMutability": "nonpayable",
      "type": "constructor"
    },
    {
      "anonymous": false,
      "inputs": [
        {
          "indexed": false,
          "internalType": "string",
          "name": "contractName",
          "type": "string"
        },
        {
          "indexed": false,
          "internalType": "address",
          "name": "newAddress",
          "type": "address"
        }
      ],
      "name": "ContractAddressUpdated",
      "type": "event"
    },
    {
      "inputs": [],
      "name": "accountAddress",
      "outputs": [
        {
          "internalType": "address",
          "name": "",
          "type": "address"
        }
      ],
      "stateMutability": "view",
      "type": "function"
    },
    {
      "inputs": [],
      "name": "arbitrationAddress",
      "outputs": [
        {
          "internalType": "address",
          "name": "",
          "type": "address"
        }
      ],
      "stateMutability": "view",
      "type": "function"
    },
    {
      "inputs": [],
      "name": "escrowAddress",
      "outputs": [
        {
          "internalType": "address",
          "name": "",
          "type": "address"
        }
      ],
      "stateMutability": "view",
      "type": "function"
    },
    {
      "inputs": [],
      "name": "offerAddress",
      "outputs": [
        {
          "internalType": "address",
          "name": "",
          "type": "address"
        }
      ],
      "stateMutability": "view",
      "type": "function"
    },
    {
      "inputs": [],
      "name": "owner",
      "outputs": [
        {
          "internalType": "address",
          "name": "",
          "type": "address"
        }
      ],
      "stateMutability": "view",
      "type": "function"
    },
    {
      "inputs": [],
      "name": "ratingAddress",
      "outputs": [
        {
          "internalType": "address",
          "name": "",
          "type": "address"
        }
      ],
      "stateMutability": "view",
      "type": "function"
    },
    {
      "inputs": [],
      "name": "reputationAddress",
      "outputs": [
        {
          "internalType": "address",
          "name": "",
          "type": "address"
        }
      ],
      "stateMutability": "view",
      "type": "function"
    },
    {
      "inputs": [],
      "name": "tradeAddress",
      "outputs": [
        {
          "internalType": "address",
          "name": "",
          "type": "address"
        }
      ],
      "stateMutability": "view",
      "type": "function"
    },
    {
      "inputs": [
        {
          "internalType": "address",
          "name": "_accountAddress",
          "type": "address"
        },
        {
          "internalType": "address",
          "name": "_offerAddress",
          "type": "address"
        },
        {
          "internalType": "address",
          "name": "_tradeAddress",
          "type": "address"
        },
        {
          "internalType": "address",
          "name": "_escrowAddress",
          "type": "address"
        },
        {
          "internalType": "address",
          "name": "_ratingAddress",
          "type": "address"
        },
        {
          "internalType": "address",
          "name": "_reputationAddress",
          "type": "address"
        },
        {
          "internalType": "address",
          "name": "_arbitrationAddress",
          "type": "address"
        }
      ],
      "name": "updateAddresses",
      "outputs": [],
      "stateMutability": "nonpayable",
      "type": "function"
    }
  ],
  "bytecode": "0x60803461010c57601f6105dd38819003918201601f19168301916001600160401b038311848410176101115780849260e09460405283398101031261010c5761004781610127565b9061005460208201610127565b61006060408301610127565b61006c60608401610127565b9261007960808201610127565b9261009260c061008b60a08501610127565b9301610127565b9360018060a01b0319963388600754161760075560018060a01b0396878096818096818096168d6000541617600055168b600154161760015516896002541617600255168760035416176003551685600454161760045516836005541617600555169060065416176006556040516104a1908161013c8239f35b600080fd5b634e487b7160e01b600052604160045260246000fd5b51906001600160a01b038216820361010c5756fe6080806040526004908136101561001557600080fd5b600091823560e01c9182630d5defa414610446575081631e9b13121461041f5781633ea42de3146103f657816349daca7a146103cd57816370505653146103a45781637b318154146103785781638c200c4f146100db575080638da5cb5b146100b25763e8c28ce31461008757600080fd5b346100af57806003193601126100af576005546040516001600160a01b039091168152602090f35b80fd5b50346100af57806003193601126100af576007546040516001600160a01b039091168152602090f35b82346100af5760e03660031901126100af5781356001600160a01b0381811693918490036103745760243593818516809503610370576044359482861680960361036c5760643583811680910361036857608435918483168093036103645760a435938585168095036103605760c43596868816880361035c578660075416330361030057847fa42de6429c1410f4470a8ff5afeeae27c734519ac1693e8eb58798a81715c94760808682828e9f829f829f9e9d9a8f908f869f869f9d8f95899f93899f968b988b9889968b986bffffffffffffffffffffffff60a01b9688888254161790558a8760015416176001558d8760025416176002558660035416176003558582541617905583600554161760055516906006541617600655604051906040825260076040830152661058d8dbdd5b9d60ca1b60608301526020820152a16040519060408252600560408301526427b33332b960d91b60608301526020820152a160405190604082526005604083015264547261646560d81b60608301526020820152a160405190604082526006604083015265457363726f7760d01b60608301526020820152a160405190604082526006604083015265526174696e6760d01b60608301526020820152a16040519060408252600a6040830152692932b83aba30ba34b7b760b11b60608301526020820152a16040519160408352600b60408401526a20b93134ba3930ba34b7b760a91b6060840152166020820152a180f35b60849060206040519162461bcd60e51b8352820152602f60248201527f4f6e6c792074686520636f6e7472616374206f776e65722063616e207065726660448201526e37b936903a3434b99030b1ba34b7b760891b6064820152fd5b8880fd5b8780fd5b8680fd5b8580fd5b8480fd5b8380fd5b8280fd5b9050346103a057816003193601126103a057546040516001600160a01b039091168152602090f35b5080fd5b82346100af57806003193601126100af576006546040516001600160a01b039091168152602090f35b82346100af57806003193601126100af576002546040516001600160a01b039091168152602090f35b82346100af57806003193601126100af576001546040516001600160a01b039091168152602090f35b82346100af57806003193601126100af57546040516001600160a01b039091168152602090f35b8390346103a057816003193601126103a0576003546001600160a01b03168152602090f3fea2646970667358221220df908f8646202edf6dba17128068fccac8451067d6d9cbba0c81aa98a11fda0164736f6c63430008180033",
  "linkReferences": {},
  "deployedLinkReferences": {}
}