{
  "_format": "hh-sol-artifact-1",
  "contractName": "ContractRegistry",
  "sourceName": "contracts/ContractRegistry.sol",
  "abi": [
    {
      "inputs": [
        {
          "internalType": "address",
          "name": "_accountAddress",
          "type": "address"
        },
        {
          "internalType": "address",
          "name": "_offerAddress",
          "type": "address"
        },
        {
          "internalType": "address",
          "name": "_tradeAddress",
          "type": "address"
        },
        {
          "internalType": "address",
          "name": "_escrowAddress",
          "type": "address"
        },
        {
          "internalType": "address",
          "name": "_ratingAddress",
          "type": "address"
        },
        {
          "internalType": "address",
          "name": "_reputationAddress",
          "type": "address"
        },
        {
          "internalType": "address",
          "name": "_arbitrationAddress",
          "type": "address"
        }
      ],
      "stateMutability": "nonpayable",
      "type": "constructor"
    },
    {
      "anonymous": false,
      "inputs": [
        {
          "indexed": false,
          "internalType": "string",
          "name": "contractName",
          "type": "string"
        },
        {
          "indexed": false,
          "internalType": "address",
          "name": "newAddress",
          "type": "address"
        }
      ],
      "name": "ContractAddressUpdated",
      "type": "event"
    },
    {
      "inputs": [],
      "name": "accountAddress",
      "outputs": [
        {
          "internalType": "address",
          "name": "",
          "type": "address"
        }
      ],
      "stateMutability": "view",
      "type": "function"
    },
    {
      "inputs": [],
      "name": "arbitrationAddress",
      "outputs": [
        {
          "internalType": "address",
          "name": "",
          "type": "address"
        }
      ],
      "stateMutability": "view",
      "type": "function"
    },
    {
      "inputs": [],
      "name": "escrowAddress",
      "outputs": [
        {
          "internalType": "address",
          "name": "",
          "type": "address"
        }
      ],
      "stateMutability": "view",
      "type": "function"
    },
    {
      "inputs": [],
      "name": "offerAddress",
      "outputs": [
        {
          "internalType": "address",
          "name": "",
          "type": "address"
        }
      ],
      "stateMutability": "view",
      "type": "function"
    },
    {
      "inputs": [],
      "name": "owner",
      "outputs": [
        {
          "internalType": "address",
          "name": "",
          "type": "address"
        }
      ],
      "stateMutability": "view",
      "type": "function"
    },
    {
      "inputs": [],
      "name": "ratingAddress",
      "outputs": [
        {
          "internalType": "address",
          "name": "",
          "type": "address"
        }
      ],
      "stateMutability": "view",
      "type": "function"
    },
    {
      "inputs": [],
      "name": "reputationAddress",
      "outputs": [
        {
          "internalType": "address",
          "name": "",
          "type": "address"
        }
      ],
      "stateMutability": "view",
      "type": "function"
    },
    {
      "inputs": [],
      "name": "tradeAddress",
      "outputs": [
        {
          "internalType": "address",
          "name": "",
          "type": "address"
        }
      ],
      "stateMutability": "view",
      "type": "function"
    },
    {
      "inputs": [
        {
          "internalType": "address",
          "name": "_accountAddress",
          "type": "address"
        },
        {
          "internalType": "address",
          "name": "_offerAddress",
          "type": "address"
        },
        {
          "internalType": "address",
          "name": "_tradeAddress",
          "type": "address"
        },
        {
          "internalType": "address",
          "name": "_escrowAddress",
          "type": "address"
        },
        {
          "internalType": "address",
          "name": "_ratingAddress",
          "type": "address"
        },
        {
          "internalType": "address",
          "name": "_reputationAddress",
          "type": "address"
        },
        {
          "internalType": "address",
          "name": "_arbitrationAddress",
          "type": "address"
        }
      ],
      "name": "updateAddresses",
      "outputs": [],
      "stateMutability": "nonpayable",
      "type": "function"
    },
    {
      "inputs": [
        {
          "internalType": "address",
          "name": "_offerAddress",
          "type": "address"
        }
      ],
      "name": "updateOfferAddress",
      "outputs": [],
      "stateMutability": "nonpayable",
      "type": "function"
    }
  ],
  "bytecode": "0x60803461010c57601f61069138819003918201601f19168301916001600160401b038311848410176101115780849260e09460405283398101031261010c5761004781610127565b9061005460208201610127565b61006060408301610127565b61006c60608401610127565b9261007960808201610127565b9261009260c061008b60a08501610127565b9301610127565b9360018060a01b0319963388600754161760075560018060a01b0396878096818096818096168d6000541617600055168b60015416176001551689600254161760025516876003541617600355168560045416176004551683600554161760055516906006541617600655604051610555908161013c8239f35b600080fd5b634e487b7160e01b600052604160045260246000fd5b51906001600160a01b038216820361010c5756fe608080604052600436101561001357600080fd5b600090813560e01c9081630d5defa41461047b575080631e9b1312146104545780633ea42de31461042b57806349daca7a1461040257806370505653146103d95780637b318154146103b05780638c200c4f146101765780638da5cb5b1461014d5780639b272e75146100ba5763e8c28ce31461008f57600080fd5b346100b757806003193601126100b7576005546040516001600160a01b039091168152602090f35b80fd5b50346100b75760203660031901126100b7576100d46104a0565b6007546001600160a01b0391906100ee90831633146104bb565b168015610110576bffffffffffffffffffffffff60a01b600154161760015580f35b60405162461bcd60e51b8152602060048201526015602482015274496e76616c6964204f66666572206164647265737360581b6044820152606490fd5b50346100b757806003193601126100b7576007546040516001600160a01b039091168152602090f35b50346100b75760e03660031901126100b7576101906104a0565b6001600160a01b03602435818116908190036103ac57604435918083168093036103a857606435938185168095036103a457608435948286168096036103a05760a43583811680910361039c578760c43595858716870361039857887fa42de6429c1410f4470a8ff5afeeae27c734519ac1693e8eb58798a81715c9476080868282809d829f828f998f869f839f8f9e899f93869f8b98958996838a9761023c826007541633146104bb565b16956bffffffffffffffffffffffff60a01b958787825416179055898660015416176001558c86600254161760025585600354161760035584600454161760045583600554161760055516906006541617600655604051906040825260076040830152661058d8dbdd5b9d60ca1b60608301526020820152a16040519060408252600560408301526427b33332b960d91b60608301526020820152a160405190604082526005604083015264547261646560d81b60608301526020820152a160405190604082526006604083015265457363726f7760d01b60608301526020820152a160405190604082526006604083015265526174696e6760d01b60608301526020820152a16040519060408252600a6040830152692932b83aba30ba34b7b760b11b60608301526020820152a16040519160408352600b60408401526a20b93134ba3930ba34b7b760a91b6060840152166020820152a180f35b5080fd5b8780fd5b8680fd5b8580fd5b8480fd5b8380fd5b50346100b757806003193601126100b7576004546040516001600160a01b039091168152602090f35b50346100b757806003193601126100b7576006546040516001600160a01b039091168152602090f35b50346100b757806003193601126100b7576002546040516001600160a01b039091168152602090f35b50346100b757806003193601126100b7576001546040516001600160a01b039091168152602090f35b50346100b757806003193601126100b757546040516001600160a01b039091168152602090f35b9050346103985781600319360112610398576003546001600160a01b03168152602090f35b600435906001600160a01b03821682036104b657565b600080fd5b156104c257565b60405162461bcd60e51b815260206004820152602f60248201527f4f6e6c792074686520636f6e7472616374206f776e65722063616e207065726660448201526e37b936903a3434b99030b1ba34b7b760891b6064820152608490fdfea26469706673582212206b1f822136fbd6d4eb4bb1ad80ceab8682b606d56f2c9e6d6bf25221fa147b5464736f6c63430008180033",
  "linkReferences": {},
  "deployedLinkReferences": {}
}