{
  "_format": "hh-sol-artifact-1",
  "contractName": "Trade",
  "sourceName": "contracts/Trade.sol",
  "abi": [
    {
      "inputs": [
        {
          "internalType": "address",
          "name": "_registryAddress",
          "type": "address"
        }
      ],
      "stateMutability": "nonpayable",
      "type": "constructor"
    },
    {
      "inputs": [],
      "name": "InvalidInitialization",
      "type": "error"
    },
    {
      "inputs": [],
      "name": "NotInitializing",
      "type": "error"
    },
    {
      "inputs": [],
      "name": "ReentrancyGuardReentrantCall",
      "type": "error"
    },
    {
      "anonymous": false,
      "inputs": [
        {
          "indexed": true,
          "internalType": "address",
          "name": "admin",
          "type": "address"
        },
        {
          "indexed": false,
          "internalType": "bool",
          "name": "isAdmin",
          "type": "bool"
        }
      ],
      "name": "AdminSet",
      "type": "event"
    },
    {
      "anonymous": false,
      "inputs": [
        {
          "indexed": true,
          "internalType": "uint256",
          "name": "tradeId",
          "type": "uint256"
        },
        {
          "indexed": false,
          "internalType": "uint256",
          "name": "amount",
          "type": "uint256"
        }
      ],
      "name": "CryptoLockedInEscrow",
      "type": "event"
    },
    {
      "anonymous": false,
      "inputs": [
        {
          "indexed": true,
          "internalType": "uint256",
          "name": "tradeId",
          "type": "uint256"
        }
      ],
      "name": "FiatMarkedAsPaid",
      "type": "event"
    },
    {
      "anonymous": false,
      "inputs": [
        {
          "indexed": false,
          "internalType": "uint64",
          "name": "version",
          "type": "uint64"
        }
      ],
      "name": "Initialized",
      "type": "event"
    },
    {
      "anonymous": false,
      "inputs": [
        {
          "indexed": true,
          "internalType": "uint256",
          "name": "tradeId",
          "type": "uint256"
        }
      ],
      "name": "TradeAccepted",
      "type": "event"
    },
    {
      "anonymous": false,
      "inputs": [
        {
          "indexed": true,
          "internalType": "uint256",
          "name": "tradeId",
          "type": "uint256"
        },
        {
          "indexed": false,
          "internalType": "string",
          "name": "reason",
          "type": "string"
        }
      ],
      "name": "TradeCancelled",
      "type": "event"
    },
    {
      "anonymous": false,
      "inputs": [
        {
          "indexed": true,
          "internalType": "uint256",
          "name": "tradeId",
          "type": "uint256"
        }
      ],
      "name": "TradeDisputed",
      "type": "event"
    },
    {
      "anonymous": false,
      "inputs": [
        {
          "indexed": true,
          "internalType": "uint256",
          "name": "tradeId",
          "type": "uint256"
        },
        {
          "indexed": false,
          "internalType": "uint256",
          "name": "timestamp",
          "type": "uint256"
        }
      ],
      "name": "TradeFinalized",
      "type": "event"
    },
    {
      "anonymous": false,
      "inputs": [
        {
          "indexed": true,
          "internalType": "uint256",
          "name": "tradeId",
          "type": "uint256"
        },
        {
          "indexed": true,
          "internalType": "uint256",
          "name": "offerId",
          "type": "uint256"
        },
        {
          "indexed": true,
          "internalType": "address",
          "name": "taker",
          "type": "address"
        }
      ],
      "name": "TradeInitiated",
      "type": "event"
    },
    {
      "anonymous": false,
      "inputs": [
        {
          "indexed": true,
          "internalType": "uint256",
          "name": "tradeId",
          "type": "uint256"
        },
        {
          "indexed": false,
          "internalType": "uint256",
          "name": "rating",
          "type": "uint256"
        },
        {
          "indexed": false,
          "internalType": "string",
          "name": "feedback",
          "type": "string"
        }
      ],
      "name": "TradeRated",
      "type": "event"
    },
    {
      "anonymous": false,
      "inputs": [
        {
          "indexed": false,
          "internalType": "uint256[]",
          "name": "tradeIds",
          "type": "uint256[]"
        }
      ],
      "name": "TradeSequenceCreated",
      "type": "event"
    },
    {
      "anonymous": false,
      "inputs": [
        {
          "indexed": true,
          "internalType": "uint256",
          "name": "tradeId",
          "type": "uint256"
        }
      ],
      "name": "TradeTimedOut",
      "type": "event"
    },
    {
      "inputs": [
        {
          "internalType": "uint256",
          "name": "_tradeId",
          "type": "uint256"
        }
      ],
      "name": "acceptTrade",
      "outputs": [],
      "stateMutability": "nonpayable",
      "type": "function"
    },
    {
      "inputs": [
        {
          "internalType": "address",
          "name": "",
          "type": "address"
        }
      ],
      "name": "admins",
      "outputs": [
        {
          "internalType": "bool",
          "name": "",
          "type": "bool"
        }
      ],
      "stateMutability": "view",
      "type": "function"
    },
    {
      "inputs": [
        {
          "internalType": "uint256",
          "name": "_tradeId",
          "type": "uint256"
        }
      ],
      "name": "cancelTrade",
      "outputs": [],
      "stateMutability": "nonpayable",
      "type": "function"
    },
    {
      "inputs": [
        {
          "internalType": "uint256",
          "name": "_tradeId",
          "type": "uint256"
        }
      ],
      "name": "disputeTrade",
      "outputs": [],
      "stateMutability": "nonpayable",
      "type": "function"
    },
    {
      "inputs": [
        {
          "internalType": "uint256",
          "name": "_tradeId",
          "type": "uint256"
        }
      ],
      "name": "finalizeTrade",
      "outputs": [],
      "stateMutability": "nonpayable",
      "type": "function"
    },
    {
      "inputs": [
        {
          "internalType": "uint256",
          "name": "_tradeId",
          "type": "uint256"
        }
      ],
      "name": "getNextTradeInSequence",
      "outputs": [
        {
          "internalType": "uint256",
          "name": "",
          "type": "uint256"
        }
      ],
      "stateMutability": "view",
      "type": "function"
    },
    {
      "inputs": [
        {
          "internalType": "uint256",
          "name": "_tradeId",
          "type": "uint256"
        }
      ],
      "name": "getPreviousTradeInSequence",
      "outputs": [
        {
          "internalType": "uint256",
          "name": "",
          "type": "uint256"
        }
      ],
      "stateMutability": "view",
      "type": "function"
    },
    {
      "inputs": [],
      "name": "getTradeCounts",
      "outputs": [
        {
          "internalType": "uint256",
          "name": "",
          "type": "uint256"
        },
        {
          "internalType": "uint256",
          "name": "",
          "type": "uint256"
        },
        {
          "internalType": "uint256",
          "name": "",
          "type": "uint256"
        },
        {
          "internalType": "uint256",
          "name": "",
          "type": "uint256"
        },
        {
          "internalType": "uint256",
          "name": "",
          "type": "uint256"
        },
        {
          "internalType": "uint256",
          "name": "",
          "type": "uint256"
        }
      ],
      "stateMutability": "view",
      "type": "function"
    },
    {
      "inputs": [
        {
          "internalType": "uint256",
          "name": "_tradeId",
          "type": "uint256"
        }
      ],
      "name": "getTradeDetails",
      "outputs": [
        {
          "internalType": "uint256",
          "name": "",
          "type": "uint256"
        },
        {
          "internalType": "address",
          "name": "",
          "type": "address"
        },
        {
          "internalType": "uint256",
          "name": "",
          "type": "uint256"
        },
        {
          "internalType": "uint256",
          "name": "",
          "type": "uint256"
        },
        {
          "internalType": "string",
          "name": "",
          "type": "string"
        },
        {
          "internalType": "string",
          "name": "",
          "type": "string"
        },
        {
          "internalType": "uint256",
          "name": "",
          "type": "uint256"
        },
        {
          "internalType": "string",
          "name": "",
          "type": "string"
        },
        {
          "internalType": "enum Trade.TradeStatus",
          "name": "",
          "type": "uint8"
        },
        {
          "internalType": "uint256",
          "name": "",
          "type": "uint256"
        },
        {
          "internalType": "uint256",
          "name": "",
          "type": "uint256"
        },
        {
          "internalType": "uint256",
          "name": "",
          "type": "uint256"
        }
      ],
      "stateMutability": "view",
      "type": "function"
    },
    {
      "inputs": [
        {
          "internalType": "uint256",
          "name": "_tradeId",
          "type": "uint256"
        }
      ],
      "name": "getTradeMaker",
      "outputs": [
        {
          "internalType": "address",
          "name": "",
          "type": "address"
        }
      ],
      "stateMutability": "view",
      "type": "function"
    },
    {
      "inputs": [
        {
          "internalType": "uint256[]",
          "name": "_offerIds",
          "type": "uint256[]"
        },
        {
          "internalType": "uint256",
          "name": "_tradeAmountFiat",
          "type": "uint256"
        },
        {
          "internalType": "uint256",
          "name": "_tradeAmountCrypto",
          "type": "uint256"
        },
        {
          "internalType": "string",
          "name": "_tradeFiatCurrency",
          "type": "string"
        },
        {
          "internalType": "string",
          "name": "_tradeCryptoCurrency",
          "type": "string"
        },
        {
          "internalType": "uint256",
          "name": "_blocksTillTimeout",
          "type": "uint256"
        },
        {
          "internalType": "string",
          "name": "_tradeCancelationReason",
          "type": "string"
        }
      ],
      "name": "initiateTrade",
      "outputs": [],
      "stateMutability": "nonpayable",
      "type": "function"
    },
    {
      "inputs": [
        {
          "internalType": "uint256",
          "name": "_tradeId",
          "type": "uint256"
        }
      ],
      "name": "lockCryptoInEscrow",
      "outputs": [],
      "stateMutability": "nonpayable",
      "type": "function"
    },
    {
      "inputs": [],
      "name": "owner",
      "outputs": [
        {
          "internalType": "address",
          "name": "",
          "type": "address"
        }
      ],
      "stateMutability": "view",
      "type": "function"
    },
    {
      "inputs": [
        {
          "internalType": "uint256",
          "name": "_tradeId",
          "type": "uint256"
        },
        {
          "internalType": "uint256",
          "name": "_rating",
          "type": "uint256"
        },
        {
          "internalType": "string",
          "name": "_feedback",
          "type": "string"
        }
      ],
      "name": "rateTrade",
      "outputs": [],
      "stateMutability": "nonpayable",
      "type": "function"
    },
    {
      "inputs": [
        {
          "internalType": "uint256",
          "name": "_tradeId",
          "type": "uint256"
        }
      ],
      "name": "refundTrade",
      "outputs": [],
      "stateMutability": "nonpayable",
      "type": "function"
    },
    {
      "inputs": [],
      "name": "registry",
      "outputs": [
        {
          "internalType": "contract ContractRegistry",
          "name": "",
          "type": "address"
        }
      ],
      "stateMutability": "view",
      "type": "function"
    },
    {
      "inputs": [
        {
          "internalType": "address",
          "name": "_admin",
          "type": "address"
        },
        {
          "internalType": "bool",
          "name": "_isAdmin",
          "type": "bool"
        }
      ],
      "name": "setAdmin",
      "outputs": [],
      "stateMutability": "nonpayable",
      "type": "function"
    },
    {
      "inputs": [
        {
          "internalType": "address[]",
          "name": "_admins",
          "type": "address[]"
        }
      ],
      "name": "setInitialAdmins",
      "outputs": [],
      "stateMutability": "nonpayable",
      "type": "function"
    },
    {
      "inputs": [
        {
          "internalType": "uint256",
          "name": "_tradeId",
          "type": "uint256"
        }
      ],
      "name": "timeoutTrade",
      "outputs": [],
      "stateMutability": "nonpayable",
      "type": "function"
    },
    {
      "inputs": [],
      "name": "tradeCount",
      "outputs": [
        {
          "internalType": "uint256",
          "name": "",
          "type": "uint256"
        }
      ],
      "stateMutability": "view",
      "type": "function"
    },
    {
      "inputs": [
        {
          "internalType": "uint256",
          "name": "_tradeId",
          "type": "uint256"
        }
      ],
      "name": "tradeMarkFiatPaid",
      "outputs": [],
      "stateMutability": "nonpayable",
      "type": "function"
    },
    {
      "inputs": [
        {
          "internalType": "uint256",
          "name": "",
          "type": "uint256"
        },
        {
          "internalType": "address",
          "name": "",
          "type": "address"
        }
      ],
      "name": "tradeRatings",
      "outputs": [
        {
          "internalType": "bool",
          "name": "",
          "type": "bool"
        }
      ],
      "stateMutability": "view",
      "type": "function"
    },
    {
      "inputs": [
        {
          "internalType": "uint256",
          "name": "",
          "type": "uint256"
        },
        {
          "internalType": "uint256",
          "name": "",
          "type": "uint256"
        }
      ],
      "name": "tradeSequence",
      "outputs": [
        {
          "internalType": "uint256",
          "name": "",
          "type": "uint256"
        }
      ],
      "stateMutability": "view",
      "type": "function"
    },
    {
      "inputs": [
        {
          "internalType": "uint256",
          "name": "",
          "type": "uint256"
        }
      ],
      "name": "trades",
      "outputs": [
        {
          "internalType": "uint256",
          "name": "offerId",
          "type": "uint256"
        },
        {
          "internalType": "address",
          "name": "taker",
          "type": "address"
        },
        {
          "internalType": "uint256",
          "name": "tradeAmountFiat",
          "type": "uint256"
        },
        {
          "internalType": "uint256",
          "name": "tradeAmountCrypto",
          "type": "uint256"
        },
        {
          "internalType": "string",
          "name": "tradeFiatCurrency",
          "type": "string"
        },
        {
          "internalType": "string",
          "name": "tradeCryptoCurrency",
          "type": "string"
        },
        {
          "internalType": "uint256",
          "name": "blocksTillTimeout",
          "type": "uint256"
        },
        {
          "internalType": "string",
          "name": "tradeCancelationReason",
          "type": "string"
        },
        {
          "internalType": "enum Trade.TradeStatus",
          "name": "tradeStatus",
          "type": "uint8"
        },
        {
          "internalType": "uint256",
          "name": "tradeInitiatedTime",
          "type": "uint256"
        },
        {
          "internalType": "uint256",
          "name": "tradeFinalizedTime",
          "type": "uint256"
        },
        {
          "internalType": "uint256",
          "name": "tradeFee",
          "type": "uint256"
        }
      ],
      "stateMutability": "view",
      "type": "function"
    },
    {
      "inputs": [
        {
          "internalType": "uint256",
          "name": "_tradeId",
          "type": "uint256"
        },
        {
          "internalType": "enum Trade.TradeStatus",
          "name": "_newStatus",
          "type": "uint8"
        }
      ],
      "name": "updateTradeStatusFromArbitration",
      "outputs": [],
      "stateMutability": "nonpayable",
      "type": "function"
    },
    {
      "inputs": [
        {
          "internalType": "enum Trade.TradeStatus",
          "name": "",
          "type": "uint8"
        },
        {
          "internalType": "enum Trade.TradeStatus",
          "name": "",
          "type": "uint8"
        }
      ],
      "name": "validTransitions",
      "outputs": [
        {
          "internalType": "bool",
          "name": "",
          "type": "bool"
        }
      ],
      "stateMutability": "view",
      "type": "function"
    }
  ],
  "bytecode": "0x608034620001a657601f62003cff38819003918201601f1916830192916001600160401b03841183851017620001ab5780839260409586528339602092839181010312620001a657516001600160a01b03811690819003620001a6578260018060a01b03199160009083825416178155600192339084541617835580805260049384815282822084835281528282209460ff199585878254161790558280528082528383208184528252838320858782541617905584835280825283832060028452825283832085878254161790558483528082528383206005845282528383208587825416179055808252838320600384528252838320858782541617905560058352808252838320818452825283832085878254161790558280528082528383206006845282528383208587825416179055848352808252838320600684528252838320858782541617905584835280825283832081845282528383208587825416179055600283528082528383206003845282528383208587825416179055600283528152828220906005835252209182541617905551613b3d9081620001c28239f35b600080fd5b634e487b7160e01b600052604160045260246000fdfe6080604052600436101561001257600080fd5b60003560e01c806309ec6cc714612fbc57806312ea634c14612f9e5780631e6c598e14612f0f57806340ebdad6146127fb578063419f778a146124c8578063429b62e514612489578063491719e5146121c35780634b0bddd2146120e55780635046fddd146120935780635395db6814611ef25780635741f73414611ecc578063695730a514611d8f5780637b10399914611d665780637f002e8114611d1f57806388a2976e14611be85780638a2829e7146117d15780638ba9f7081461143b5780638da5cb5b1461141257806392479507146111e3578063a5350ea614611198578063b4195c4714610fa7578063bd55022a14610f89578063d58c71a51461098a578063d684d5b1146106ec578063ded0bfbf146105b35763ecb9fec31461013a57600080fd5b34610362576020806003193601126103625760043590811515806105a7575b61016290613685565b8160005260039081815260ff6008604060002001541660088110156105915761054e57600054604051633ea42de360e01b81526001600160a01b039182168382600481845afa8015610356578392600091610516575b5086600052858552600060408120546040519283916327db25f160e11b83526004830152816024978892165afa908115610356576000916104e2575b50823391160361049057856000526007845260406000208054159081159182610463575b50501561039c57506004838260005416604051928380926303577be960e21b82525afa90811561035657600091610367575b5016846000528383528360406000200154813b156103625760009160448392604051948593849263342865ab60e11b84528b6004850152888401525af1801561035657610347575b505b836000528282526102af60ff60086040600020015416613654565b6001600052825260ff6040600020541615610304575082600052526008604060002001600160ff198254161790557f102f3ccc8e36f2a6afb43e960eb0c3a01b90374f18f8370f68b83639924b4433600080a2005b90601f6064926040519262461bcd60e51b845260048401528201527f496e76616c696420747261646520737461747573207472616e736974696f6e006044820152fd5b610350906133ea565b38610292565b6040513d6000823e3d90fd5b600080fd5b90508381813d8311610395575b61037e8183613419565b810103126103625761038f90613713565b3861024a565b503d610374565b906004846103a9886138d0565b93604051928380926303577be960e21b82525afa9081156103565760009161042e575b501690856000528484528460406000200154823b1561036257606460009283604051958694859363be81abd560e01b855260048501528b8985015260448401525af180156103565761041f575b50610294565b610428906133ea565b38610419565b90508481813d831161045c575b6104458183613419565b810103126103625761045690613713565b386103cc565b503d61043b565b90915061047b57600052858460002054143880610218565b83634e487b7160e01b60005260326004526000fd5b60405162461bcd60e51b8152600481018590526025818501527f4f6e6c79206f66666572206f776e65722063616e206163636570742074686520604482015264747261646560d81b6064820152608490fd5b6104ff91503d806000833e6104f78183613419565b810190613779565b5050505050505050505050505050505050386101f4565b809350858092503d8311610547575b61052f8183613419565b81010312610362576105418392613713565b386101b8565b503d610525565b6064906040519062461bcd60e51b825280600483015260248201527f5472616465206973206e6f7420696e20696e69746961746564207374617475736044820152fd5b634e487b7160e01b600052602160045260246000fd5b50600254821115610159565b346103625760003660031901126103625760008060008060009060009260019560016002545b8082111561060857505060c09650604051958652602086015260408501526060840152608083015260a0820152f35b90968760005260038060205260089060ff82604060002001541691821015610591578161064957505061063d6106439161397a565b9761397a565b906105d9565b91989391818b036106685750506106626106439161397a565b9261397a565b939491938103610685575061067f6106439161397a565b9361397a565b93949093600481036106a4575061069e6106439161397a565b9461397a565b94959094600581036106c357506106bd6106439161397a565b9561397a565b9095906006146106d7575b6106439061397a565b956106e46106439161397a565b9690506106ce565b346103625760208060031936011261036257600435908115158061097e575b61071490613685565b81600052600380825260ff9160089280846040600020015416848110156105915715801561095c575b801561093a575b156108e557846000528282528084604060002001541684811015610591576006146108a25784600052828252604060002060066009820154910154810180911161088c57421061083b57846000528282526107a781856040600020015416613654565b6006600052825260406000205416156107f7578360005252604060002001600660ff198254161790557fb5572d3c012c3c87cb7f7dea790839327df3e6ecdb3bbd1b1ab2ee4b18ace512600080a2005b6064906040519062461bcd60e51b82526004820152601f60248201527f496e76616c696420747261646520737461747573207472616e736974696f6e006044820152fd5b60405162461bcd60e51b815260048101839052602360248201527f54726164652074696d656f757420706572696f6420686173206e6f74207061736044820152621cd95960ea1b6064820152608490fd5b634e487b7160e01b600052601160045260246000fd5b6064826040519062461bcd60e51b825280600483015260248201527f54726164652068617320616c7265616479206265656e2074696d6564206f75746044820152fd5b60405162461bcd60e51b815260048101839052602760248201527f54726164652063616e6e6f742062652074696d6564206f7574206174207468696044820152667320737461676560c81b6064820152608490fd5b5084600052828252808460406000200154168481101561059157600214610744565b508460005282825280846040600020015416848110156105915760011461073d565b5060025482111561070b565b346103625760208060031936011261036257600435906109a8613ab7565b81151580610f7d575b6109ba90613685565b81600052600380825260ff906008918083604060002001541683811015610591576002148015610f44575b15610ed957846000528184528083604060002001541683811015610591576004141580610eb6575b15610e4b578460005281845280836040600020015416838110156105915782610a379114156136c8565b600054604051633ea42de360e01b81526001600160a01b03918216908681600481855afa8015610356578391600091610e11575b506000908982528689526024604083205460405194859384926327db25f160e11b84526004840152165afa90811561035657600091610de5575b50821633148015610dcf575b15610d71578660005260078652604060002080548015159182610d4a575b505015610c7357506004858260005416604051928380926303577be960e21b82525afa8015610356578291600091610c3b575b501690866000528386526001604060002001541690803b156103625760405163de9d858760e01b8152600481018890526001600160a01b039290921660248301526000908290604490829084905af1801561035657610c2c575b505b84600052818452610b7781846040600020015416613654565b8260005284526040600020541615610be757907f143dba104ddac4c22c157c51909343d71e5765527a32b0d1647c14b39f41eaf392918460005280835260406000209182019060ff19825416179055600a42910155604051428152a26001600080516020613ae883398151915255005b60405162461bcd60e51b815260048101849052601f60248201527f496e76616c696420747261646520737461747573207472616e736974696f6e006044820152606490fd5b610c35906133ea565b85610b5c565b809250878092503d8311610c6c575b610c548183613419565b8101031261036257610c668291613713565b88610b02565b503d610c4a565b90600486610c8089613a10565b93604051928380926303577be960e21b82525afa8015610356578291600091610d12575b5016916000528386526001604060002001541690803b156103625760405163de9d858760e01b8152600481018890526001600160a01b039290921660248301526000908290604490829084905af1801561035657610d03575b50610b5e565b610d0c906133ea565b85610cfd565b809250888092503d8311610d43575b610d2b8183613419565b8101031261036257610d3d8291613713565b89610ca4565b503d610d21565b6000198201925090821161088c578891610d639161363c565b905490861b1c148880610acf565b60405162461bcd60e51b815260048101879052603060248201527f4f6e6c79206f66666572206f776e6572206f722061646d696e2063616e20666960448201526f6e616c697a652074686520747261646560801b6064820152608490fd5b5033600052600586528260406000205416610ab1565b610dfa91503d806000833e6104f78183613419565b505050505050505050505050505050505088610aa5565b809250888092503d8311610e44575b610e2a8183613419565b81010312610362576000610e3e8492613713565b90610a6b565b503d610e20565b60405162461bcd60e51b815260048101859052603960248201527f54726164652063616e6e6f742062652066696e616c697a65642069662069742060448201527f69732063616e63656c6c6564206f722074696d6564206f7574000000000000006064820152608490fd5b508460005281845280836040600020015416838110156105915760061415610a0d565b60405162461bcd60e51b815260048101859052603d60248201527f5472616465206973206e6f7420696e20612066696e616c697a61626c6520737460448201527f617465206f722063616c6c6572206973206e6f7420616e2061646d696e0000006064820152608490fd5b508460005281845280836040600020015416838110156105915760051480156109e55750336000526005845280604060002054166109e5565b506002548211156109b1565b34610362576000366003190112610362576020600254604051908152f35b3461036257602080600319360112610362576004358015158061118c575b610fce90613685565b610fd6613ab7565b8060005260038252600860ff8160406000200154168181101561059157600414918215611166575b821561113f575b5050156110ec576000546040516303577be960e21b81526001600160a01b039183908290600490829086165afa908115610356576000916110b7575b5016330361105d576001600080516020613ae883398151915255005b6084906040519062461bcd60e51b82526004820152602d60248201527f4f6e6c7920457363726f7720636f6e74726163742063616e2063616c6c20726560448201526c333ab73210333ab731ba34b7b760991b6064820152fd5b90508281813d83116110e5575b6110ce8183613419565b81010312610362576110df90613713565b83611041565b503d6110c4565b6084906040519062461bcd60e51b82526004820152602660248201527f54726164652063616e6e6f7420626520726566756e646564206174207468697360448201526520737461676560d01b6064820152fd5b9091506000526003825260ff81604060002001541690811015610591576005148280611005565b8092506000526003835260ff816040600020015416818110156105915760061491610ffe565b50600254811115610fc5565b34610362576040366003190112610362576004356008811015610362576024356008811015610362576111d760ff916111d2602094613654565b61366d565b54166040519015158152f35b3461036257602080600319360112610362576004356001600160401b038111610362573660238201121561036257806004013591611220836135ad565b9161122e6040519384613419565b838352818301602460059560051b8301019136831161036257602401905b8282106113f35750505060018060a01b0360019281845416803303611396576000526005835260ff60406000205416611345578394846000905b6112d6575b505050807fe68d2c359a771606c400cf8b87000cf5864010363d6a736e98f5047b7bbe18e99354166000526005825260406000208460ff1982541617905583541692604051908152a2005b82518110156113405780846112ec889386613966565b511660005282865260406000208260ff198254161790558461130e8286613966565b51167fe68d2c359a771606c400cf8b87000cf5864010363d6a736e98f5047b7bbe18e987604051858152a20185611286565b61128b565b60405162461bcd60e51b815260048101849052602360248201527f496e697469616c2061646d696e732063616e206f6e6c7920626520736574206f6044820152626e636560e81b6064820152608490fd5b60405162461bcd60e51b815260048101859052602f60248201527f4f6e6c792074686520636f6e7472616374206f776e65722063616e207065726660448201526e37b936903a3434b99030b1ba34b7b760891b6064820152608490fd5b81356001600160a01b038116810361036257815290830190830161124c565b34610362576000366003190112610362576001546040516001600160a01b039091168152602090f35b34610362576020806003193601126103625760043590611459613ab7565b811515806117c5575b61146b90613685565b8160005260039081815260ff9160089083826040600020015416828110156105915760011480156117a3575b1561174f578460005280835283826040600020015416828110156105915760051461170a5784600052808352838260406000200154168281101561059157816114e19114156136c8565b600054604051633ea42de360e01b81526001600160a01b0395918590829060049082908a165afa80156103565786916000916116d0575b506000908882528487526024604083205460405194859384926327db25f160e11b84526004840152165afa801561035657611578916000916116a4575b508760005283865286600160406000200154163314908115611698575b50613873565b8560005281845261159181846040600020015416613654565b600560005284526040600020541615610be757846000528252604060002001600560ff19825416179055600481836000541660405192838092637050565360e01b82525afa91821561035657600092611662575b505016803b156103625760008091602460405180948193634b54a37960e01b83528760048401525af1801561035657611653575b507f995328816eb12e50ec2691560298922cd9ead6191e59874ef2ef6ca8c766d725600080a26001600080516020613ae883398151915255005b61165c906133ea565b81611619565b90809250813d8311611691575b6116798183613419565b810103126103625761168a90613713565b83806115e5565b503d61166f565b87163314905088611572565b6116b991503d806000833e6104f78183613419565b505050505050505050505050505050505088611555565b809250868092503d8311611703575b6116e98183613419565b810103126103625760006116fd8792613713565b90611518565b503d6116df565b60405162461bcd60e51b815260048101849052601960248201527f547261646520697320616c7265616479206469737075746564000000000000006044820152606490fd5b60405162461bcd60e51b815260048101849052602660248201527f54726164652063616e6e6f74206265206469737075746564206174207468697360448201526520737461676560d01b6064820152608490fd5b5084600052808352838260406000200154168281101561059157600214611497565b50600254821115611462565b3461036257606036600319011261036257600435602480359060449081356001600160401b0381116103625761180b9036906004016135df565b600054604051633ea42de360e01b8152602094916001600160a01b03919086908290600490829086165afa8015610356578291600091611bae575b506000908982526003885286604083205460405194859384926327db25f160e11b84526004840152165afa90811561035657600091611b82575b50876000526003865281600160406000200154163314908115611b76575b5015611b205786151580611b14575b6118b690613685565b866000526003855260ff600860406000200154166008811015611aff57600303611ac357600186101580611ab8575b15611a7e578660005260068552604060002033600052855260ff60406000205416611a2a57866000526006855260406000203360005285526040600020600160ff19825416179055600485826000541660405192838092631ecc605560e21b82525afa908115610356576000916119f5575b501692833b156103625785936060600093604051988994638a2829e760e01b86528b60048701528501528301528183816119946064820188613502565b03925af1908115610356577f5e72c1f0055c90b360f39e32f2e35808960aa9d049e8c3847b383ca534554398946119e1926119e6575b506040805194859485528401526040830190613502565b0390a2005b6119ef906133ea565b866119ca565b90508581813d8311611a23575b611a0c8183613419565b8101031261036257611a1d90613713565b88611957565b503d611a02565b60405162461bcd60e51b8152600481018690526028818601527f54726164652068617320616c7265616479206265656e2072617465642062792081840152673a3432903ab9b2b960c11b6064820152608490fd5b60405162461bcd60e51b81526004810186905260148186015273496e76616c696420726174696e672076616c756560601b81840152606490fd5b5060058611156118e5565b60405162461bcd60e51b81526004810186905260168186015275151c985919481a5cc81b9bdd08199a5b985b1a5e995960521b81840152606490fd5b84634e487b7160e01b60005260216004526000fd5b506002548711156118ad565b60405162461bcd60e51b815260048101869052602a818601527f4f6e6c7920747261646520706172746965732063616e20706572666f726d207481840152693434b99030b1ba34b7b760b11b6064820152608490fd5b8216331490508861189e565b611b9791503d806000833e6104f78183613419565b505050505050505050505050505050505088611880565b809250878092503d8311611be1575b611bc78183613419565b81010312610362576000611bdb8392613713565b90611846565b503d611bbd565b3461036257604036600319011261036257600435602435600881101561036257600054604051637050565360e01b8152602093916001600160a01b03919085908290600490829086165afa90811561035657600091611cea575b50163303611c8c57806000526003835260ff611c6b836111d28360086040600020015416613654565b541615610be757611c8a926003916000525260086040600020016139ac565b005b60405162461bcd60e51b815260048101849052603060248201527f4f6e6c79204172626974726174696f6e20636f6e74726163742063616e20636160448201526f3636103a3434b990333ab731ba34b7b760811b6064820152608490fd5b90508481813d8311611d18575b611d018183613419565b8101031261036257611d1290613713565b85611c42565b503d611cf7565b346103625760403660031901126103625760243560043560005260076020526040600020805482101561036257602091611d589161363c565b90546040519160031b1c8152f35b34610362576000366003190112610362576000546040516001600160a01b039091168152602090f35b346103625760203660031901126103625760043580151580611ec0575b611db590613685565b6000526003602052604060002060405190611dcf826133fd565b8054825260018060a01b038060018301541691602084019283526002810154936040810194855260038201549160608201928352611e0f6004820161343a565b60808301908152611e226005830161343a565b60a08401908152600683015460c08501908152611e416007850161343a565b9060e0860191825260ff60088601541692611e6161010088019485613989565b6009860154986101208801998a52600b600a880154976101408a019889520154976101608101988952519a51169a5197519451905191519251935194600886101561059157611ebc995196519751986040519c8d9c8d613527565b0390f35b50600254811115611dac565b34610362576020366003190112610362576020611eea600435613a10565b604051908152f35b346103625760208060031936011261036257600435600052600381526040600020604051611f1f816133fd565b8154815260018201546001600160a01b0390811684830152600283015460408301526003830154606083015291600b90611f5b6004820161343a565b6080840152611f6c6005820161343a565b60a0840152600681015460c0840152611f876007820161343a565b60e0840152611fa160ff6008830154166101008501613989565b6009810154610120840152600a8101546101408401520154610160820152600483836000541660405192838092633ea42de360e01b82525afa8015610356578391600091612053575b506024600092935160405195869384926327db25f160e11b84526004840152165afa91821561035657600092612025575b5060405191168152f35b61203b9192503d806000833e6104f78183613419565b5050505050505050505050505050505050908361201b565b809250858092503d831161208c575b61206c8183613419565b810103126103625782916024612083600093613713565b91939250611fea565b503d612062565b34610362576040366003190112610362576024356001600160a01b03811690819003610362576004356000526006602052604060002090600052602052602060ff604060002054166040519015158152f35b34610362576040366003190112610362576120fe613626565b602435908115158092036103625733600052600560205260ff60406000205416156121735760207fe68d2c359a771606c400cf8b87000cf5864010363d6a736e98f5047b7bbe18e99160018060a01b0316928360005260058252604060002060ff1981541660ff8316179055604051908152a2005b60405162461bcd60e51b815260206004820152602260248201527f4f6e6c792061646d696e2063616e20706572666f726d2074686973206163746960448201526137b760f11b6064820152608490fd5b346103625760208060031936011261036257600435906121e1613ab7565b8115158061247d575b6121f390613685565b8160005260039081815260ff60086040600020015416600881101561059157600161221e91146139c4565b8260005281815260ff60086040600020015416600881101561059157826122469114156136c8565b600054604051633ea42de360e01b81526001600160a01b03918216908381600481855afa8015610356578391600091612443575b506000908782528686526024604083205460405194859384926327db25f160e11b84526004840152165afa90811561035657600091612417575b5082339116036123bf5782600491604051928380926303577be960e21b82525afa9081156103565760009161238a575b501691836000528082528060406000200154833b156103625760009360448592604051968793849263342865ab60e11b84528a600485015260248401525af1928315610356577fc46f70879f2c8e8b148399f0e29f0a2ad37cec5d4a75ba302c254f80ca91fc439361237b575b508360005280825260406000200154604051908152a26001600080516020613ae883398151915255005b612384906133ea565b84612351565b90508281813d83116123b8575b6123a18183613419565b81010312610362576123b290613713565b856122e4565b503d612397565b60405162461bcd60e51b815260048101849052602a60248201527f4f6e6c79206f66666572206f776e65722063616e206c6f636b2063727970746f60448201526920696e20657363726f7760b01b6064820152608490fd5b61242c91503d806000833e6104f78183613419565b5050505050505050505050505050505050866122b4565b809250858092503d8311612476575b61245c8183613419565b810103126103625760006124708492613713565b9061227a565b503d612452565b506002548211156121ea565b34610362576020366003190112610362576001600160a01b036124aa613626565b166000526005602052602060ff604060002054166040519015158152f35b34610362576020806003193601126103625760043590811515806127ef575b6124f090613685565b8160005260039081815260ff60086040600020015416600881101561059157600161251b91146139c4565b600083815282825260409020600101546001600160a01b03908116330361279b578360005260078252604060002080548015159182612774575b505015612699576004828260005416604051928380926303577be960e21b82525afa8015610356578291600091612661575b501690846000528383526001604060002001541690803b156103625760405163de9d858760e01b8152600481018690526001600160a01b039290921660248301526000908290604490829084905af1801561035657612652575b505b826000528181526125fe60ff60086040600020015416613654565b6002600052815260ff60406000205416156107f75782600052526008604060002001600260ff198254161790557f451a001db5c51b7ca11b027313b2ad79d5049cb6fabaa4d3648cf7dddf732eaf600080a2005b61265b906133ea565b836125e1565b809250848092503d8311612692575b61267a8183613419565b810103126103625761268c8291613713565b86612587565b503d612670565b6126a284613a10565b906004838260005416604051928380926303577be960e21b82525afa801561035657829160009161273c575b5016916000528383526001604060002001541690803b156103625760405163de9d858760e01b8152600481018690526001600160a01b039290921660248301526000908290604490829084905af180156103565761272d575b506125e3565b612736906133ea565b83612727565b809250858092503d831161276d575b6127558183613419565b81010312610362576127678291613713565b876126ce565b503d61274b565b6000198201925090821161088c57859161278d9161363c565b905490851b1c148580612555565b60405162461bcd60e51b815260048101839052602660248201527f4f6e6c792074726164652074616b65722063616e206d61726b206669617420616044820152651cc81c185a5960d21b6064820152608490fd5b506002548211156124e7565b346103625760e0366003190112610362576004356001600160401b038111610362573660238201121561036257806004013590612837826135ad565b916128456040519384613419565b8083526024602084019160051b8301019136831161036257602401905b828210612eff57836064356001600160401b038111610362576128899036906004016135df565b906084356001600160401b038111610362576128a99036906004016135df565b60c4356001600160401b038111610362576128c89036906004016135df565b825115612eb0578251916128f46128de846135ad565b936128ec6040519586613419565b8085526135ad565b601f190136602085013760005b8451811015612da6576129148186613966565b519061292160025461397a565b918260025560405192612933846133fd565b818452336020850152602435604085015260443560608501528860808501528460a085015260a43560c08501528560e08501526000610100850152426101208501526000610140850152600061016085015260005260036020526040600020835181556001810160018060a01b036020860151166bffffffffffffffffffffffff60a01b825416179055604084015160028201556060840151600382015560808401518051906001600160401b038211612c2c5781906129f660048501546133b0565b601f8111612d71575b50602090601f8311600114612cff57600092612cf4575b50508160011b916000199060031b1c19161760048201555b60a08401518051906001600160401b038211612c2c578190612a5360058501546133b0565b601f8111612cbf575b50602090601f8311600114612c4d57600092612c42575b50508160011b916000199060031b1c19161760058201555b60c0840151600682015560e08401518051906001600160401b038211612c2c578190612aba60078501546133b0565b601f8111612bec575b50602090601f8311600114612b7a57600092612b6f575b50508160011b916000199060031b1c19161760078201555b61010084015193600885101561059157610160600b91612b17600197600886016139ac565b6101208101516009850155610140810151600a85015501519101556002549081612b418489613966565b5233917f6e1cf3a650ca8202a8a7876101e709a4307e5639c8d4015993e000f3d026e310600080a401612901565b015190508b80612ada565b9250600784016000526020600020906000935b601f1984168510612bd1576001945083601f19811610612bb8575b505050811b016007820155612af2565b015160001960f88460031b161c191690558b8080612ba8565b81810151835560209485019460019093019290910190612b8d565b612c1c90600786016000526020600020601f850160051c81019160208610612c22575b601f0160051c0190613995565b8c612ac3565b9091508190612c0f565b634e487b7160e01b600052604160045260246000fd5b015190508b80612a73565b9250600584016000526020600020906000935b601f1984168510612ca4576001945083601f19811610612c8b575b505050811b016005820155612a8b565b015160001960f88460031b161c191690558b8080612c7b565b81810151835560209485019460019093019290910190612c60565b612cee90600586016000526020600020601f850160051c81019160208610612c2257601f0160051c0190613995565b8c612a5c565b015190508b80612a16565b9250600484016000526020600020906000935b601f1984168510612d56576001945083601f19811610612d3d575b505050811b016004820155612a2e565b015160001960f88460031b161c191690558b8080612d2d565b81810151835560209485019460019093019290910190612d12565b612da090600486016000526020600020601f850160051c81019160208610612c2257601f0160051c0190613995565b8c6129ff565b83805115612e9a576020810151600052600760205260406000208151906001600160401b038211612c2c57680100000000000000008211612c2c578054828255808310612e7c575b506020830190600052602060002060005b838110612e6857846040516020810160208252825180915260206040830193019060005b818110612e52577ff6b8cf4789b130b38fe88fbc6db8baf8120d8f060232f086490925a25737ce9e84860385a1005b8251855260209485019490920191600101612e23565b600190602084519401938184015501612dff565b612e9490826000528360206000209182019101613995565b83612dee565b634e487b7160e01b600052603260045260246000fd5b60405162461bcd60e51b815260206004820152602160248201527f4174206c65617374206f6e65206f6666657220494420697320726571756972656044820152601960fa1b6064820152608490fd5b8135815260209182019101612862565b3461036257602036600319011261036257600435600052600360205260406000208054611ebc60018060a01b03600184015416926002810154906003810154612f5a6004830161343a565b612f666005840161343a565b6006840154612f776007860161343a565b9160ff60088701541693600987015495600b600a890154980154986040519c8d9c8d613527565b34610362576020366003190112610362576020611eea6004356138d0565b34610362576020806003193601126103625760043590612fda613ab7565b811515806133a4575b612fec90613685565b8160005260039081815260ff91600890838260406000200154168281101561059157158015613382575b1561332d57846000528083528382604060002001541682811015610591576005146132cc5784600052808352838260406000200154168281101561059157816130609114156136c8565b600054604051633ea42de360e01b81526001600160a01b0395918590829060049082908a165afa8015610356578691600091613292575b5060009088825284875260246040832054604051998a9384926327db25f160e11b84526004840152165afa95861561035657600096613260575b506130fc908760005283865260019681600160406000200154163314918215613254575b5050613873565b8560005281845261311581846040600020015416613654565b600460005284526040600020541615610be757846000528252600760406000209182019160ff1992600484825416179055019160405193818552600093805461315d816133b0565b94858589015260018216918260001461320e5750506001146131b5575b867fc742381126185889f1ed17e46bced0266b422cdd0ee6e26d1ccac51250ff63c687870388a26001600080516020613ae883398151915255005b60009081528281209094505b8385106131fa57505050508101604001817fc742381126185889f1ed17e46bced0266b422cdd0ee6e26d1ccac51250ff63c6858061317a565b8054868601604001529382019381016131c1565b91509150869550604093507fc742381126185889f1ed17e46bced0266b422cdd0ee6e26d1ccac51250ff63c6969492501682840152151560051b8201019192858061317a565b163314905088806130f5565b6130fc91965061327a903d806000833e6104f78183613419565b505050505050505050505050505050505095906130d1565b809250868092503d83116132c5575b6132ab8183613419565b810103126103625760006132bf8792613713565b90613097565b503d6132a1565b60405162461bcd60e51b815260048101849052603360248201527f54726164652063616e6e6f742062652063616e63656c6c6564206966206974206044820152721a5cc8185b1c9958591e48191a5cdc1d5d1959606a1b6064820152608490fd5b60405162461bcd60e51b815260048101849052602760248201527f54726164652063616e6e6f742062652063616e63656c6c6564206174207468696044820152667320737461676560c81b6064820152608490fd5b5084600052808352838260406000200154168281101561059157600114613016565b50600254821115612fe3565b90600182811c921680156133e0575b60208310146133ca57565b634e487b7160e01b600052602260045260246000fd5b91607f16916133bf565b6001600160401b038111612c2c57604052565b61018081019081106001600160401b03821117612c2c57604052565b90601f801991011681019081106001600160401b03821117612c2c57604052565b9060405191826000825461344d816133b0565b908184526020946001916001811690816000146134bd575060011461347e575b50505061347c92500383613419565b565b600090815285812095935091905b8183106134a557505061347c935082010138808061346d565b8554888401850152948501948794509183019161348c565b9250505061347c94925060ff191682840152151560051b82010138808061346d565b60005b8381106134f25750506000910152565b81810151838201526020016134e2565b9060209161351b815180928185528580860191016134df565b601f01601f1916010190565b98999c9b9a9794906135769461358998979461356894610180938d5260018060a01b031660208d015260408c015260608b01528060808b0152890190613502565b9087820360a0890152613502565b9160c086015284820360e0860152613502565b95600884101561059157610160936101008401526101208301526101408201520152565b6001600160401b038111612c2c5760051b60200190565b6001600160401b038111612c2c57601f01601f191660200190565b81601f82011215610362578035906135f6826135c4565b926136046040519485613419565b8284526020838301011161036257816000926020809301838601378301015290565b600435906001600160a01b038216820361036257565b8054821015612e9a5760005260206000200190600090565b6008811015610591576000526004602052604060002090565b90600881101561059157600052602052604060002090565b1561368c57565b60405162461bcd60e51b8152602060048201526014602482015273151c98591948191bd95cc81b9bdd08195e1a5cdd60621b6044820152606490fd5b156136cf57565b606460405162461bcd60e51b815260206004820152602060248201527f54726164652068617320616c7265616479206265656e2066696e616c697a65646044820152fd5b51906001600160a01b038216820361036257565b81601f8201121561036257805161373d816135c4565b9261374b6040519485613419565b818452602082840101116103625761376991602080850191016134df565b90565b5190811515820361036257565b90610240828203126103625761378e82613713565b9260208301519260408101519260608201519260808301519260a08101519260c08201519260e083015192610100810151926001600160401b039384811161036257816137dc918401613727565b936137ea610120840161376c565b936101408401519361016081015193613806610180830161376c565b936101a08301518181116103625782613820918501613727565b936101c0840151828111610362578361383a918601613727565b936101e08101518381116103625784613854918301613727565b9361020082015193610220830151908111610362576137699201613727565b1561387a57565b60405162461bcd60e51b815260206004820152602860248201527f4f6e6c7920747261646520706172746965732063616e20646973707574652074604482015267686520747261646560c01b6064820152608490fd5b600090806000526007602052604060002090815491600193600184116138fb575b5050505050600090565b60015b84811061390b57506138f1565b83613916828561363c565b919054600392831b1c1461392c575085016138fe565b95506000198101945091925090831161395257509061394a9161363c565b9054911b1c90565b634e487b7160e01b81526011600452602490fd5b8051821015612e9a5760209160051b010190565b600019811461088c5760010190565b60088210156105915752565b8181106139a0575050565b60008155600101613995565b9060088110156105915760ff80198354169116179055565b156139cb57565b60405162461bcd60e51b815260206004820152601f60248201527f5472616465206973206e6f7420696e20616363657074656420737461747573006044820152606490fd5b6000908082526007602052604082209081549060019260018311613a36575b5050505090565b8493926000198101908111845b613a52575b5050839450613a2f565b80613aa35781871015613a9e5783613a6a888561363c565b919054600392831b1c14613a8357509584019584613a43565b96959350505091830180931161395257509061394a9161363c565b613a48565b634e487b7160e01b86526011600452602486fd5b600080516020613ae88339815191526002815414613ad55760029055565b604051633ee5aeb560e01b8152600490fdfe9b779b17422d0df92223018b32b4d1fa46e071723d6817e2486d003becc55f00a2646970667358221220a30712cc6e7ec18e78933cd55353779db89ed81b10d43ddc7814f320637107b864736f6c63430008180033",
  "linkReferences": {},
  "deployedLinkReferences": {}
}