{
  "_format": "hh-sol-artifact-1",
  "contractName": "Rating",
  "sourceName": "contracts/Rating.sol",
  "abi": [
    {
      "inputs": [
        {
          "internalType": "address",
          "name": "_registryAddress",
          "type": "address"
        }
      ],
      "stateMutability": "nonpayable",
      "type": "constructor"
    },
    {
      "anonymous": false,
      "inputs": [
        {
          "indexed": true,
          "internalType": "uint256",
          "name": "tradeId",
          "type": "uint256"
        },
        {
          "indexed": true,
          "internalType": "uint256",
          "name": "offerId",
          "type": "uint256"
        },
        {
          "indexed": true,
          "internalType": "address",
          "name": "raterId",
          "type": "address"
        },
        {
          "indexed": false,
          "internalType": "address",
          "name": "rateeId",
          "type": "address"
        },
        {
          "indexed": false,
          "internalType": "uint256",
          "name": "rateStars",
          "type": "uint256"
        },
        {
          "indexed": false,
          "internalType": "string",
          "name": "rateString",
          "type": "string"
        }
      ],
      "name": "TradeRated",
      "type": "event"
    },
    {
      "anonymous": false,
      "inputs": [
        {
          "indexed": true,
          "internalType": "address",
          "name": "user",
          "type": "address"
        },
        {
          "indexed": false,
          "internalType": "uint256",
          "name": "newReputation",
          "type": "uint256"
        }
      ],
      "name": "UserReputationUpdated",
      "type": "event"
    },
    {
      "inputs": [
        {
          "internalType": "uint256",
          "name": "_tradeId",
          "type": "uint256"
        },
        {
          "internalType": "uint256",
          "name": "_rateStars",
          "type": "uint256"
        },
        {
          "internalType": "string",
          "name": "_rateString",
          "type": "string"
        }
      ],
      "name": "rateTrade",
      "outputs": [],
      "stateMutability": "nonpayable",
      "type": "function"
    },
    {
      "inputs": [],
      "name": "ratingCount",
      "outputs": [
        {
          "internalType": "uint256",
          "name": "",
          "type": "uint256"
        }
      ],
      "stateMutability": "view",
      "type": "function"
    },
    {
      "inputs": [
        {
          "internalType": "uint256",
          "name": "",
          "type": "uint256"
        }
      ],
      "name": "ratings",
      "outputs": [
        {
          "internalType": "uint256",
          "name": "tradeId",
          "type": "uint256"
        },
        {
          "internalType": "uint256",
          "name": "offerId",
          "type": "uint256"
        },
        {
          "internalType": "address",
          "name": "raterId",
          "type": "address"
        },
        {
          "internalType": "address",
          "name": "rateeId",
          "type": "address"
        },
        {
          "internalType": "uint256",
          "name": "rateStars",
          "type": "uint256"
        },
        {
          "internalType": "string",
          "name": "rateString",
          "type": "string"
        },
        {
          "internalType": "uint256",
          "name": "rateTimestamp",
          "type": "uint256"
        }
      ],
      "stateMutability": "view",
      "type": "function"
    },
    {
      "inputs": [],
      "name": "registry",
      "outputs": [
        {
          "internalType": "contract ContractRegistry",
          "name": "",
          "type": "address"
        }
      ],
      "stateMutability": "view",
      "type": "function"
    },
    {
      "inputs": [
        {
          "internalType": "uint256",
          "name": "",
          "type": "uint256"
        },
        {
          "internalType": "address",
          "name": "",
          "type": "address"
        }
      ],
      "name": "tradeRatings",
      "outputs": [
        {
          "internalType": "bool",
          "name": "",
          "type": "bool"
        }
      ],
      "stateMutability": "view",
      "type": "function"
    }
  ],
  "bytecode": "0x6080346100be57601f6110c538819003918201601f19168301916001600160401b038311848410176100c3578084926020946040528339810103126100be57516001600160a01b038116908190036100be57801561007a57600080546001600160a01b031916919091179055604051610feb90816100da8239f35b606460405162461bcd60e51b815260206004820152602060248201527f496e76616c696420436f6e7472616374526567697374727920616464726573736044820152fd5b600080fd5b634e487b7160e01b600052604160045260246000fdfe608080604052600436101561001357600080fd5b60003560e01c9081632486408114610dd7575080635046fddd14610d855780635d30e84d14610c605780637b10399914610c3757638a2829e71461005657600080fd5b346106315760603660031901126106315760443567ffffffffffffffff8111610631573660238201121561063157806004013561009281610e96565b916100a06040519384610e2c565b8183523660248383010111610631578160009260246020930183860137830101526000546040516324ed653d60e11b81526001600160a01b039091169190602081600481865afa90811561063e57600091610bf8575b5060405163695730a560e01b8152600480359082015290600090829060249082906001600160a01b03165afa90811561063e57600091610bd2575b5015610b96576040516324ed653d60e11b8152602081600481865afa90811561063e57600091610b57575b5060405163695730a560e01b8152600480359082015290600090829060249082906001600160a01b03165afa90811561063e57600091610b30575b506008811015610b1a57600303610ad6576040516324ed653d60e11b8152602081600481865afa90811561063e57600091610a97575b5060405163695730a560e01b8152600480359082015290600090829060249082906001600160a01b03165afa90811561063e57600091610a70575b506040516324ed653d60e11b815290602082600481875afa91821561063e57600092610a31575b5060405163695730a560e01b8152600480359082015291600090839060249082906001600160a01b03165afa91821561063e57600092610a08575b506001600160a01b031633149081156109f5575b501561099d57600435600052600360205260406000203360005260205260ff6040600020541661094757600160243510158061093a575b156108e957610118815111610894576040516324ed653d60e11b815291602083600481845afa92831561063e57600093610855575b5060405163695730a560e01b8152600480359082015292600090849060249082906001600160a01b03165afa801561063e57600093600091610822575b50336001600160a01b0382160361081a5750602060049160405192838092633ea42de360e01b82525afa90811561063e576000916107db575b506040516327db25f160e11b81526004810184905290600090829060249082906001600160a01b03165afa90811561063e5760009161077d575b50905b6001549260001984146107675760018401600155604051938460e081011067ffffffffffffffff60e0870111176107515760019060e086016040526004358652826020870152336040870152818060a01b038516606087015260243560808701528360a08701524260c0870152016000526002602052604060002084518155602085015160018201556002810160018060a01b03604087015116906bffffffffffffffffffffffff60a01b9182825416179055600382019060018060a01b03606088015116908254161790556080850151600482015560a085015194855167ffffffffffffffff8111610751576104976005840154610df2565b601f811161070a575b506020601f821160011461069457918160c09260069460049a600092610689575b50508160011b916000199060031b1c19161760058501555b0151910155833560005260036020526040600020336000526020526040600020600160ff198254161790556040519160018060a01b03841683526024356020840152606060408401527ff86a35bc856c0d69e6f57923c29f575e9d9499a47a49e44d25c2a5d26eaf0fd03393806105568835946060830190610e71565b0390a4600054604051630f4d898960e11b81529260209184919082906001600160a01b03165afa91821561063e5760009261064a575b50604051633dda807160e11b81526001600160a01b038281166004830152909260209184916024918391600091165af191821561063e57600092610604575b506040519182526001600160a01b0316907f2ed0252b8901e5ebb800f47a9b16756f232137a30e26b272dae6b2a2baf4e00290602090a2005b9091506020813d602011610636575b8161062060209383610e2c565b8101031261063157519060206105cb565b600080fd5b3d9150610613565b6040513d6000823e3d90fd5b91506020823d602011610681575b8161066560209383610e2c565b8101031261063157602061067a600093610eb2565b925061058c565b3d9150610658565b0151905038806104c1565b6005840160005260206000209760005b601f19841681106106f25750826004996006959360019360c096601f198116106106d9575b505050811b0160058501556104d9565b015160001960f88460031b161c191690553880806106c9565b828201518a55600190990198602092830192016106a4565b600584016000526020600020601f830160051c81016020841061074a575b601f830160051c8201811061073e5750506104a0565b60008155600101610728565b5080610728565b634e487b7160e01b600052604160045260246000fd5b634e487b7160e01b600052601160045260246000fd5b90503d806000833e61078f8183610e2c565b810161018082820312610631576107a582610eb2565b9161010081015167ffffffffffffffff811161063157610120926107ca918301610ec6565b50015180151503610631573861039a565b90506020813d602011610812575b816107f660209383610e2c565b8101031261063157600061080b602492610eb2565b9150610360565b3d91506107e9565b90509061039d565b90506108429193503d806000833e61083a8183610e2c565b810190610f0b565b5050505050505050505092909238610327565b92506020833d60201161088c575b8161087060209383610e2c565b81010312610631576000610885602494610eb2565b93506102ea565b3d9150610863565b60405162461bcd60e51b815260206004820152602760248201527f526174696e6720737472696e67206d757374206e6f74206578636565642032386044820152663020627974657360c81b6064820152608490fd5b60405162461bcd60e51b8152602060048201526024808201527f526174696e67207374617273206d757374206265206265747765656e203120616044820152636e64203560e01b6064820152608490fd5b50600560243511156102b5565b60405162461bcd60e51b815260206004820152602860248201527f54726164652068617320616c7265616479206265656e207261746564206279206044820152673a3432903ab9b2b960c11b6064820152608490fd5b60405162461bcd60e51b815260206004820152602a60248201527f4f6e6c7920747261646520706172746965732063616e20706572666f726d20746044820152693434b99030b1ba34b7b760b11b6064820152608490fd5b6001600160a01b0316331490503861027e565b610a1e9192503d806000833e61083a8183610e2c565b505050505050505050509050903861026a565b91506020823d602011610a68575b81610a4c60209383610e2c565b81010312610631576000610a61602493610eb2565b925061022f565b3d9150610a3f565b610a8591503d806000833e61083a8183610e2c565b50505050505050505050905038610208565b90506020813d602011610ace575b81610ab260209383610e2c565b81010312610631576000610ac7602492610eb2565b91506101cd565b3d9150610aa5565b606460405162461bcd60e51b815260206004820152602060248201527f5472616465206973206e6f7420696e2066696e616c697a6564207374617475736044820152fd5b634e487b7160e01b600052602160045260246000fd5b610b4591503d806000833e61083a8183610e2c565b50505097505050505050505038610197565b90506020813d602011610b8e575b81610b7260209383610e2c565b81010312610631576000610b87602492610eb2565b915061015c565b3d9150610b65565b60405162461bcd60e51b8152602060048201526014602482015273151c98591948191bd95cc81b9bdd08195e1a5cdd60621b6044820152606490fd5b610be791503d806000833e61083a8183610e2c565b505050505050505050505038610131565b90506020813d602011610c2f575b81610c1360209383610e2c565b81010312610631576000610c28602492610eb2565b91506100f6565b3d9150610c06565b34610631576000366003190112610631576000546040516001600160a01b039091168152602090f35b346106315760208060031936011261063157600435600052600281526040600020805460019160018101549060018060a01b03806002830154169060038301541660048301549160058401936040519489600099825492610cc084610df2565b808a529360018116908115610d645750600114610d28575b50505050600690610cf086610d1e98999a0387610e2c565b015495604051988998895288015260408701526060860152608085015260e060a085015260e0840190610e71565b9060c08301520390f35b6000908152828120929b5092915b828410610d5157505050850190970196808986610d1e610cd8565b80548985018d0152928b01928101610d36565b60ff1916848b015250505090151560051b8601019750808986610d1e610cd8565b34610631576040366003190112610631576024356001600160a01b03811690819003610631576004356000526003602052604060002090600052602052602060ff604060002054166040519015158152f35b34610631576000366003190112610631576020906001548152f35b90600182811c92168015610e22575b6020831014610e0c57565b634e487b7160e01b600052602260045260246000fd5b91607f1691610e01565b90601f8019910116810190811067ffffffffffffffff82111761075157604052565b60005b838110610e615750506000910152565b8181015183820152602001610e51565b90602091610e8a81518092818552858086019101610e4e565b601f01601f1916010190565b67ffffffffffffffff811161075157601f01601f191660200190565b51906001600160a01b038216820361063157565b81601f82011215610631578051610edc81610e96565b92610eea6040519485610e2c565b8184526020828401011161063157610f089160208085019101610e4e565b90565b90916101808284031261063157815192610f2760208401610eb2565b9260408101519260608201519260808301519167ffffffffffffffff928381116106315782610f57918601610ec6565b9360a08101518481116106315783610f70918301610ec6565b9360c08201519360e083015191821161063157610f8e918301610ec6565b9161010082015160088110156106315791610120810151916101606101408301519201519056fea264697066735822122095aacfa54bb74469ab8dcaf32a3325a1d7759f63772a7b052762fd8fb5bb538664736f6c63430008180033",
  "linkReferences": {},
  "deployedLinkReferences": {}
}