{
  "_format": "hh-sol-artifact-1",
  "contractName": "Reputation",
  "sourceName": "contracts/Reputation.sol",
  "abi": [
    {
      "inputs": [
        {
          "internalType": "address",
          "name": "_registryAddress",
          "type": "address"
        }
      ],
      "stateMutability": "nonpayable",
      "type": "constructor"
    },
    {
      "inputs": [
        {
          "internalType": "address",
          "name": "_user",
          "type": "address"
        }
      ],
      "name": "calculateReputation",
      "outputs": [
        {
          "internalType": "uint256",
          "name": "",
          "type": "uint256"
        }
      ],
      "stateMutability": "view",
      "type": "function"
    },
    {
      "inputs": [],
      "name": "registry",
      "outputs": [
        {
          "internalType": "contract ContractRegistry",
          "name": "",
          "type": "address"
        }
      ],
      "stateMutability": "view",
      "type": "function"
    }
  ],
  "bytecode": "0x6080346100be57601f61066438819003918201601f19168301916001600160401b038311848410176100c3578084926020946040528339810103126100be57516001600160a01b038116908190036100be57801561007a57600080546001600160a01b03191691909117905560405161058a90816100da8239f35b606460405162461bcd60e51b815260206004820152602060248201527f496e76616c696420436f6e7472616374526567697374727920616464726573736044820152fd5b600080fd5b634e487b7160e01b600052604160045260246000fdfe6080604081815260048036101561001557600080fd5b600092833560e01c91826327c06fd514610064575050637b1039991461003a57600080fd5b34610060578160031936011261006057905490516001600160a01b039091168152602090f35b5080fd5b90929150346103d85760209384600319360112610446576001600160a01b0391803583811690819003610431578686838187875416630f4d898960e11b82525afa95861561043c578396610400575b5082908551968791636386c1c760e01b835284830152816024968792165afa9485156103f657829561026d575b50610140850151601e810290808204601e149015171561025c5760e086015160148102908082046014149015171561024a576101208701918251926014840293808504601414901517156102205751606481029080820460641490151715610220576101008901518061024457506001905b8115610232570492600f840293808504600f149015171561022057885192600a840293808504600a149015171561020e57888a0151946005860295808704600514901517156101fc57610180946101c06064956101c06101c5966101c06101ce9b978a6101c09804946104f6565b6104f6565b04960151610519565b948581029581870414901517156101ec575050506064905191048152f35b634e487b7160e01b825260119052fd5b634e487b7160e01b8852601187528888fd5b634e487b7160e01b8752601186528787fd5b634e487b7160e01b8652601185528686fd5b634e487b7160e01b8752601286528787fd5b90610152565b5050634e487b7160e01b825260119052fd5b50634e487b7160e01b825260119052fd5b9094503d8083833e61027f8183610449565b8101908082036101c081126103d85781519267ffffffffffffffff938481116103f25783019060c0828203126103f25787519160c08301838110878211176103e0578952805183528a8101518b84015288810151898401526060810151606084015260808101518681116103dc57826102f9918301610481565b608084015260a0810151908682116103dc57916103199160a09301610481565b9101526101a08091601f1901126103d857855192818401908111848210176103c657865287820151835285820151888401526060820151868401526080820151606084015260a0820151608084015260c082015160a084015260e082015160c0840152610100918281015160e085015261012092838201519085015261014092838201519085015261016092838201519085015261018092838201519085015201519082015293386100e0565b634e487b7160e01b8552604188528585fd5b8380fd5b8780fd5b634e487b7160e01b885260418b528888fd5b8580fd5b84513d84823e3d90fd5b9095508681813d8311610435575b6104188183610449565b81010312610431575183811681036104315794826100b3565b8280fd5b503d61040e565b85513d85823e3d90fd5b80fd5b90601f8019910116810190811067ffffffffffffffff82111761046b57604052565b634e487b7160e01b600052604160045260246000fd5b919080601f840112156104f157825167ffffffffffffffff811161046b57602090604051926104b983601f19601f8501160185610449565b8184528282870101116104f15760005b8181106104de57508260009394955001015290565b85810183015184820184015282016104c9565b600080fd5b9190820180921161050357565b634e487b7160e01b600052601160045260246000fd5b801561054e574203428111610503576301e1338081111561053a5750603290565b62ed4e00101561054957604b90565b606490565b5060649056fea2646970667358221220b313c71d36544250ead460448a0218c60119110d18e8c8cbd7122c7696deaccb64736f6c63430008180033",
  "linkReferences": {},
  "deployedLinkReferences": {}
}