{
  "_format": "hh-sol-artifact-1",
  "contractName": "YapBayEscrow",
  "sourceName": "contracts/YapBayEscrow.sol",
  "abi": [
    {
      "anonymous": false,
      "inputs": [
        {
          "indexed": false,
          "internalType": "address",
          "name": "previousAdmin",
          "type": "address"
        },
        {
          "indexed": false,
          "internalType": "address",
          "name": "newAdmin",
          "type": "address"
        }
      ],
      "name": "AdminChanged",
      "type": "event"
    },
    {
      "anonymous": false,
      "inputs": [
        {
          "indexed": true,
          "internalType": "address",
          "name": "beacon",
          "type": "address"
        }
      ],
      "name": "BeaconUpgraded",
      "type": "event"
    },
    {
      "anonymous": false,
      "inputs": [
        {
          "indexed": true,
          "internalType": "uint256",
          "name": "escrowId",
          "type": "uint256"
        },
        {
          "indexed": true,
          "internalType": "uint256",
          "name": "tradeId",
          "type": "uint256"
        },
        {
          "indexed": false,
          "internalType": "address",
          "name": "initiator",
          "type": "address"
        },
        {
          "indexed": false,
          "internalType": "uint256",
          "name": "bondAmount",
          "type": "uint256"
        },
        {
          "indexed": false,
          "internalType": "uint256",
          "name": "timestamp",
          "type": "uint256"
        }
      ],
      "name": "DisputeOpened",
      "type": "event"
    },
    {
      "anonymous": false,
      "inputs": [
        {
          "indexed": true,
          "internalType": "uint256",
          "name": "escrowId",
          "type": "uint256"
        },
        {
          "indexed": false,
          "internalType": "bool",
          "name": "decision",
          "type": "bool"
        },
        {
          "indexed": false,
          "internalType": "bytes32",
          "name": "explanationHash",
          "type": "bytes32"
        },
        {
          "indexed": false,
          "internalType": "string",
          "name": "bondAllocation",
          "type": "string"
        }
      ],
      "name": "DisputeResolved",
      "type": "event"
    },
    {
      "anonymous": false,
      "inputs": [
        {
          "indexed": true,
          "internalType": "uint256",
          "name": "escrowId",
          "type": "uint256"
        },
        {
          "indexed": false,
          "internalType": "address",
          "name": "responder",
          "type": "address"
        },
        {
          "indexed": false,
          "internalType": "uint256",
          "name": "bondAmount",
          "type": "uint256"
        },
        {
          "indexed": false,
          "internalType": "bytes32",
          "name": "evidenceHash",
          "type": "bytes32"
        }
      ],
      "name": "DisputeResponse",
      "type": "event"
    },
    {
      "anonymous": false,
      "inputs": [
        {
          "indexed": true,
          "internalType": "uint256",
          "name": "escrowId",
          "type": "uint256"
        },
        {
          "indexed": true,
          "internalType": "uint256",
          "name": "tradeId",
          "type": "uint256"
        },
        {
          "indexed": false,
          "internalType": "address",
          "name": "seller",
          "type": "address"
        },
        {
          "indexed": false,
          "internalType": "uint256",
          "name": "amount",
          "type": "uint256"
        },
        {
          "indexed": false,
          "internalType": "uint256",
          "name": "counter",
          "type": "uint256"
        },
        {
          "indexed": false,
          "internalType": "uint256",
          "name": "timestamp",
          "type": "uint256"
        }
      ],
      "name": "EscrowCancelled",
      "type": "event"
    },
    {
      "anonymous": false,
      "inputs": [
        {
          "indexed": true,
          "internalType": "uint256",
          "name": "escrowId",
          "type": "uint256"
        },
        {
          "indexed": true,
          "internalType": "uint256",
          "name": "tradeId",
          "type": "uint256"
        },
        {
          "indexed": false,
          "internalType": "address",
          "name": "seller",
          "type": "address"
        },
        {
          "indexed": false,
          "internalType": "address",
          "name": "buyer",
          "type": "address"
        },
        {
          "indexed": false,
          "internalType": "address",
          "name": "arbitrator",
          "type": "address"
        },
        {
          "indexed": false,
          "internalType": "uint256",
          "name": "amount",
          "type": "uint256"
        },
        {
          "indexed": false,
          "internalType": "uint256",
          "name": "deposit_deadline",
          "type": "uint256"
        },
        {
          "indexed": false,
          "internalType": "uint256",
          "name": "fiat_deadline",
          "type": "uint256"
        },
        {
          "indexed": false,
          "internalType": "bool",
          "name": "sequential",
          "type": "bool"
        },
        {
          "indexed": false,
          "internalType": "address",
          "name": "sequentialEscrowAddress",
          "type": "address"
        },
        {
          "indexed": false,
          "internalType": "uint256",
          "name": "timestamp",
          "type": "uint256"
        }
      ],
      "name": "EscrowCreated",
      "type": "event"
    },
    {
      "anonymous": false,
      "inputs": [
        {
          "indexed": true,
          "internalType": "uint256",
          "name": "escrowId",
          "type": "uint256"
        },
        {
          "indexed": true,
          "internalType": "uint256",
          "name": "tradeId",
          "type": "uint256"
        },
        {
          "indexed": false,
          "internalType": "address",
          "name": "buyer",
          "type": "address"
        },
        {
          "indexed": false,
          "internalType": "uint256",
          "name": "amount",
          "type": "uint256"
        },
        {
          "indexed": false,
          "internalType": "uint256",
          "name": "counter",
          "type": "uint256"
        },
        {
          "indexed": false,
          "internalType": "uint256",
          "name": "timestamp",
          "type": "uint256"
        },
        {
          "indexed": false,
          "internalType": "string",
          "name": "destination",
          "type": "string"
        }
      ],
      "name": "EscrowReleased",
      "type": "event"
    },
    {
      "anonymous": false,
      "inputs": [
        {
          "indexed": true,
          "internalType": "uint256",
          "name": "escrowId",
          "type": "uint256"
        },
        {
          "indexed": true,
          "internalType": "uint256",
          "name": "tradeId",
          "type": "uint256"
        },
        {
          "indexed": false,
          "internalType": "uint256",
          "name": "timestamp",
          "type": "uint256"
        }
      ],
      "name": "FiatMarkedPaid",
      "type": "event"
    },
    {
      "anonymous": false,
      "inputs": [
        {
          "indexed": true,
          "internalType": "uint256",
          "name": "escrowId",
          "type": "uint256"
        },
        {
          "indexed": true,
          "internalType": "uint256",
          "name": "tradeId",
          "type": "uint256"
        },
        {
          "indexed": false,
          "internalType": "uint256",
          "name": "amount",
          "type": "uint256"
        },
        {
          "indexed": false,
          "internalType": "uint256",
          "name": "counter",
          "type": "uint256"
        },
        {
          "indexed": false,
          "internalType": "uint256",
          "name": "timestamp",
          "type": "uint256"
        }
      ],
      "name": "FundsDeposited",
      "type": "event"
    },
    {
      "anonymous": false,
      "inputs": [
        {
          "indexed": false,
          "internalType": "uint8",
          "name": "version",
          "type": "uint8"
        }
      ],
      "name": "Initialized",
      "type": "event"
    },
    {
      "anonymous": false,
      "inputs": [
        {
          "indexed": true,
          "internalType": "address",
          "name": "previousOwner",
          "type": "address"
        },
        {
          "indexed": true,
          "internalType": "address",
          "name": "newOwner",
          "type": "address"
        }
      ],
      "name": "OwnershipTransferred",
      "type": "event"
    },
    {
      "anonymous": false,
      "inputs": [
        {
          "indexed": false,
          "internalType": "address",
          "name": "account",
          "type": "address"
        }
      ],
      "name": "Paused",
      "type": "event"
    },
    {
      "anonymous": false,
      "inputs": [
        {
          "indexed": true,
          "internalType": "uint256",
          "name": "escrowId",
          "type": "uint256"
        },
        {
          "indexed": false,
          "internalType": "address",
          "name": "oldAddress",
          "type": "address"
        },
        {
          "indexed": false,
          "internalType": "address",
          "name": "newAddress",
          "type": "address"
        },
        {
          "indexed": false,
          "internalType": "uint256",
          "name": "timestamp",
          "type": "uint256"
        }
      ],
      "name": "SequentialAddressUpdated",
      "type": "event"
    },
    {
      "anonymous": false,
      "inputs": [
        {
          "indexed": false,
          "internalType": "address",
          "name": "account",
          "type": "address"
        }
      ],
      "name": "Unpaused",
      "type": "event"
    },
    {
      "anonymous": false,
      "inputs": [
        {
          "indexed": true,
          "internalType": "address",
          "name": "implementation",
          "type": "address"
        }
      ],
      "name": "Upgraded",
      "type": "event"
    },
    {
      "inputs": [],
      "name": "ARBITRATION_DURATION",
      "outputs": [
        {
          "internalType": "uint256",
          "name": "",
          "type": "uint256"
        }
      ],
      "stateMutability": "view",
      "type": "function"
    },
    {
      "inputs": [],
      "name": "DEPOSIT_DURATION",
      "outputs": [
        {
          "internalType": "uint256",
          "name": "",
          "type": "uint256"
        }
      ],
      "stateMutability": "view",
      "type": "function"
    },
    {
      "inputs": [],
      "name": "DISPUTE_RESPONSE_DURATION",
      "outputs": [
        {
          "internalType": "uint256",
          "name": "",
          "type": "uint256"
        }
      ],
      "stateMutability": "view",
      "type": "function"
    },
    {
      "inputs": [],
      "name": "FIAT_DURATION",
      "outputs": [
        {
          "internalType": "uint256",
          "name": "",
          "type": "uint256"
        }
      ],
      "stateMutability": "view",
      "type": "function"
    },
    {
      "inputs": [],
      "name": "MAX_AMOUNT",
      "outputs": [
        {
          "internalType": "uint256",
          "name": "",
          "type": "uint256"
        }
      ],
      "stateMutability": "view",
      "type": "function"
    },
    {
      "inputs": [
        {
          "internalType": "uint256",
          "name": "_escrowId",
          "type": "uint256"
        }
      ],
      "name": "autoCancel",
      "outputs": [],
      "stateMutability": "nonpayable",
      "type": "function"
    },
    {
      "inputs": [
        {
          "internalType": "uint256",
          "name": "_escrowId",
          "type": "uint256"
        }
      ],
      "name": "cancelEscrow",
      "outputs": [],
      "stateMutability": "nonpayable",
      "type": "function"
    },
    {
      "inputs": [
        {
          "internalType": "uint256",
          "name": "_tradeId",
          "type": "uint256"
        },
        {
          "internalType": "address",
          "name": "_buyer",
          "type": "address"
        },
        {
          "internalType": "uint256",
          "name": "_amount",
          "type": "uint256"
        },
        {
          "internalType": "bool",
          "name": "_sequential",
          "type": "bool"
        },
        {
          "internalType": "address",
          "name": "_sequentialEscrowAddress",
          "type": "address"
        }
      ],
      "name": "createEscrow",
      "outputs": [
        {
          "internalType": "uint256",
          "name": "",
          "type": "uint256"
        }
      ],
      "stateMutability": "nonpayable",
      "type": "function"
    },
    {
      "inputs": [
        {
          "internalType": "uint256",
          "name": "_escrowId",
          "type": "uint256"
        }
      ],
      "name": "defaultJudgment",
      "outputs": [],
      "stateMutability": "nonpayable",
      "type": "function"
    },
    {
      "inputs": [
        {
          "internalType": "uint256",
          "name": "",
          "type": "uint256"
        }
      ],
      "name": "escrows",
      "outputs": [
        {
          "internalType": "uint256",
          "name": "escrow_id",
          "type": "uint256"
        },
        {
          "internalType": "uint256",
          "name": "trade_id",
          "type": "uint256"
        },
        {
          "internalType": "address",
          "name": "seller",
          "type": "address"
        },
        {
          "internalType": "address",
          "name": "buyer",
          "type": "address"
        },
        {
          "internalType": "address",
          "name": "arbitrator",
          "type": "address"
        },
        {
          "internalType": "uint256",
          "name": "amount",
          "type": "uint256"
        },
        {
          "internalType": "uint256",
          "name": "deposit_deadline",
          "type": "uint256"
        },
        {
          "internalType": "uint256",
          "name": "fiat_deadline",
          "type": "uint256"
        },
        {
          "internalType": "enum YapBayEscrow.EscrowState",
          "name": "state",
          "type": "uint8"
        },
        {
          "internalType": "bool",
          "name": "sequential",
          "type": "bool"
        },
        {
          "internalType": "address",
          "name": "sequential_escrow_address",
          "type": "address"
        },
        {
          "internalType": "bool",
          "name": "fiat_paid",
          "type": "bool"
        },
        {
          "internalType": "uint256",
          "name": "counter",
          "type": "uint256"
        },
        {
          "internalType": "address",
          "name": "dispute_initiator",
          "type": "address"
        },
        {
          "internalType": "uint256",
          "name": "dispute_bond_buyer",
          "type": "uint256"
        },
        {
          "internalType": "uint256",
          "name": "dispute_bond_seller",
          "type": "uint256"
        },
        {
          "internalType": "uint256",
          "name": "dispute_initiated_time",
          "type": "uint256"
        },
        {
          "internalType": "bytes32",
          "name": "dispute_evidence_hash_buyer",
          "type": "bytes32"
        },
        {
          "internalType": "bytes32",
          "name": "dispute_evidence_hash_seller",
          "type": "bytes32"
        },
        {
          "internalType": "bytes32",
          "name": "dispute_resolution_hash",
          "type": "bytes32"
        }
      ],
      "stateMutability": "view",
      "type": "function"
    },
    {
      "inputs": [],
      "name": "fixedArbitrator",
      "outputs": [
        {
          "internalType": "address",
          "name": "",
          "type": "address"
        }
      ],
      "stateMutability": "view",
      "type": "function"
    },
    {
      "inputs": [
        {
          "internalType": "uint256",
          "name": "_escrowId",
          "type": "uint256"
        }
      ],
      "name": "fundEscrow",
      "outputs": [],
      "stateMutability": "nonpayable",
      "type": "function"
    },
    {
      "inputs": [
        {
          "internalType": "contract IERC20Upgradeable",
          "name": "_usdc",
          "type": "address"
        },
        {
          "internalType": "address",
          "name": "_arbitrator",
          "type": "address"
        }
      ],
      "name": "initialize",
      "outputs": [],
      "stateMutability": "nonpayable",
      "type": "function"
    },
    {
      "inputs": [
        {
          "internalType": "uint256",
          "name": "_escrowId",
          "type": "uint256"
        }
      ],
      "name": "markFiatPaid",
      "outputs": [],
      "stateMutability": "nonpayable",
      "type": "function"
    },
    {
      "inputs": [],
      "name": "nextEscrowId",
      "outputs": [
        {
          "internalType": "uint256",
          "name": "",
          "type": "uint256"
        }
      ],
      "stateMutability": "view",
      "type": "function"
    },
    {
      "inputs": [
        {
          "internalType": "uint256",
          "name": "_escrowId",
          "type": "uint256"
        },
        {
          "internalType": "bytes32",
          "name": "evidenceHash",
          "type": "bytes32"
        }
      ],
      "name": "openDisputeWithBond",
      "outputs": [],
      "stateMutability": "nonpayable",
      "type": "function"
    },
    {
      "inputs": [],
      "name": "owner",
      "outputs": [
        {
          "internalType": "address",
          "name": "",
          "type": "address"
        }
      ],
      "stateMutability": "view",
      "type": "function"
    },
    {
      "inputs": [],
      "name": "paused",
      "outputs": [
        {
          "internalType": "bool",
          "name": "",
          "type": "bool"
        }
      ],
      "stateMutability": "view",
      "type": "function"
    },
    {
      "inputs": [],
      "name": "proxiableUUID",
      "outputs": [
        {
          "internalType": "bytes32",
          "name": "",
          "type": "bytes32"
        }
      ],
      "stateMutability": "view",
      "type": "function"
    },
    {
      "inputs": [
        {
          "internalType": "uint256",
          "name": "_escrowId",
          "type": "uint256"
        }
      ],
      "name": "releaseEscrow",
      "outputs": [],
      "stateMutability": "nonpayable",
      "type": "function"
    },
    {
      "inputs": [],
      "name": "renounceOwnership",
      "outputs": [],
      "stateMutability": "nonpayable",
      "type": "function"
    },
    {
      "inputs": [
        {
          "internalType": "uint256",
          "name": "_escrowId",
          "type": "uint256"
        },
        {
          "internalType": "bool",
          "name": "decision",
          "type": "bool"
        },
        {
          "internalType": "bytes32",
          "name": "explanationHash",
          "type": "bytes32"
        }
      ],
      "name": "resolveDisputeWithExplanation",
      "outputs": [],
      "stateMutability": "nonpayable",
      "type": "function"
    },
    {
      "inputs": [
        {
          "internalType": "uint256",
          "name": "_escrowId",
          "type": "uint256"
        },
        {
          "internalType": "bytes32",
          "name": "evidenceHash",
          "type": "bytes32"
        }
      ],
      "name": "respondToDisputeWithBond",
      "outputs": [],
      "stateMutability": "nonpayable",
      "type": "function"
    },
    {
      "inputs": [
        {
          "internalType": "address",
          "name": "newOwner",
          "type": "address"
        }
      ],
      "name": "transferOwnership",
      "outputs": [],
      "stateMutability": "nonpayable",
      "type": "function"
    },
    {
      "inputs": [
        {
          "internalType": "uint256",
          "name": "_escrowId",
          "type": "uint256"
        },
        {
          "internalType": "address",
          "name": "newSequentialAddress",
          "type": "address"
        }
      ],
      "name": "updateSequentialAddress",
      "outputs": [],
      "stateMutability": "nonpayable",
      "type": "function"
    },
    {
      "inputs": [
        {
          "internalType": "address",
          "name": "newImplementation",
          "type": "address"
        }
      ],
      "name": "upgradeTo",
      "outputs": [],
      "stateMutability": "nonpayable",
      "type": "function"
    },
    {
      "inputs": [
        {
          "internalType": "address",
          "name": "newImplementation",
          "type": "address"
        },
        {
          "internalType": "bytes",
          "name": "data",
          "type": "bytes"
        }
      ],
      "name": "upgradeToAndCall",
      "outputs": [],
      "stateMutability": "payable",
      "type": "function"
    },
    {
      "inputs": [],
      "name": "usdc",
      "outputs": [
        {
          "internalType": "contract IERC20Upgradeable",
          "name": "",
          "type": "address"
        }
      ],
      "stateMutability": "view",
      "type": "function"
    }
  ],
  "bytecode": "0x60a080604052346100315730608052612fd79081610037823960805181818161191c01528181611a4a0152611f430152f35b600080fdfe6080604052600436101561001257600080fd5b60003560e01c8063012f52ee1461268b57806306ba04731461243b5780630dff3c051461241e5780632e2c7770146120f25780633659cfe614611f1f5780633728ae9314611f025780633e413bee14611ed8578063485cc95514611c8b5780634f1ef286146119cd57806352d1902d1461190957806357c2fe51146115835780635c975abb1461156057806365387eae1461109a5780636f7a82b914610ed6578063715018a614610e7957806389cb29dd14610e5a5780638da5cb5b14610e315780639c3df60914610d31578063a8db2e4814610a9f578063b1f8b4a514610a81578063c9c31af514610938578063d40dc87014610919578063da0f52c3146106ff578063e018243614610485578063e84941d71461045b578063ed65316414610202578063f05b223b146101e45763f2fde38b1461015057600080fd5b346101df5760203660031901126101df576101696127cf565b610171612887565b6001600160a01b0381161561018b57610189906128df565b005b60405162461bcd60e51b815260206004820152602660248201527f4f776e61626c653a206e6577206f776e657220697320746865207a65726f206160448201526564647265737360d01b6064820152608490fd5b600080fd5b346101df5760003660031901126101df5760206040516203f4808152f35b346101df5760203660031901126101df5760043561021e612d2e565b610226612c52565b8060005261012e60205260406000209060088201805460ff811660068110156104455760016102559114612c96565b60028401546001600160a01b0392908316331480610438575b801561042a575b156103cd577f6aabd5958ac38c026e042f1f5e2c969e1bfa0ea0a77e4b5a1713648c10d342849260028360ff60e09560081c166103b8575b60ff1916179081835560ff60098801926102c78454612c43565b845560081c1615610347576102f0818061012f5416945460101c16936005890194855491612f11565b600360018801549701541691549054906040519283526020830152604082015242606082015260a06080820152601160a08201527073657175656e7469616c20657363726f7760781b60c0820152a35b6001606555005b80925061012f5416916001600388019761036c838a5416956005830196875491612f11565b015496541691549054906040519283526020830152604082015242606082015260a06080820152600f60a08201526e3234b932b1ba103a3790313abcb2b960891b60c0820152a3610340565b6103c8838260101c161515612be7565b6102ad565b60405162461bcd60e51b815260206004820152602f60248201527f453130323a20556e617574686f72697a65642063616c6c6572206f722066696160448201526e1d081b9bdd0818dbdb999a5c9b5959608a1b6064820152608490fd5b508261013054163314610275565b5060ff8260b01c1661026e565b634e487b7160e01b600052602160045260246000fd5b346101df5760003660031901126101df57610130546040516001600160a01b039091168152602090f35b346101df5760203660031901126101df576004356104a1612d2e565b6104a9612c52565b8060005261012e60205260406000209060088201805460ff81169360068510159283610445578515928380156106f1575b6104e390612c96565b600283019660018060a01b0394858954169687331480156106e3575b61050890612ce2565b6104455761067f575b600114610590575b50600080516020612f828339815191529350600360ff198254161790556105866005600983019361054a8554612c43565b80955560018401549754169201549160405193849342928590949392606092608083019660018060a01b03168352602083015260408201520152565b0390a36001606555005b60b01c60ff166106265760078201544211156105d05761012f546005830154600080516020612f82833981519152956105ca928616612f11565b86610519565b60405162461bcd60e51b815260206004820152602860248201527f43616e6e6f742063616e63656c3a206669617420646561646c696e65206e6f7460448201526708195e1c1a5c995960c21b6064820152608490fd5b60405162461bcd60e51b815260206004820152602b60248201527f453130353a204669617420616c726561647920636f6e6669726d65642c20636160448201526a1b9b9bdd0818d85b98d95b60aa1b6064820152608490fd5b600684015442116105115760405162461bcd60e51b815260206004820152602b60248201527f43616e6e6f742063616e63656c3a206465706f73697420646561646c696e652060448201526a1b9bdd08195e1c1a5c995960aa1b6064820152608490fd5b5061013054871633146104ff565b5060009450600187146104da565b346101df5761070d36612871565b90610716612d2e565b61071e612c52565b8060005261012e60205260406000209160088301805460ff811690600682101561044557610750600160ff9314612c96565b60b01c16156108c65760028401546001600160a01b0391908216331480156108b7575b61077c90612ce2565b600a850194828654166108725760058101549160058302928084046005149015171561085c577f63b279d01d638a4e3844510c8f326ce08dd550b151d5fdbc0a624e022e30be8994606094606460019504986107e18a8361012f541630903390612d84565b42600d860155336001600160601b0360a01b825416179055600384015416331460001461084c5787600b840155600e8301555b600460ff198254161790556009810161082d8154612c43565b9055015493604051903382526020820152426040820152a36001606555005b87600c840155600f830155610814565b634e487b7160e01b600052601160045260246000fd5b60405162461bcd60e51b815260206004820152601960248201527f4469737075746520616c726561647920696e69746961746564000000000000006044820152606490fd5b50600385015482163314610773565b60405162461bcd60e51b815260206004820152602560248201527f46696174206d75737420626520636f6e6669726d6564206265666f7265206469604482015264737075746560d81b6064820152608490fd5b346101df5760003660031901126101df5760206040516305f5e1008152f35b346101df5760203660031901126101df57600435610954612d2e565b61095c612c52565b8060005261012e602052604060002090600882019160ff8354166006811015610445576109899015612c96565b60028101546001600160a01b03906109a49082163314612ce2565b60068201544211610a3c5761012f5416926109c9600583019485549030903390612d84565b600160ff19825416179055610708420180421161085c578160609160077f704a954b0e2e8ee22559b7ff6660cd433c562a629f9b6336cdee0f28819c7e4294015560016009820191610a1b8354612c43565b80935501549454906040519182526020820152426040820152a36001606555005b60405162461bcd60e51b815260206004820152601e60248201527f453130333a204465706f73697420646561646c696e65206578706972656400006044820152606490fd5b346101df5760003660031901126101df57602060405162093a808152f35b346101df57610aad36612871565b610ab5612d2e565b610abd612c52565b8160005260209061012e825260406000209160ff6008840154166006811015610445576004610aec9114612c96565b600a8301546003840180546001600160a01b039492908516908516818103610c7b575050610b21846002870154163314612ce2565b600f850154610c2a575b600d8501546203f480810180911161085c574211610bd757600585015460058102908082046005149015171561085c577f7c63ff3787c2ec512c29151b8c94d4c832ab30660df4127b99d2c684caab68db95606095606485930493610b99858361012f541630903390612d84565b54163314600014610bc7578083600b600e93015501555b604051923384528301526040820152a26001606555005b8083600c600f9301550155610bb0565b60405162461bcd60e51b815260048101849052602560248201527f453131313a204469737075746520726573706f6e736520706572696f642065786044820152641c1a5c995960da1b6064820152608490fd5b60405162461bcd60e51b815260048101849052602360248201527f4469737075746520616c726561647920726573706f6e6465642062792073656c6044820152623632b960e91b6064820152608490fd5b6002870154861603610cec57610c92903314612ce2565b600e85015415610b2b5760405162461bcd60e51b815260048101849052602260248201527f4469737075746520616c726561647920726573706f6e6465642062792062757960448201526132b960f11b6064820152608490fd5b60405162461bcd60e51b815260048101859052601f60248201527f453130323a20496e76616c6964206469737075746520696e69746961746f72006044820152606490fd5b346101df5760203660031901126101df57600435610d4d612c52565b8060005261012e6020526040600020600881019081549160ff83166006811015610445576001610d7d9114612c96565b610d9460018060a01b036003840154163314612ce2565b60078201544211610de0576001928360b01b9060ff60b01b19161790550154907f4c44299950f727bd3c64a8178218675f855ede424f39d96ccb70d780afc533b86020604051428152a3005b60405162461bcd60e51b815260206004820152602360248201527f453130343a2046696174207061796d656e7420646561646c696e6520657870696044820152621c995960ea1b6064820152608490fd5b346101df5760003660031901126101df576033546040516001600160a01b039091168152602090f35b346101df5760003660031901126101df57602061012d54604051908152f35b346101df5760003660031901126101df57610e92612887565b603380546001600160a01b031981169091556000906001600160a01b03167f8be0079c531659141344cd1fd0a4f28419497f9722a3daafe3b4186f6b6457e08280a3005b346101df5760403660031901126101df57600435610ef26127e5565b610efa612c52565b8160005261012e602052604060002090600882019182549260ff8460081c16156110555760ff8416600681101590816104455760028114159182611046575b82611032575b5050600392610f50610f6892612ec5565b909201546001600160a01b0392903390841614612ce2565b81831615610fee57805462010000600160b01b031916601084901b62010000600160b01b03161790557f6bb0ff98b418d3c6a5262a7fd3de150c3df2e511f666c49a475a646db5cba06d92610fe990604080516001600160a01b0360109390931c909416821684529316602083015242928201929092529081906060820190565b0390a2005b606460405162461bcd60e51b815260206004820152602060248201527f453130323a20496e76616c69642073657175656e7469616c20616464726573736044820152fd5b909150610445576005141582610f50610f3f565b50600381141591506000610f39565b60405162461bcd60e51b815260206004820152601e60248201527f453130363a20457363726f77206973206e6f742073657175656e7469616c00006044820152606490fd5b346101df5760a03660031901126101df576110b36127e5565b6064351515606435036101df576084356001600160a01b038116908190036101df576110dd612c52565b60443515611524576305f5e100604435116114d4576001600160a01b0382161561148f5760643561147e575b50604051610280810181811067ffffffffffffffff82111761146857604052600060c0820152600060e08201526000610100820152600061012082015260006101408201526000610160820152600061018082015260006101a082015260006101c082015260006101e0820152600061020082015260006102208201526000610240820152600061026082015261012d54808252600435602083015233604083015260018060a01b038316606083015260018060a01b036101305416608083015260443560a08301526103844201421161085c57426103840160c0830152600060e08301819052610100830152606435158015610120840152611461576084355b60018060a01b03166101408301526000610160830152600061018083015260005261012e602052604060002081518155602082015160018201556002810160018060a01b036040840151166001600160601b0360a01b8254161790556003810160018060a01b036060840151166001600160601b0360a01b8254161790556004810160018060a01b036080840151166001600160601b0360a01b82541617905560a0820151600582015560c0820151600682015560e0820151600782015561010082015190600682101561044557600881810180546101208601516101408701516001600160b01b031990921660ff9096169590951794151590921b61ff001693909317601082901b62010000600160b01b031617909255602093611454926001600160a01b031691610160850151151560088201549060ff60b01b9060b01b169060ff60b01b19161760088201556101808501516009820155600a810160018060a01b036101a0870151166001600160601b0360a01b8254161790556101c0850151600b8201556101e0850151600c820155610200850151600d820155610220850151600e820155610240850151600f820155601061026086015191015561012d549160018060a01b03610130541660c086015160e0870151916040519433865260018060a01b03168986015260408501526044356060850152608084015260a0830152606435151560c083015260e082015242610100820152817f1c02d3803891c959ee1696ed7587d527fdbe26005bf351701f23b93488d441fd61012060043593a3612c43565b61012d5551604051908152f35b600061120a565b634e487b7160e01b600052604160045260246000fd5b611489901515612be7565b81611109565b60405162461bcd60e51b815260206004820152601b60248201527f453130323a20496e76616c6964206275796572206164647265737300000000006044820152606490fd5b60405162461bcd60e51b815260206004820152602260248201527f453130313a20416d6f756e742065786365656473206d6178696d756d206c696d6044820152611a5d60f21b6064820152608490fd5b60405162461bcd60e51b8152602060048201526014602482015273114c4c0c0e88125b9d985b1a5908185b5bdd5b9d60621b6044820152606490fd5b346101df5760003660031901126101df57602060ff609754166040519015158152f35b346101df576020806003193601126101df57600435906115a1612d2e565b6115a9612c52565b60018060a01b03906101306115c2838254163314612ce2565b8360005261012e8252604060002092600884019360ff85541660068110156104455760046115f09114612c96565b600d8101546203f480810180911161085c5742106118c45781600a82015416906003810191838354168114806118b8575b1561175e5750918082600961170595837f4cd6838d4e78d26429c83df21624d2541bae7b67454aa056b2f17d1d8ae6cabb9a9654169560405161166381612817565b6015815274109d5e595c881dda5b9cc8189e48191959985d5b1d605a1b8b8201529860ff825460081c16600014611744576116af8661012f541687845460101c16600586015491612f11565b600b8301548061172a575b50600c8301548061170f575b50505b600560ff19825416179055016116df8154612c43565b905554169116149160006040519485948552840152606060408401526060830190612b47565b0390a26001606555005b61172391878061012f541691541690612f11565b8c806116c6565b61173e908761012f54168888541690612f11565b8d6116ba565b6117598661012f541689600586015491612f11565b6116af565b9495600282019584875416809114806118ac575b156118415792600985936117059693867f4cd6838d4e78d26429c83df21624d2541bae7b67454aa056b2f17d1d8ae6cabb9b9a996040516117b281612817565b601681527514d95b1b195c881dda5b9cc8189e48191959985d5b1d60521b8d8201529a6117ec61012f938985541690600588015491612f11565b600c85015480611828575b5050600b84015490878261180f575b505050506116c9565b8061181f94541691541690612f11565b8c808087611806565b61183a91898086541691541690612f11565b8e806117f7565b60405162461bcd60e51b815260048101899052603960248201527f43616e6e6f74206170706c792064656661756c74206a7564676d656e7420776860448201527f656e20626f7468207061727469657320726573706f6e646564000000000000006064820152608490fd5b50600e83015415611772565b50600f82015415611621565b60405162461bcd60e51b815260048101859052601b60248201527f526573706f6e736520706572696f64206e6f74206578706972656400000000006044820152606490fd5b346101df5760003660031901126101df577f00000000000000000000000000000000000000000000000000000000000000006001600160a01b03163003611962576020604051600080516020612f628339815191528152f35b60405162461bcd60e51b815260206004820152603860248201527f555550535570677261646561626c653a206d757374206e6f742062652063616c60448201527f6c6564207468726f7567682064656c656761746563616c6c00000000000000006064820152608490fd5b60403660031901126101df576119e16127cf565b6024359067ffffffffffffffff82116101df57366023830112156101df578160040135611a0d81612855565b92611a1b6040519485612833565b8184526020918285019136602483830101116101df578160009260248693018537860101526001600160a01b037f0000000000000000000000000000000000000000000000000000000000000000811690611a7830831415612928565b611a95600080516020612f62833981519152928284541614612989565b611a9d612887565b7f4910fdfa16fed3260ed0e7147f7cc6da11a60208b5b9406d12a635614ffd91435460ff1615611ad5575050505061018991506129ea565b84939416906040516352d1902d60e01b81528581600481865afa60009181611c5c575b50611b595760405162461bcd60e51b815260048101879052602e60248201527f45524331393637557067726164653a206e657720696d706c656d656e7461746960448201526d6f6e206973206e6f74205555505360901b6064820152608490fd5b03611c0557611b67836129ea565b7fbc7cd75a20ee27fd9adebab32041f755214dbc6bffa90cc0225b39da2e5c2d3b600080a2835115801590611bfd575b611b9d57005b60008091610189957f416464726573733a206c6f772d6c6576656c2064656c65676174652063616c6c60405196611bd3886127fb565b60278852870152660819985a5b195960ca1b60408701525190845af4611bf7612a7a565b91612aaa565b506001611b97565b60405162461bcd60e51b815260048101859052602960248201527f45524331393637557067726164653a20756e737570706f727465642070726f786044820152681a58589b195555525160ba1b6064820152608490fd5b9091508681813d8311611c84575b611c748183612833565b810103126101df57519088611af8565b503d611c6a565b346101df5760403660031901126101df576001600160a01b03600435818116908190036101df57611cba6127e5565b906000549260ff8460081c161592838094611ecb575b8015611eb4575b15611e585760ff198581166001176000559484611e46575b50611d0a60ff60005460081c16611d0581612b87565b612b87565b611d13336128df565b611d576000549560ff8760081c1690611d2b82612b87565b611d3482612b87565b6001606555611d4282612b87565b611d4b82612b87565b60975416609755612b87565b8215611e0a57168015611dc6576001600160601b0360a01b9161012f908382541617905561013091825416179055600161012d55611d9157005b61ff0019166000557f7f26b83ff96e1f2b6a682f133852f6798a09c465da95921460cefb3847402498602060405160018152a1005b606460405162461bcd60e51b815260206004820152602060248201527f453130323a20496e76616c69642061726269747261746f7220616464726573736044820152fd5b60405162461bcd60e51b8152602060048201526014602482015273496e76616c69642055534443206164647265737360601b6044820152606490fd5b61ffff19166101011760005585611cef565b60405162461bcd60e51b815260206004820152602e60248201527f496e697469616c697a61626c653a20636f6e747261637420697320616c72656160448201526d191e481a5b9a5d1a585b1a5e995960921b6064820152608490fd5b50303b158015611cd75750600160ff861614611cd7565b50600160ff861610611cd0565b346101df5760003660031901126101df5761012f546040516001600160a01b039091168152602090f35b346101df5760003660031901126101df5760206040516103848152f35b346101df576020806003193601126101df57611f396127cf565b6001600160a01b037f000000000000000000000000000000000000000000000000000000000000000081169290611f7230851415612928565b611f8f600080516020612f62833981519152948286541614612989565b611f97612887565b604051938285019185831067ffffffffffffffff84111761146857826040526000865260ff7f4910fdfa16fed3260ed0e7147f7cc6da11a60208b5b9406d12a635614ffd91435416600014611ff4575050505061018991506129ea565b84939416906040516352d1902d60e01b81528581600481865afa600091816120c3575b506120785760405162461bcd60e51b815260048101879052602e60248201527f45524331393637557067726164653a206e657720696d706c656d656e7461746960448201526d6f6e206973206e6f74205555505360901b6064820152608490fd5b03611c0557612086836129ea565b7fbc7cd75a20ee27fd9adebab32041f755214dbc6bffa90cc0225b39da2e5c2d3b600080a28351158015906120bb57611b9d57005b506000611b97565b9091508681813d83116120eb575b6120db8183612833565b810103126101df57519088612017565b503d6120d1565b346101df5760603660031901126101df576004356024358015158082036101df576044359061211f612d2e565b612127612c52565b61013080546001600160a01b0394906121439086163314612ce2565b8560005261012e602052604060002090600882019160ff83541660068110156104455760046121729114612c96565b600d8101546203f48081019081811161085c57620d2f000180911161085c5742116123cd577f4cd6838d4e78d26429c83df21624d2541bae7b67454aa056b2f17d1d8ae6cabb96611705946009938860108501556000146122fc57845460081c60ff16156122dc576121f58261012f541683875460101c16600586015491612f11565b600b830154806122bf575b50600c83015490816122a4575b50505060405161221c816127fb565b603a81527f42757965722077696e733a20627579657220626f6e642072657475726e65642c60208201527f2073656c6c657220626f6e6420746f2061726269747261746f720000000000006040820152925b600560ff19825416179055016122848154612c43565b905560405193849384526020840152606060408401526060830190612b47565b826122b79361012f541691541690612f11565b88808061220d565b6122d6908361012f54168460038701541690612f11565b8a612200565b6122f78261012f541683600386015416600586015491612f11565b6121f5565b9061012f918183541661231c600286019184835416600588015491612f11565b600c850154806123b4575b5050600b840154918261239b575b50505050604051612345816127fb565b603b81527f53656c6c65722077696e733a2073656c6c657220626f6e642072657475726e6560208201527f642c20627579657220626f6e6420746f2061726269747261746f72000000000060408201529261226e565b806123ab94541691541690612f11565b88808080612335565b6123c691848087541691541690612f11565b8b80612327565b60405162461bcd60e51b815260206004820152602360248201527f453131333a204172626974726174696f6e20646561646c696e6520657863656560448201526219195960ea1b6064820152608490fd5b346101df5760003660031901126101df5760206040516107088152f35b346101df5760203660031901126101df57600435612457612d2e565b61245f612c52565b610130546001600160a01b03919061247a9083163314612ce2565b8060005261012e60205260406000206008810190815460ff81166006811015806104455760028214158061267c575b81908061266c575b6124bb9150612ec5565b61044557801561261c575b60011461253d575b50600080516020612f8283398151915291600360ff1982541617905560098101906124f98254612c43565b918290556001810154600282015460059092015460408051979093166001600160a01b03168752602087015290850191909152426060850152928060808101610586565b60b01c60ff166125c957600781015442111561258457600080516020612f828339815191529161257e8561012f541686600285015416600585015491612f11565b916124ce565b60405162461bcd60e51b815260206004820152601960248201527f4669617420646561646c696e65206e6f742065787069726564000000000000006044820152606490fd5b60405162461bcd60e51b815260206004820152602560248201527f4669617420616c726561647920706169643b2063616e6e6f74206175746f2d63604482015264185b98d95b60da1b6064820152608490fd5b600683015442116124c65760405162461bcd60e51b815260206004820152601c60248201527f4465706f73697420646561646c696e65206e6f742065787069726564000000006044820152606490fd5b50610445578060058314156124b1565b506000905060038214156124a9565b346101df5760203660031901126101df5760043560005261012e6020526040600020805490808080808080808080808080600181015460018060a01b03600283015416906010600f600e600d600c600b600960086007600660058d600360018060a01b03910154169d600460018060a01b03910154169e01549e01549e01549e01549e01549e600a60018060a01b03910154169f01549f01549f01549f01549f01549f01549f608052602060800152604060800152606060800152608080015260a06080015260c06080015260e06080015260ff8116906006821015610445576101809190915260ff600882901c811615156101a0526001600160a01b03601083901c166101c05260b09190911c1615156101e052610200526102205261024052610260526102809081526102a0919091526102c0919091526102e0919091526080f35b600435906001600160a01b03821682036101df57565b602435906001600160a01b03821682036101df57565b6060810190811067ffffffffffffffff82111761146857604052565b6040810190811067ffffffffffffffff82111761146857604052565b90601f8019910116810190811067ffffffffffffffff82111761146857604052565b67ffffffffffffffff811161146857601f01601f191660200190565b60409060031901126101df576004359060243590565b6033546001600160a01b0316330361289b57565b606460405162461bcd60e51b815260206004820152602060248201527f4f776e61626c653a2063616c6c6572206973206e6f7420746865206f776e65726044820152fd5b603380546001600160a01b039283166001600160a01b0319821681179092559091167f8be0079c531659141344cd1fd0a4f28419497f9722a3daafe3b4186f6b6457e0600080a3565b1561292f57565b60405162461bcd60e51b815260206004820152602c60248201527f46756e6374696f6e206d7573742062652063616c6c6564207468726f7567682060448201526b19195b1959d85d1958d85b1b60a21b6064820152608490fd5b1561299057565b60405162461bcd60e51b815260206004820152602c60248201527f46756e6374696f6e206d7573742062652063616c6c6564207468726f7567682060448201526b6163746976652070726f787960a01b6064820152608490fd5b803b15612a1f57600080516020612f6283398151915280546001600160a01b0319166001600160a01b03909216919091179055565b60405162461bcd60e51b815260206004820152602d60248201527f455243313936373a206e657720696d706c656d656e746174696f6e206973206e60448201526c1bdd08184818dbdb9d1c9858dd609a1b6064820152608490fd5b3d15612aa5573d90612a8b82612855565b91612a996040519384612833565b82523d6000602084013e565b606090565b91929015612b0c5750815115612abe575090565b3b15612ac75790565b60405162461bcd60e51b815260206004820152601d60248201527f416464726573733a2063616c6c20746f206e6f6e2d636f6e74726163740000006044820152606490fd5b825190915015612b1f5750805190602001fd5b60405162461bcd60e51b815260206004820152908190612b43906024830190612b47565b0390fd5b919082519283825260005b848110612b73575050826000602080949584010152601f8019910116010190565b602081830181015184830182015201612b52565b15612b8e57565b60405162461bcd60e51b815260206004820152602b60248201527f496e697469616c697a61626c653a20636f6e7472616374206973206e6f74206960448201526a6e697469616c697a696e6760a81b6064820152608490fd5b15612bee57565b60405162461bcd60e51b815260206004820152602760248201527f453130363a204d697373696e672073657175656e7469616c20657363726f77206044820152666164647265737360c81b6064820152608490fd5b600019811461085c5760010190565b60ff60975416612c5e57565b60405162461bcd60e51b815260206004820152601060248201526f14185d5cd8589b194e881c185d5cd95960821b6044820152606490fd5b15612c9d57565b60405162461bcd60e51b815260206004820152601e60248201527f453130353a20496e76616c6964207374617465207472616e736974696f6e00006044820152606490fd5b15612ce957565b60405162461bcd60e51b815260206004820152601960248201527f453130323a20556e617574686f72697a65642063616c6c6572000000000000006044820152606490fd5b600260655414612d3f576002606555565b60405162461bcd60e51b815260206004820152601f60248201527f5265656e7472616e637947756172643a207265656e7472616e742063616c6c006044820152606490fd5b6040516323b872dd60e01b60208201526001600160a01b039283166024820152929091166044830152606480830193909352918152612dcd91612dc8608483612833565b612dcf565b565b60018060a01b031690612e28604051612de781612817565b6020938482527f5361666545524332303a206c6f772d6c6576656c2063616c6c206661696c6564858301526000808587829751910182855af1611bf7612a7a565b805191821591848315612e9a575b505050905015612e435750565b6084906040519062461bcd60e51b82526004820152602a60248201527f5361666545524332303a204552433230206f7065726174696f6e20646964206e6044820152691bdd081cdd58d8d9595960b21b6064820152fd5b919381809450010312612ec157820151908115158203612ebe575080388084612e36565b80fd5b5080fd5b15612ecc57565b60405162461bcd60e51b815260206004820152601e60248201527f453130373a20457363726f7720696e207465726d696e616c20737461746500006044820152606490fd5b60405163a9059cbb60e01b60208201526001600160a01b039092166024830152604480830193909352918152608081019167ffffffffffffffff83118284101761146857612dcd92604052612dcf56fe360894a13ba1a3210667c828492db98dca3e2076cc3735a920a3ca505d382bbcfb14835202040f52d2f5515b2ab036c02aa8eaf2f18aab2c3772a04a8643489ba2646970667358221220326c85d646b76862d1d222fc04fb25960599a3837ccf1dc47edf796e6e2800b864736f6c63430008110033",
  "linkReferences": {},
  "deployedLinkReferences": {}
}