{
  "_format": "hh-sol-artifact-1",
  "contractName": "YapBayEscrow",
  "sourceName": "contracts/YapBayEscrow.sol",
  "abi": [
    {
      "anonymous": false,
      "inputs": [
        {
          "indexed": false,
          "internalType": "address",
          "name": "previousAdmin",
          "type": "address"
        },
        {
          "indexed": false,
          "internalType": "address",
          "name": "newAdmin",
          "type": "address"
        }
      ],
      "name": "AdminChanged",
      "type": "event"
    },
    {
      "anonymous": false,
      "inputs": [
        {
          "indexed": true,
          "internalType": "address",
          "name": "beacon",
          "type": "address"
        }
      ],
      "name": "BeaconUpgraded",
      "type": "event"
    },
    {
      "anonymous": false,
      "inputs": [
        {
          "indexed": true,
          "internalType": "uint256",
          "name": "escrowId",
          "type": "uint256"
        },
        {
          "indexed": true,
          "internalType": "uint256",
          "name": "tradeId",
          "type": "uint256"
        },
        {
          "indexed": false,
          "internalType": "address",
          "name": "initiator",
          "type": "address"
        },
        {
          "indexed": false,
          "internalType": "uint256",
          "name": "bondAmount",
          "type": "uint256"
        },
        {
          "indexed": false,
          "internalType": "uint256",
          "name": "timestamp",
          "type": "uint256"
        }
      ],
      "name": "DisputeOpened",
      "type": "event"
    },
    {
      "anonymous": false,
      "inputs": [
        {
          "indexed": true,
          "internalType": "uint256",
          "name": "escrowId",
          "type": "uint256"
        },
        {
          "indexed": false,
          "internalType": "bool",
          "name": "decision",
          "type": "bool"
        },
        {
          "indexed": false,
          "internalType": "bytes32",
          "name": "explanationHash",
          "type": "bytes32"
        },
        {
          "indexed": false,
          "internalType": "string",
          "name": "bondAllocation",
          "type": "string"
        }
      ],
      "name": "DisputeResolved",
      "type": "event"
    },
    {
      "anonymous": false,
      "inputs": [
        {
          "indexed": true,
          "internalType": "uint256",
          "name": "escrowId",
          "type": "uint256"
        },
        {
          "indexed": false,
          "internalType": "address",
          "name": "responder",
          "type": "address"
        },
        {
          "indexed": false,
          "internalType": "uint256",
          "name": "bondAmount",
          "type": "uint256"
        },
        {
          "indexed": false,
          "internalType": "bytes32",
          "name": "evidenceHash",
          "type": "bytes32"
        }
      ],
      "name": "DisputeResponse",
      "type": "event"
    },
    {
      "anonymous": false,
      "inputs": [
        {
          "indexed": true,
          "internalType": "uint256",
          "name": "escrowId",
          "type": "uint256"
        },
        {
          "indexed": false,
          "internalType": "uint256",
          "name": "newBalance",
          "type": "uint256"
        },
        {
          "indexed": false,
          "internalType": "string",
          "name": "reason",
          "type": "string"
        }
      ],
      "name": "EscrowBalanceChanged",
      "type": "event"
    },
    {
      "anonymous": false,
      "inputs": [
        {
          "indexed": true,
          "internalType": "uint256",
          "name": "escrowId",
          "type": "uint256"
        },
        {
          "indexed": true,
          "internalType": "uint256",
          "name": "tradeId",
          "type": "uint256"
        },
        {
          "indexed": false,
          "internalType": "address",
          "name": "seller",
          "type": "address"
        },
        {
          "indexed": false,
          "internalType": "uint256",
          "name": "amount",
          "type": "uint256"
        },
        {
          "indexed": false,
          "internalType": "uint256",
          "name": "counter",
          "type": "uint256"
        },
        {
          "indexed": false,
          "internalType": "uint256",
          "name": "timestamp",
          "type": "uint256"
        }
      ],
      "name": "EscrowCancelled",
      "type": "event"
    },
    {
      "anonymous": false,
      "inputs": [
        {
          "indexed": true,
          "internalType": "uint256",
          "name": "escrowId",
          "type": "uint256"
        },
        {
          "indexed": true,
          "internalType": "uint256",
          "name": "tradeId",
          "type": "uint256"
        },
        {
          "indexed": false,
          "internalType": "address",
          "name": "seller",
          "type": "address"
        },
        {
          "indexed": false,
          "internalType": "address",
          "name": "buyer",
          "type": "address"
        },
        {
          "indexed": false,
          "internalType": "address",
          "name": "arbitrator",
          "type": "address"
        },
        {
          "indexed": false,
          "internalType": "uint256",
          "name": "amount",
          "type": "uint256"
        },
        {
          "indexed": false,
          "internalType": "uint256",
          "name": "deposit_deadline",
          "type": "uint256"
        },
        {
          "indexed": false,
          "internalType": "uint256",
          "name": "fiat_deadline",
          "type": "uint256"
        },
        {
          "indexed": false,
          "internalType": "bool",
          "name": "sequential",
          "type": "bool"
        },
        {
          "indexed": false,
          "internalType": "address",
          "name": "sequentialEscrowAddress",
          "type": "address"
        },
        {
          "indexed": false,
          "internalType": "uint256",
          "name": "timestamp",
          "type": "uint256"
        },
        {
          "indexed": false,
          "internalType": "string",
          "name": "version",
          "type": "string"
        }
      ],
      "name": "EscrowCreated",
      "type": "event"
    },
    {
      "anonymous": false,
      "inputs": [
        {
          "indexed": true,
          "internalType": "uint256",
          "name": "escrowId",
          "type": "uint256"
        },
        {
          "indexed": true,
          "internalType": "uint256",
          "name": "tradeId",
          "type": "uint256"
        },
        {
          "indexed": false,
          "internalType": "address",
          "name": "buyer",
          "type": "address"
        },
        {
          "indexed": false,
          "internalType": "uint256",
          "name": "amount",
          "type": "uint256"
        },
        {
          "indexed": false,
          "internalType": "uint256",
          "name": "counter",
          "type": "uint256"
        },
        {
          "indexed": false,
          "internalType": "uint256",
          "name": "timestamp",
          "type": "uint256"
        },
        {
          "indexed": false,
          "internalType": "string",
          "name": "destination",
          "type": "string"
        }
      ],
      "name": "EscrowReleased",
      "type": "event"
    },
    {
      "anonymous": false,
      "inputs": [
        {
          "indexed": true,
          "internalType": "uint256",
          "name": "escrowId",
          "type": "uint256"
        },
        {
          "indexed": true,
          "internalType": "uint256",
          "name": "tradeId",
          "type": "uint256"
        },
        {
          "indexed": false,
          "internalType": "uint256",
          "name": "timestamp",
          "type": "uint256"
        }
      ],
      "name": "FiatMarkedPaid",
      "type": "event"
    },
    {
      "anonymous": false,
      "inputs": [
        {
          "indexed": true,
          "internalType": "uint256",
          "name": "escrowId",
          "type": "uint256"
        },
        {
          "indexed": true,
          "internalType": "uint256",
          "name": "tradeId",
          "type": "uint256"
        },
        {
          "indexed": false,
          "internalType": "uint256",
          "name": "amount",
          "type": "uint256"
        },
        {
          "indexed": false,
          "internalType": "uint256",
          "name": "counter",
          "type": "uint256"
        },
        {
          "indexed": false,
          "internalType": "uint256",
          "name": "timestamp",
          "type": "uint256"
        }
      ],
      "name": "FundsDeposited",
      "type": "event"
    },
    {
      "anonymous": false,
      "inputs": [
        {
          "indexed": false,
          "internalType": "uint8",
          "name": "version",
          "type": "uint8"
        }
      ],
      "name": "Initialized",
      "type": "event"
    },
    {
      "anonymous": false,
      "inputs": [
        {
          "indexed": true,
          "internalType": "address",
          "name": "previousOwner",
          "type": "address"
        },
        {
          "indexed": true,
          "internalType": "address",
          "name": "newOwner",
          "type": "address"
        }
      ],
      "name": "OwnershipTransferred",
      "type": "event"
    },
    {
      "anonymous": false,
      "inputs": [
        {
          "indexed": false,
          "internalType": "address",
          "name": "account",
          "type": "address"
        }
      ],
      "name": "Paused",
      "type": "event"
    },
    {
      "anonymous": false,
      "inputs": [
        {
          "indexed": true,
          "internalType": "uint256",
          "name": "escrowId",
          "type": "uint256"
        },
        {
          "indexed": false,
          "internalType": "address",
          "name": "oldAddress",
          "type": "address"
        },
        {
          "indexed": false,
          "internalType": "address",
          "name": "newAddress",
          "type": "address"
        },
        {
          "indexed": false,
          "internalType": "uint256",
          "name": "timestamp",
          "type": "uint256"
        }
      ],
      "name": "SequentialAddressUpdated",
      "type": "event"
    },
    {
      "anonymous": false,
      "inputs": [
        {
          "indexed": false,
          "internalType": "address",
          "name": "account",
          "type": "address"
        }
      ],
      "name": "Unpaused",
      "type": "event"
    },
    {
      "anonymous": false,
      "inputs": [
        {
          "indexed": true,
          "internalType": "address",
          "name": "implementation",
          "type": "address"
        }
      ],
      "name": "Upgraded",
      "type": "event"
    },
    {
      "inputs": [],
      "name": "ARBITRATION_DURATION",
      "outputs": [
        {
          "internalType": "uint256",
          "name": "",
          "type": "uint256"
        }
      ],
      "stateMutability": "view",
      "type": "function"
    },
    {
      "inputs": [],
      "name": "DEPOSIT_DURATION",
      "outputs": [
        {
          "internalType": "uint256",
          "name": "",
          "type": "uint256"
        }
      ],
      "stateMutability": "view",
      "type": "function"
    },
    {
      "inputs": [],
      "name": "DISPUTE_RESPONSE_DURATION",
      "outputs": [
        {
          "internalType": "uint256",
          "name": "",
          "type": "uint256"
        }
      ],
      "stateMutability": "view",
      "type": "function"
    },
    {
      "inputs": [],
      "name": "FIAT_DURATION",
      "outputs": [
        {
          "internalType": "uint256",
          "name": "",
          "type": "uint256"
        }
      ],
      "stateMutability": "view",
      "type": "function"
    },
    {
      "inputs": [],
      "name": "MAX_AMOUNT",
      "outputs": [
        {
          "internalType": "uint256",
          "name": "",
          "type": "uint256"
        }
      ],
      "stateMutability": "view",
      "type": "function"
    },
    {
      "inputs": [],
      "name": "VERSION",
      "outputs": [
        {
          "internalType": "string",
          "name": "",
          "type": "string"
        }
      ],
      "stateMutability": "view",
      "type": "function"
    },
    {
      "inputs": [
        {
          "internalType": "uint256",
          "name": "_escrowId",
          "type": "uint256"
        }
      ],
      "name": "autoCancel",
      "outputs": [],
      "stateMutability": "nonpayable",
      "type": "function"
    },
    {
      "inputs": [
        {
          "internalType": "uint256",
          "name": "_escrowId",
          "type": "uint256"
        }
      ],
      "name": "cancelEscrow",
      "outputs": [],
      "stateMutability": "nonpayable",
      "type": "function"
    },
    {
      "inputs": [
        {
          "internalType": "uint256",
          "name": "_tradeId",
          "type": "uint256"
        },
        {
          "internalType": "address",
          "name": "_buyer",
          "type": "address"
        },
        {
          "internalType": "uint256",
          "name": "_amount",
          "type": "uint256"
        },
        {
          "internalType": "bool",
          "name": "_sequential",
          "type": "bool"
        },
        {
          "internalType": "address",
          "name": "_sequentialEscrowAddress",
          "type": "address"
        }
      ],
      "name": "createEscrow",
      "outputs": [
        {
          "internalType": "uint256",
          "name": "",
          "type": "uint256"
        }
      ],
      "stateMutability": "nonpayable",
      "type": "function"
    },
    {
      "inputs": [
        {
          "internalType": "uint256",
          "name": "_escrowId",
          "type": "uint256"
        }
      ],
      "name": "defaultJudgment",
      "outputs": [],
      "stateMutability": "nonpayable",
      "type": "function"
    },
    {
      "inputs": [
        {
          "internalType": "uint256",
          "name": "",
          "type": "uint256"
        }
      ],
      "name": "escrowBalances",
      "outputs": [
        {
          "internalType": "uint256",
          "name": "",
          "type": "uint256"
        }
      ],
      "stateMutability": "view",
      "type": "function"
    },
    {
      "inputs": [
        {
          "internalType": "uint256",
          "name": "",
          "type": "uint256"
        }
      ],
      "name": "escrows",
      "outputs": [
        {
          "internalType": "uint256",
          "name": "escrow_id",
          "type": "uint256"
        },
        {
          "internalType": "uint256",
          "name": "trade_id",
          "type": "uint256"
        },
        {
          "internalType": "address",
          "name": "seller",
          "type": "address"
        },
        {
          "internalType": "address",
          "name": "buyer",
          "type": "address"
        },
        {
          "internalType": "address",
          "name": "arbitrator",
          "type": "address"
        },
        {
          "internalType": "uint256",
          "name": "amount",
          "type": "uint256"
        },
        {
          "internalType": "uint256",
          "name": "deposit_deadline",
          "type": "uint256"
        },
        {
          "internalType": "uint256",
          "name": "fiat_deadline",
          "type": "uint256"
        },
        {
          "internalType": "enum YapBayEscrow.EscrowState",
          "name": "state",
          "type": "uint8"
        },
        {
          "internalType": "bool",
          "name": "sequential",
          "type": "bool"
        },
        {
          "internalType": "address",
          "name": "sequential_escrow_address",
          "type": "address"
        },
        {
          "internalType": "bool",
          "name": "fiat_paid",
          "type": "bool"
        },
        {
          "internalType": "uint256",
          "name": "counter",
          "type": "uint256"
        },
        {
          "internalType": "address",
          "name": "dispute_initiator",
          "type": "address"
        },
        {
          "internalType": "uint256",
          "name": "dispute_bond_buyer",
          "type": "uint256"
        },
        {
          "internalType": "uint256",
          "name": "dispute_bond_seller",
          "type": "uint256"
        },
        {
          "internalType": "uint256",
          "name": "dispute_initiated_time",
          "type": "uint256"
        },
        {
          "internalType": "bytes32",
          "name": "dispute_evidence_hash_buyer",
          "type": "bytes32"
        },
        {
          "internalType": "bytes32",
          "name": "dispute_evidence_hash_seller",
          "type": "bytes32"
        },
        {
          "internalType": "bytes32",
          "name": "dispute_resolution_hash",
          "type": "bytes32"
        }
      ],
      "stateMutability": "view",
      "type": "function"
    },
    {
      "inputs": [],
      "name": "fixedArbitrator",
      "outputs": [
        {
          "internalType": "address",
          "name": "",
          "type": "address"
        }
      ],
      "stateMutability": "view",
      "type": "function"
    },
    {
      "inputs": [
        {
          "internalType": "uint256",
          "name": "_escrowId",
          "type": "uint256"
        }
      ],
      "name": "fundEscrow",
      "outputs": [],
      "stateMutability": "nonpayable",
      "type": "function"
    },
    {
      "inputs": [
        {
          "internalType": "uint256",
          "name": "_escrowId",
          "type": "uint256"
        }
      ],
      "name": "getCalculatedEscrowBalance",
      "outputs": [
        {
          "internalType": "uint256",
          "name": "",
          "type": "uint256"
        }
      ],
      "stateMutability": "view",
      "type": "function"
    },
    {
      "inputs": [
        {
          "internalType": "uint256",
          "name": "_escrowId",
          "type": "uint256"
        }
      ],
      "name": "getSequentialEscrowInfo",
      "outputs": [
        {
          "internalType": "bool",
          "name": "isSequential",
          "type": "bool"
        },
        {
          "internalType": "address",
          "name": "sequentialAddress",
          "type": "address"
        },
        {
          "internalType": "uint256",
          "name": "sequentialBalance",
          "type": "uint256"
        },
        {
          "internalType": "bool",
          "name": "wasReleased",
          "type": "bool"
        }
      ],
      "stateMutability": "view",
      "type": "function"
    },
    {
      "inputs": [
        {
          "internalType": "uint256",
          "name": "_escrowId",
          "type": "uint256"
        }
      ],
      "name": "getStoredEscrowBalance",
      "outputs": [
        {
          "internalType": "uint256",
          "name": "",
          "type": "uint256"
        }
      ],
      "stateMutability": "view",
      "type": "function"
    },
    {
      "inputs": [
        {
          "internalType": "contract IERC20Upgradeable",
          "name": "_usdc",
          "type": "address"
        },
        {
          "internalType": "address",
          "name": "_arbitrator",
          "type": "address"
        }
      ],
      "name": "initialize",
      "outputs": [],
      "stateMutability": "nonpayable",
      "type": "function"
    },
    {
      "inputs": [
        {
          "internalType": "uint256",
          "name": "_escrowId",
          "type": "uint256"
        }
      ],
      "name": "isEligibleForAutoCancel",
      "outputs": [
        {
          "internalType": "bool",
          "name": "",
          "type": "bool"
        }
      ],
      "stateMutability": "view",
      "type": "function"
    },
    {
      "inputs": [
        {
          "internalType": "uint256",
          "name": "_escrowId",
          "type": "uint256"
        }
      ],
      "name": "markFiatPaid",
      "outputs": [],
      "stateMutability": "nonpayable",
      "type": "function"
    },
    {
      "inputs": [],
      "name": "nextEscrowId",
      "outputs": [
        {
          "internalType": "uint256",
          "name": "",
          "type": "uint256"
        }
      ],
      "stateMutability": "view",
      "type": "function"
    },
    {
      "inputs": [
        {
          "internalType": "uint256",
          "name": "_escrowId",
          "type": "uint256"
        },
        {
          "internalType": "bytes32",
          "name": "evidenceHash",
          "type": "bytes32"
        }
      ],
      "name": "openDisputeWithBond",
      "outputs": [],
      "stateMutability": "nonpayable",
      "type": "function"
    },
    {
      "inputs": [],
      "name": "owner",
      "outputs": [
        {
          "internalType": "address",
          "name": "",
          "type": "address"
        }
      ],
      "stateMutability": "view",
      "type": "function"
    },
    {
      "inputs": [],
      "name": "paused",
      "outputs": [
        {
          "internalType": "bool",
          "name": "",
          "type": "bool"
        }
      ],
      "stateMutability": "view",
      "type": "function"
    },
    {
      "inputs": [],
      "name": "proxiableUUID",
      "outputs": [
        {
          "internalType": "bytes32",
          "name": "",
          "type": "bytes32"
        }
      ],
      "stateMutability": "view",
      "type": "function"
    },
    {
      "inputs": [
        {
          "internalType": "uint256",
          "name": "_escrowId",
          "type": "uint256"
        }
      ],
      "name": "releaseEscrow",
      "outputs": [],
      "stateMutability": "nonpayable",
      "type": "function"
    },
    {
      "inputs": [],
      "name": "renounceOwnership",
      "outputs": [],
      "stateMutability": "nonpayable",
      "type": "function"
    },
    {
      "inputs": [
        {
          "internalType": "uint256",
          "name": "_escrowId",
          "type": "uint256"
        },
        {
          "internalType": "bool",
          "name": "decision",
          "type": "bool"
        },
        {
          "internalType": "bytes32",
          "name": "explanationHash",
          "type": "bytes32"
        }
      ],
      "name": "resolveDisputeWithExplanation",
      "outputs": [],
      "stateMutability": "nonpayable",
      "type": "function"
    },
    {
      "inputs": [
        {
          "internalType": "uint256",
          "name": "_escrowId",
          "type": "uint256"
        },
        {
          "internalType": "bytes32",
          "name": "evidenceHash",
          "type": "bytes32"
        }
      ],
      "name": "respondToDisputeWithBond",
      "outputs": [],
      "stateMutability": "nonpayable",
      "type": "function"
    },
    {
      "inputs": [
        {
          "internalType": "address",
          "name": "newOwner",
          "type": "address"
        }
      ],
      "name": "transferOwnership",
      "outputs": [],
      "stateMutability": "nonpayable",
      "type": "function"
    },
    {
      "inputs": [
        {
          "internalType": "uint256",
          "name": "_escrowId",
          "type": "uint256"
        },
        {
          "internalType": "address",
          "name": "newSequentialAddress",
          "type": "address"
        }
      ],
      "name": "updateSequentialAddress",
      "outputs": [],
      "stateMutability": "nonpayable",
      "type": "function"
    },
    {
      "inputs": [
        {
          "internalType": "address",
          "name": "newImplementation",
          "type": "address"
        }
      ],
      "name": "upgradeTo",
      "outputs": [],
      "stateMutability": "nonpayable",
      "type": "function"
    },
    {
      "inputs": [
        {
          "internalType": "address",
          "name": "newImplementation",
          "type": "address"
        },
        {
          "internalType": "bytes",
          "name": "data",
          "type": "bytes"
        }
      ],
      "name": "upgradeToAndCall",
      "outputs": [],
      "stateMutability": "payable",
      "type": "function"
    },
    {
      "inputs": [],
      "name": "usdc",
      "outputs": [
        {
          "internalType": "contract IERC20Upgradeable",
          "name": "",
          "type": "address"
        }
      ],
      "stateMutability": "view",
      "type": "function"
    }
  ],
  "bytecode": "0x60a08060405234610031573060805261367390816100378239608051818181611b8401528181611cb201526122000152f35b600080fdfe6080604052600436101561001257600080fd5b60003560e01c8063012f52ee14612a5657806306ba0473146127a657806306ce1f311461275f5780630dff3c05146127425780632e2c7770146123af5780633659cfe6146121dc5780633728ae93146121bf5780633e413bee1461219557806343ebf45a14612168578063462b117414612140578063485cc95514611ef35780634f1ef28614611c3557806352d1902d14611b7157806357c2fe51146117645780635c975abb1461174157806365387eae146112735780636f7a82b9146110af578063715018a61461105257806389cb29dd146110335780638da5cb5b1461100a5780639c3df60914610f0a578063a3c23f2d14610ec6578063a8db2e4814610c34578063b1f8b4a514610c16578063c9c31af514610a86578063d40dc87014610a67578063da0f52c31461084d578063dc747d3614610827578063e018243614610547578063e84941d71461051d578063ed65316414610278578063f05b223b1461025a578063f2fde38b146101cb5763ffa1ad741461019257600080fd5b346101c65760003660031901126101c6576101c26101ae612c52565b604051918291602083526020830190612c73565b0390f35b600080fd5b346101c65760203660031901126101c6576101e4612b9a565b6101ec612cb3565b6001600160a01b038116156102065761020490612d0b565b005b60405162461bcd60e51b815260206004820152602660248201527f4f776e61626c653a206e6577206f776e657220697320746865207a65726f206160448201526564647265737360d01b6064820152608490fd5b346101c65760003660031901126101c65760206040516203f4808152f35b346101c6576020806003193601126101c6576004359061029661311a565b61029e61303e565b8160005261012e8152604060002060088101805460ff811660068110156105075760016102cb9114613082565b60028301546001600160a01b03919082163314806104fa575b80156104ec575b1561048f577f6aabd5958ac38c026e042f1f5e2c969e1bfa0ea0a77e4b5a1713648c10d3428460e06000805160206135de83398151915296946080969460028560ff8c9760081c1661047a575b60ff1916178255600986019061034e825461302f565b8255600086815261012f89526040812055825460081c60ff161561040b5761038a81806101305416945460101c169360058901948554916132fd565b6003600188015497015416915490549060405192835287830152604082015242606082015260a087820152601160a08201527073657175656e7469616c20657363726f7760781b60c0820152a35b604080519160008352820152600f60408201526e115cd8dc9bddc81c995b19585cd959608a1b6060820152a26001606555005b80925061013054169160016003880197610430838a54169560058301968754916132fd565b0154965416915490549060405192835287830152604082015242606082015260a087820152600f60a08201526e3234b932b1ba103a3790313abcb2b960891b60c0820152a36103d8565b61048a838260101c161515612fd3565b610338565b60405162461bcd60e51b815260048101869052602f60248201527f453130323a20556e617574686f72697a65642063616c6c6572206f722066696160448201526e1d081b9bdd0818dbdb999a5c9b5959608a1b6064820152608490fd5b5081610131541633146102eb565b5060ff8160b01c166102e4565b634e487b7160e01b600052602160045260246000fd5b346101c65760003660031901126101c657610131546040516001600160a01b039091168152602090f35b346101c6576020806003193601126101c65760043561056461311a565b61056c61303e565b8060005261012e8252604060002090600882019182549060ff82169360068510158061050757851593848015610819575b6105a690613082565b600284019660018060a01b03958689541693843314801561080b575b6105cb906130ce565b610507576107a7575b600114610655575b50509060008051602061361e8339815191529291600360ff1982541617905561064b6005600983019361060f855461302f565b80955560018401549754169201549160405193849342928590949392606092608083019660018060a01b03168352602083015260408201520152565b0390a36001606555005b60b01c60ff1661074e5760078301544211156106f85760008051602061361e83398151915294959661069661012f92866101305416906005870154916132fd565b866000525260006040812055846000805160206135de833981519152604051806106ec816080906000815260406020820152601060408201526f115cd8dc9bddc818d85b98d95b1b195960821b60608201520190565b0390a2859493876105dc565b60405162461bcd60e51b815260048101889052602860248201527f43616e6e6f742063616e63656c3a206669617420646561646c696e65206e6f7460448201526708195e1c1a5c995960c21b6064820152608490fd5b60405162461bcd60e51b815260048101889052602b60248201527f453130353a204669617420616c726561647920636f6e6669726d65642c20636160448201526a1b9b9bdd0818d85b98d95b60aa1b6064820152608490fd5b600685015442116105d45760405162461bcd60e51b8152600481018a9052602b60248201527f43616e6e6f742063616e63656c3a206465706f73697420646561646c696e652060448201526a1b9bdd08195e1c1a5c995960aa1b6064820152608490fd5b5061013154881633146105c2565b50600091506001871461059d565b346101c65760203660031901126101c6576020610845600435613493565b604051908152f35b346101c65761085b36612c3c565b9061086461311a565b61086c61303e565b8060005261012e60205260406000209160088301805460ff81169060068210156105075761089e600160ff9314613082565b60b01c1615610a145760028401546001600160a01b039190821633148015610a05575b6108ca906130ce565b600a850194828654166109c0576005810154916005830292808404600514901517156109aa577f63b279d01d638a4e3844510c8f326ce08dd550b151d5fdbc0a624e022e30be89946060946064600195049861092f8a83610130541630903390613170565b42600d860155336001600160601b0360a01b825416179055600384015416331460001461099a5787600b840155600e8301555b600460ff198254161790556009810161097b815461302f565b9055015493604051903382526020820152426040820152a36001606555005b87600c840155600f830155610962565b634e487b7160e01b600052601160045260246000fd5b60405162461bcd60e51b815260206004820152601960248201527f4469737075746520616c726561647920696e69746961746564000000000000006044820152606490fd5b506003850154821633146108c1565b60405162461bcd60e51b815260206004820152602560248201527f46696174206d75737420626520636f6e6669726d6564206265666f7265206469604482015264737075746560d81b6064820152608490fd5b346101c65760003660031901126101c65760206040516305f5e1008152f35b346101c6576020806003193601126101c65760043590610aa461311a565b610aac61303e565b8160005261012e815260406000206008810160ff815416600681101561050757610ad69015613082565b60028201546001600160a01b0390610af190821633146130ce565b60068301544211610bd1576101305416610b15600584019182549030903390613170565b54908460005261012f845281604060002055600160ff1982541617905561070842018042116109aa576000805160206135de833981519152938360409260076080960155867f704a954b0e2e8ee22559b7ff6660cd433c562a629f9b6336cdee0f28819c7e42606060016009850194610b8e865461302f565b809655015493865190888252868201524287820152a38151928352820152600d60408201526c115cd8dc9bddc8199d5b991959609a1b6060820152a26001606555005b60405162461bcd60e51b815260048101859052601e60248201527f453130333a204465706f73697420646561646c696e65206578706972656400006044820152606490fd5b346101c65760003660031901126101c657602060405162093a808152f35b346101c657610c4236612c3c565b610c4a61311a565b610c5261303e565b8160005260209061012e825260406000209160ff6008840154166006811015610507576004610c819114613082565b600a8301546003840180546001600160a01b039492908516908516818103610e10575050610cb68460028701541633146130ce565b600f850154610dbf575b600d8501546203f48081018091116109aa574211610d6c5760058501546005810290808204600514901517156109aa577f7c63ff3787c2ec512c29151b8c94d4c832ab30660df4127b99d2c684caab68db95606095606485930493610d2e8583610130541630903390613170565b54163314600014610d5c578083600b600e93015501555b604051923384528301526040820152a26001606555005b8083600c600f9301550155610d45565b60405162461bcd60e51b815260048101849052602560248201527f453131313a204469737075746520726573706f6e736520706572696f642065786044820152641c1a5c995960da1b6064820152608490fd5b60405162461bcd60e51b815260048101849052602360248201527f4469737075746520616c726561647920726573706f6e6465642062792073656c6044820152623632b960e91b6064820152608490fd5b6002870154861603610e8157610e279033146130ce565b600e85015415610cc05760405162461bcd60e51b815260048101849052602260248201527f4469737075746520616c726561647920726573706f6e6465642062792062757960448201526132b960f11b6064820152608490fd5b60405162461bcd60e51b815260048101859052601f60248201527f453130323a20496e76616c6964206469737075746520696e69746961746f72006044820152606490fd5b346101c65760203660031901126101c6576080610ee4600435613391565b6040805194151585526001600160a01b0390931660208501529183015215156060820152f35b346101c65760203660031901126101c657600435610f2661303e565b8060005261012e6020526040600020600881019081549160ff83166006811015610507576001610f569114613082565b610f6d60018060a01b0360038401541633146130ce565b60078201544211610fb9576001928360b01b9060ff60b01b19161790550154907f4c44299950f727bd3c64a8178218675f855ede424f39d96ccb70d780afc533b86020604051428152a3005b60405162461bcd60e51b815260206004820152602360248201527f453130343a2046696174207061796d656e7420646561646c696e6520657870696044820152621c995960ea1b6064820152608490fd5b346101c65760003660031901126101c6576033546040516001600160a01b039091168152602090f35b346101c65760003660031901126101c657602061012d54604051908152f35b346101c65760003660031901126101c65761106b612cb3565b603380546001600160a01b031981169091556000906001600160a01b03167f8be0079c531659141344cd1fd0a4f28419497f9722a3daafe3b4186f6b6457e08280a3005b346101c65760403660031901126101c6576004356110cb612bb0565b6110d361303e565b8160005261012e602052604060002090600882019182549260ff8460081c161561122e5760ff841660068110159081610507576002811415918261121f575b8261120b575b5050600392611129611141926132b1565b909201546001600160a01b03929033908416146130ce565b818316156111c757805462010000600160b01b031916601084901b62010000600160b01b03161790557f6bb0ff98b418d3c6a5262a7fd3de150c3df2e511f666c49a475a646db5cba06d926111c290604080516001600160a01b0360109390931c909416821684529316602083015242928201929092529081906060820190565b0390a2005b606460405162461bcd60e51b815260206004820152602060248201527f453130323a20496e76616c69642073657175656e7469616c20616464726573736044820152fd5b909150610507576005141582611129611118565b50600381141591506000611112565b60405162461bcd60e51b815260206004820152601e60248201527f453130363a20457363726f77206973206e6f742073657175656e7469616c00006044820152606490fd5b346101c65760a03660031901126101c65761128c612bb0565b6064351515606435036101c6576084356001600160a01b038116908190036101c6576112b661303e565b60443515611705576305f5e100604435116116b5576001600160a01b038216156116705760643561165f575b50604051610280810181811067ffffffffffffffff82111761164957604052600060c0820152600060e08201526000610100820152600061012082015260006101408201526000610160820152600061018082015260006101a082015260006101c082015260006101e0820152600061020082015260006102208201526000610240820152600061026082015261012d54808252600435602083015233604083015260018060a01b038316606083015260018060a01b036101315416608083015260443560a0830152610384420142116109aa57426103840160c0830152600060e08301819052610100830152606435158015610120840152611642576084355b60018060a01b03166101408301526000610160830152600061018083015260005261012e60205260406000209181518355602082015160018401556002830160018060a01b036040840151166001600160601b0360a01b8254161790556003830160018060a01b036060840151166001600160601b0360a01b8254161790556004830160018060a01b036080840151166001600160601b0360a01b82541617905560a0820151600584015560c0820151600684015560e0820151600784015561010082015160068110156105075760088481018054610120860151610140870151610160880151601082811b62010000600160b01b031693151590961b61ff001660ff979097166001600160b81b031990941693909317959095171790151560b01b60ff60b01b1617905561018084015160098601556101a0840151600a860180546001600160a01b0319166001600160a01b039283161790556101c0850151600b8701556101e0850151600c870155610200850151600d870155610220850151600e870155610240850151600f870155610260850151919095015561012d546101315460c085015160e08601516020976116359694959381169486947f8435b43a930399ced30edad681a8747e0a3fc89db7b40008860fbf063e417bee949193921691906115d0612c52565b966040519433865260018060a01b03168c86015260408501526044356060850152608084015260a0830152606435151560c083015260e0820152426101008201526101406101208201528061162d60043595610140830190612c73565b0390a361302f565b61012d5551604051908152f35b60006113e3565b634e487b7160e01b600052604160045260246000fd5b61166a901515612fd3565b816112e2565b60405162461bcd60e51b815260206004820152601b60248201527f453130323a20496e76616c6964206275796572206164647265737300000000006044820152606490fd5b60405162461bcd60e51b815260206004820152602260248201527f453130313a20416d6f756e742065786365656473206d6178696d756d206c696d6044820152611a5d60f21b6064820152608490fd5b60405162461bcd60e51b8152602060048201526014602482015273114c4c0c0e88125b9d985b1a5908185b5bdd5b9d60621b6044820152606490fd5b346101c65760003660031901126101c657602060ff609754166040519015158152f35b346101c6576020806003193601126101c6576004359061178261311a565b61178a61303e565b61013180546001600160a01b03906117a590821633146130ce565b8360005261012e8352604060002090600882019160ff83541660068110156105075760046117d39114613082565b600d8101546203f48081018091116109aa574210611b2c57908593929181600a8201541690600381019183835416811480611b20575b156119b1575092828083600960a099977f4cd6838d4e78d26429c83df21624d2541bae7b67454aa056b2f17d1d8ae6cabb976000805160206135de8339815191529c9a9754169560405161185c81612be2565b6015815274109d5e595c881dda5b9cc8189e48191959985d5b1d605a1b8c8201529760ff825460081c16600014611997576118a886610130541687845460101c166005860154916132fd565b600b8301548061197d575b50600c83015480611962575b50505b8960005261012f8b5260006040812055600560ff19825416179055016118e8815461302f565b905554169116146119116040519283928352600087840152606060408401526060830190612c73565b0390a2604080519160008352820152602460408201527f44697370757465207265736f6c7665642062792064656661756c74206a7564676060820152631b595b9d60e21b6080820152a26001606555005b6119769187806101305416915416906132fd565b8e806118bf565b6119919087610130541688885416906132fd565b8f6118b3565b6119ac866101305416896005860154916132fd565b6118a8565b955090919260028201958487541680911480611b14575b15611aa95793807f4cd6838d4e78d26429c83df21624d2541bae7b67454aa056b2f17d1d8ae6cabb94600960a099956000805160206135de8339815191529b9995898e9a978c7514d95b1b195c881dda5b9cc8189e48191959985d5b1d60521b60405191611a3583612be2565b6016835282015299611a546101309389855416906005880154916132fd565b600c85015480611a90575b5050600b840154908782611a77575b505050506118c2565b80611a87945416915416906132fd565b8e808087611a6e565b611aa2918980865416915416906132fd565b3880611a5f565b60405162461bcd60e51b815260048101899052603960248201527f43616e6e6f74206170706c792064656661756c74206a7564676d656e7420776860448201527f656e20626f7468207061727469657320726573706f6e646564000000000000006064820152608490fd5b50600e830154156119c8565b50600f82015415611809565b60405162461bcd60e51b815260048101869052601b60248201527f526573706f6e736520706572696f64206e6f74206578706972656400000000006044820152606490fd5b346101c65760003660031901126101c6577f00000000000000000000000000000000000000000000000000000000000000006001600160a01b03163003611bca5760206040516000805160206135fe8339815191528152f35b60405162461bcd60e51b815260206004820152603860248201527f555550535570677261646561626c653a206d757374206e6f742062652063616c60448201527f6c6564207468726f7567682064656c656761746563616c6c00000000000000006064820152608490fd5b60403660031901126101c657611c49612b9a565b6024359067ffffffffffffffff82116101c657366023830112156101c6578160040135611c7581612c20565b92611c836040519485612bfe565b8184526020918285019136602483830101116101c6578160009260248693018537860101526001600160a01b037f0000000000000000000000000000000000000000000000000000000000000000811690611ce030831415612d54565b611cfd6000805160206135fe833981519152928284541614612db5565b611d05612cb3565b7f4910fdfa16fed3260ed0e7147f7cc6da11a60208b5b9406d12a635614ffd91435460ff1615611d3d57505050506102049150612e16565b84939416906040516352d1902d60e01b81528581600481865afa60009181611ec4575b50611dc15760405162461bcd60e51b815260048101879052602e60248201527f45524331393637557067726164653a206e657720696d706c656d656e7461746960448201526d6f6e206973206e6f74205555505360901b6064820152608490fd5b03611e6d57611dcf83612e16565b7fbc7cd75a20ee27fd9adebab32041f755214dbc6bffa90cc0225b39da2e5c2d3b600080a2835115801590611e65575b611e0557005b60008091610204957f416464726573733a206c6f772d6c6576656c2064656c65676174652063616c6c60405196611e3b88612bc6565b60278852870152660819985a5b195960ca1b60408701525190845af4611e5f612ea6565b91612ed6565b506001611dff565b60405162461bcd60e51b815260048101859052602960248201527f45524331393637557067726164653a20756e737570706f727465642070726f786044820152681a58589b195555525160ba1b6064820152608490fd5b9091508681813d8311611eec575b611edc8183612bfe565b810103126101c657519088611d60565b503d611ed2565b346101c65760403660031901126101c6576001600160a01b03600435818116908190036101c657611f22612bb0565b906000549260ff8460081c161592838094612133575b801561211c575b156120c05760ff1985811660011760005594846120ae575b50611f7260ff60005460081c16611f6d81612f73565b612f73565b611f7b33612d0b565b611fbf6000549560ff8760081c1690611f9382612f73565b611f9c82612f73565b6001606555611faa82612f73565b611fb382612f73565b60975416609755612f73565b82156120725716801561202e576001600160601b0360a01b91610130908382541617905561013191825416179055600161012d55611ff957005b61ff0019166000557f7f26b83ff96e1f2b6a682f133852f6798a09c465da95921460cefb3847402498602060405160018152a1005b606460405162461bcd60e51b815260206004820152602060248201527f453130323a20496e76616c69642061726269747261746f7220616464726573736044820152fd5b60405162461bcd60e51b8152602060048201526014602482015273496e76616c69642055534443206164647265737360601b6044820152606490fd5b61ffff19166101011760005585611f57565b60405162461bcd60e51b815260206004820152602e60248201527f496e697469616c697a61626c653a20636f6e747261637420697320616c72656160448201526d191e481a5b9a5d1a585b1a5e995960921b6064820152608490fd5b50303b158015611f3f5750600160ff861614611f3f565b50600160ff861610611f38565b346101c65760203660031901126101c657602061215e600435613521565b6040519015158152f35b346101c65760203660031901126101c65760043560005261012f6020526020604060002054604051908152f35b346101c65760003660031901126101c657610130546040516001600160a01b039091168152602090f35b346101c65760003660031901126101c65760206040516103848152f35b346101c6576020806003193601126101c6576121f6612b9a565b6001600160a01b037f00000000000000000000000000000000000000000000000000000000000000008116929061222f30851415612d54565b61224c6000805160206135fe833981519152948286541614612db5565b612254612cb3565b604051938285019185831067ffffffffffffffff84111761164957826040526000865260ff7f4910fdfa16fed3260ed0e7147f7cc6da11a60208b5b9406d12a635614ffd914354166000146122b157505050506102049150612e16565b84939416906040516352d1902d60e01b81528581600481865afa60009181612380575b506123355760405162461bcd60e51b815260048101879052602e60248201527f45524331393637557067726164653a206e657720696d706c656d656e7461746960448201526d6f6e206973206e6f74205555505360901b6064820152608490fd5b03611e6d5761234383612e16565b7fbc7cd75a20ee27fd9adebab32041f755214dbc6bffa90cc0225b39da2e5c2d3b600080a283511580159061237857611e0557005b506000611dff565b9091508681813d83116123a8575b6123988183612bfe565b810103126101c6575190886122d4565b503d61238e565b346101c65760603660031901126101c6576004356024358015158082036101c657604435906123dc61311a565b6123e461303e565b60018060a01b03926101316123fd8582541633146130ce565b8560005260209461012e8652604060002091600883019360ff855416600681101561050757600461242e9114613082565b600d8401546203f4808101908181116109aa57620d2f00018091116109aa5742116126f157889460098589956000805160206135de8339815191529b99956125859560809c60107f4cd6838d4e78d26429c83df21624d2541bae7b67454aa056b2f17d1d8ae6cabb9b015560001461262157845460081c60ff1615612601576124c882610130541683875460101c166005860154916132fd565b600b830154806125e4575b50600c83015490816125c9575b5050506040516124ef81612bc6565b603a81527f42757965722077696e733a20627579657220626f6e642072657475726e65642c8a8201527f2073656c6c657220626f6e6420746f2061726269747261746f720000000000006040820152925b8860005261012f8a5260006040812055600560ff1982541617905501612566815461302f565b9055604051938493845287840152606060408401526060830190612c73565b0390a2604080519160008352820152601f60408201527f44697370757465207265736f6c766564206279206172626974726174696f6e006060820152a26001606555005b826125dc936101305416915416906132fd565b8c80806124e0565b6125fb9083610130541684600387015416906132fd565b8e6124d3565b61261c826101305416836003860154166005860154916132fd565b6124c8565b9061013091818354166126416002860191848354166005880154916132fd565b600c850154806126d8575b5050600b84015491826126bf575b5050505060405161266a81612bc6565b603b81527f53656c6c65722077696e733a2073656c6c657220626f6e642072657475726e658a8201527f642c20627579657220626f6e6420746f2061726269747261746f720000000000604082015292612540565b806126cf945416915416906132fd565b8c80808061265a565b6126ea918480875416915416906132fd565b8f8061264c565b60405162461bcd60e51b815260048101899052602360248201527f453131333a204172626974726174696f6e20646561646c696e6520657863656560448201526219195960ea1b6064820152608490fd5b346101c65760003660031901126101c65760206040516107088152f35b346101c65760203660031901126101c6576004358060005261012e60205261278d816040600020541461334d565b60005261012f6020526020604060002054604051908152f35b346101c6576020806003193601126101c6576004356127c361311a565b6127cb61303e565b610131546001600160a01b0391906127e690831633146130ce565b8060005261012e8352604060002060088101805460ff811660068110158061050757600282141580612a47575b819080612a37575b61282591506132b1565b6105075780156129e7575b6001146128a8575b50805460ff1916600317905560098101805460008051602061361e83398151915292906128649061302f565b918290556001810154600282015460059092015460408051979093166001600160a01b0316875260208701529085019190915242606085015292806080810161064b565b60b01c60ff1661299457600782015442111561294f5761012f84956128ee60008051602061361e83398151915295966101305416886002870154166005870154916132fd565b856000525260006040812055836000805160206135de83398151915260405180612944816080906000815260406020820152601060408201526f115cd8dc9bddc818d85b98d95b1b195960821b60608201520190565b0390a2849392612838565b60405162461bcd60e51b815260048101869052601960248201527f4669617420646561646c696e65206e6f742065787069726564000000000000006044820152606490fd5b60405162461bcd60e51b815260048101869052602560248201527f4669617420616c726561647920706169643b2063616e6e6f74206175746f2d63604482015264185b98d95b60da1b6064820152608490fd5b600684015442116128305760405162461bcd60e51b815260048101889052601c60248201527f4465706f73697420646561646c696e65206e6f742065787069726564000000006044820152606490fd5b506105075780600583141561281b565b50600090506003821415612813565b346101c65760203660031901126101c65760043560005261012e6020526040600020805490808080808080808080808080600181015460018060a01b03600283015416906010600f600e600d600c600b600960086007600660058d600360018060a01b03910154169d600460018060a01b03910154169e01549e01549e01549e01549e01549e600a60018060a01b03910154169f01549f01549f01549f01549f01549f01549f608052602060800152604060800152606060800152608080015260a06080015260c06080015260e06080015260ff8116906006821015610507576101809190915260ff600882901c811615156101a0526001600160a01b03601083901c166101c05260b09190911c1615156101e052610200526102205261024052610260526102809081526102a0919091526102c0919091526102e0919091526080f35b600435906001600160a01b03821682036101c657565b602435906001600160a01b03821682036101c657565b6060810190811067ffffffffffffffff82111761164957604052565b6040810190811067ffffffffffffffff82111761164957604052565b90601f8019910116810190811067ffffffffffffffff82111761164957604052565b67ffffffffffffffff811161164957601f01601f191660200190565b60409060031901126101c6576004359060243590565b60405190612c5f82612be2565b6005825264302e312e3160d81b6020830152565b919082519283825260005b848110612c9f575050826000602080949584010152601f8019910116010190565b602081830181015184830182015201612c7e565b6033546001600160a01b03163303612cc757565b606460405162461bcd60e51b815260206004820152602060248201527f4f776e61626c653a2063616c6c6572206973206e6f7420746865206f776e65726044820152fd5b603380546001600160a01b039283166001600160a01b0319821681179092559091167f8be0079c531659141344cd1fd0a4f28419497f9722a3daafe3b4186f6b6457e0600080a3565b15612d5b57565b60405162461bcd60e51b815260206004820152602c60248201527f46756e6374696f6e206d7573742062652063616c6c6564207468726f7567682060448201526b19195b1959d85d1958d85b1b60a21b6064820152608490fd5b15612dbc57565b60405162461bcd60e51b815260206004820152602c60248201527f46756e6374696f6e206d7573742062652063616c6c6564207468726f7567682060448201526b6163746976652070726f787960a01b6064820152608490fd5b803b15612e4b576000805160206135fe83398151915280546001600160a01b0319166001600160a01b03909216919091179055565b60405162461bcd60e51b815260206004820152602d60248201527f455243313936373a206e657720696d706c656d656e746174696f6e206973206e60448201526c1bdd08184818dbdb9d1c9858dd609a1b6064820152608490fd5b3d15612ed1573d90612eb782612c20565b91612ec56040519384612bfe565b82523d6000602084013e565b606090565b91929015612f385750815115612eea575090565b3b15612ef35790565b60405162461bcd60e51b815260206004820152601d60248201527f416464726573733a2063616c6c20746f206e6f6e2d636f6e74726163740000006044820152606490fd5b825190915015612f4b5750805190602001fd5b60405162461bcd60e51b815260206004820152908190612f6f906024830190612c73565b0390fd5b15612f7a57565b60405162461bcd60e51b815260206004820152602b60248201527f496e697469616c697a61626c653a20636f6e7472616374206973206e6f74206960448201526a6e697469616c697a696e6760a81b6064820152608490fd5b15612fda57565b60405162461bcd60e51b815260206004820152602760248201527f453130363a204d697373696e672073657175656e7469616c20657363726f77206044820152666164647265737360c81b6064820152608490fd5b60001981146109aa5760010190565b60ff6097541661304a57565b60405162461bcd60e51b815260206004820152601060248201526f14185d5cd8589b194e881c185d5cd95960821b6044820152606490fd5b1561308957565b60405162461bcd60e51b815260206004820152601e60248201527f453130353a20496e76616c6964207374617465207472616e736974696f6e00006044820152606490fd5b156130d557565b60405162461bcd60e51b815260206004820152601960248201527f453130323a20556e617574686f72697a65642063616c6c6572000000000000006044820152606490fd5b60026065541461312b576002606555565b60405162461bcd60e51b815260206004820152601f60248201527f5265656e7472616e637947756172643a207265656e7472616e742063616c6c006044820152606490fd5b6040516323b872dd60e01b60208201526001600160a01b0392831660248201529290911660448301526064808301939093529181526131b9916131b4608483612bfe565b6131bb565b565b60018060a01b0316906132146040516131d381612be2565b6020938482527f5361666545524332303a206c6f772d6c6576656c2063616c6c206661696c6564858301526000808587829751910182855af1611e5f612ea6565b805191821591848315613286575b50505090501561322f5750565b6084906040519062461bcd60e51b82526004820152602a60248201527f5361666545524332303a204552433230206f7065726174696f6e20646964206e6044820152691bdd081cdd58d8d9595960b21b6064820152fd5b9193818094500103126132ad578201519081151582036132aa575080388084613222565b80fd5b5080fd5b156132b857565b60405162461bcd60e51b815260206004820152601e60248201527f453130373a20457363726f7720696e207465726d696e616c20737461746500006044820152606490fd5b60405163a9059cbb60e01b60208201526001600160a01b039092166024830152604480830193909352918152608081019167ffffffffffffffff831182841017611649576131b9926040526131bb565b1561335457565b60405162461bcd60e51b8152602060048201526015602482015274115cd8dc9bddc8191bd95cc81b9bdd08195e1a5cdd605a1b6044820152606490fd5b90600860009280845261012e6020526133b0604085209182541461334d565b015460ff8160081c168061347d575b6133cb57508180918190565b9160249160018060a01b03936020858260101c16956101305416604051958680926370a0823160e01b82528960048301525afa93841561347257839461343a575b5060ff169160068310156134265750600260019493921490565b634e487b7160e01b81526021600452602490fd5b9093506020813d821161346a575b8161345560209383612bfe565b8101031261346657519260ff61340c565b8280fd5b3d9150613448565b6040513d85823e3d90fd5b50601081901c6001600160a01b031615156133bf565b60009080825261012e6020526134af604083209182541461334d565b60ff60088201541660068110158061350d57600182148015613501575b156134dc57505060059150015490565b9091506134ed576134ea5790565b90565b634e487b7160e01b82526021600452602482fd5b505082600482146134cc565b634e487b7160e01b84526021600452602484fd5b600090815261012e602052604081208054156135d957600881015460ff81166006811015806135b9576002821480156135cd575b8181156135a9575b506135a25761350d5780156135955760011461357857505090565b60b01c60ff161591508161358a575090565b600791500154421190565b5050600691500154421190565b5050505090565b90506135b957600582148161355d565b634e487b7160e01b85526021600452602485fd5b50508360038214613555565b509056fefc642d8ff4982e4968e4174bae7e68ad93fa2ad89224afd00e95ca8e8394385e360894a13ba1a3210667c828492db98dca3e2076cc3735a920a3ca505d382bbcfb14835202040f52d2f5515b2ab036c02aa8eaf2f18aab2c3772a04a8643489ba2646970667358221220c9bd668476b6c93f8b7f9d7459d80cae9e89df75b1bf2e252675f92a649440ba64736f6c63430008110033",
  "linkReferences": {},
  "deployedLinkReferences": {}
}