{
  "_format": "hh-sol-artifact-1",
  "contractName": "Account",
  "sourceName": "contracts/Account.sol",
  "abi": [
    {
      "anonymous": false,
      "inputs": [
        {
          "indexed": true,
          "internalType": "address",
          "name": "user",
          "type": "address"
        },
        {
          "indexed": true,
          "internalType": "uint256",
          "name": "userId",
          "type": "uint256"
        }
      ],
      "name": "UserProfileUpdated",
      "type": "event"
    },
    {
      "anonymous": false,
      "inputs": [
        {
          "indexed": true,
          "internalType": "address",
          "name": "user",
          "type": "address"
        },
        {
          "indexed": true,
          "internalType": "uint256",
          "name": "userId",
          "type": "uint256"
        }
      ],
      "name": "UserRegistered",
      "type": "event"
    },
    {
      "inputs": [
        {
          "internalType": "address",
          "name": "",
          "type": "address"
        }
      ],
      "name": "userBasicInfo",
      "outputs": [
        {
          "internalType": "uint256",
          "name": "userId",
          "type": "uint256"
        },
        {
          "internalType": "bytes32",
          "name": "userEmail",
          "type": "bytes32"
        },
        {
          "internalType": "bytes32",
          "name": "userChatHandle",
          "type": "bytes32"
        },
        {
          "internalType": "bytes32",
          "name": "userWebsite",
          "type": "bytes32"
        },
        {
          "internalType": "string",
          "name": "userAvatar",
          "type": "string"
        },
        {
          "internalType": "string",
          "name": "userRole",
          "type": "string"
        }
      ],
      "stateMutability": "view",
      "type": "function"
    },
    {
      "inputs": [],
      "name": "userCount",
      "outputs": [
        {
          "internalType": "uint256",
          "name": "",
          "type": "uint256"
        }
      ],
      "stateMutability": "view",
      "type": "function"
    },
    {
      "inputs": [
        {
          "internalType": "uint256",
          "name": "",
          "type": "uint256"
        }
      ],
      "name": "userIdToAddress",
      "outputs": [
        {
          "internalType": "address",
          "name": "",
          "type": "address"
        }
      ],
      "stateMutability": "view",
      "type": "function"
    },
    {
      "inputs": [
        {
          "internalType": "bytes32",
          "name": "_userEmail",
          "type": "bytes32"
        },
        {
          "internalType": "bytes32",
          "name": "_userChatHandle",
          "type": "bytes32"
        },
        {
          "internalType": "bytes32",
          "name": "_userWebsite",
          "type": "bytes32"
        },
        {
          "internalType": "string",
          "name": "_userAvatar",
          "type": "string"
        },
        {
          "internalType": "string",
          "name": "_userRole",
          "type": "string"
        }
      ],
      "name": "userReg",
      "outputs": [],
      "stateMutability": "nonpayable",
      "type": "function"
    },
    {
      "inputs": [
        {
          "internalType": "address",
          "name": "_user",
          "type": "address"
        }
      ],
      "name": "userReputationCalc",
      "outputs": [],
      "stateMutability": "nonpayable",
      "type": "function"
    },
    {
      "inputs": [
        {
          "internalType": "address",
          "name": "",
          "type": "address"
        }
      ],
      "name": "userStats",
      "outputs": [
        {
          "internalType": "uint256",
          "name": "userReputationScore",
          "type": "uint256"
        },
        {
          "internalType": "uint256",
          "name": "userEndorsementsGiven",
          "type": "uint256"
        },
        {
          "internalType": "uint256",
          "name": "userEndorsementsReceived",
          "type": "uint256"
        },
        {
          "internalType": "uint256",
          "name": "userDisputesInitiated",
          "type": "uint256"
        },
        {
          "internalType": "uint256",
          "name": "userDisputesLost",
          "type": "uint256"
        },
        {
          "internalType": "uint256",
          "name": "userTotalTradesInitiated",
          "type": "uint256"
        },
        {
          "internalType": "uint256",
          "name": "userTotalTradesAccepted",
          "type": "uint256"
        },
        {
          "internalType": "uint256",
          "name": "userTotalTradesCompleted",
          "type": "uint256"
        },
        {
          "internalType": "uint256",
          "name": "userTotalTradeVolume",
          "type": "uint256"
        },
        {
          "internalType": "uint256",
          "name": "userAverageTradeVolume",
          "type": "uint256"
        },
        {
          "internalType": "uint256",
          "name": "userLastCompletedTradeDate",
          "type": "uint256"
        }
      ],
      "stateMutability": "view",
      "type": "function"
    },
    {
      "inputs": [
        {
          "internalType": "bytes32",
          "name": "_userEmail",
          "type": "bytes32"
        },
        {
          "internalType": "bytes32",
          "name": "_userChatHandle",
          "type": "bytes32"
        },
        {
          "internalType": "bytes32",
          "name": "_userWebsite",
          "type": "bytes32"
        },
        {
          "internalType": "string",
          "name": "_userAvatar",
          "type": "string"
        },
        {
          "internalType": "string",
          "name": "_userRole",
          "type": "string"
        }
      ],
      "name": "userUpdateProfile",
      "outputs": [],
      "stateMutability": "nonpayable",
      "type": "function"
    }
  ],
  "bytecode": "0x608060405234801561001057600080fd5b5061105b806100206000396000f3fe608060405234801561001057600080fd5b506004361061007d5760003560e01c80638a65d8741161005b5780638a65d874146100f1578063a20fb00e1461012b578063af10fec514610147578063b1695201146101635761007d565b806307973ccf146100825780632328aea6146100a05780637bb500e2146100d5575b600080fd5b61008a610193565b60405161009791906106e4565b60405180910390f35b6100ba60048036038101906100b59190610771565b610199565b6040516100cc96959493929190610847565b60405180910390f35b6100ef60048036038101906100ea9190610771565b6102e5565b005b61010b60048036038101906101069190610771565b6102e8565b6040516101229b9a999897969594939291906108b6565b60405180910390f35b61014560048036038101906101409190610ac2565b610342565b005b610161600480360381019061015c9190610ac2565b610543565b005b61017d60048036038101906101789190610ba1565b610698565b60405161018a9190610bdd565b60405180910390f35b60035481565b60006020528060005260406000206000915090508060000154908060010154908060020154908060030154908060040180546101d490610c27565b80601f016020809104026020016040519081016040528092919081815260200182805461020090610c27565b801561024d5780601f106102225761010080835404028352916020019161024d565b820191906000526020600020905b81548152906001019060200180831161023057829003601f168201915b50505050509080600501805461026290610c27565b80601f016020809104026020016040519081016040528092919081815260200182805461028e90610c27565b80156102db5780601f106102b0576101008083540402835291602001916102db565b820191906000526020600020905b8154815290600101906020018083116102be57829003601f168201915b5050505050905086565b50565b600160205280600052604060002060009150905080600001549080600101549080600201549080600301549080600401549080600501549080600601549080600701549080600801549080600901549080600a015490508b565b60008060003373ffffffffffffffffffffffffffffffffffffffff1673ffffffffffffffffffffffffffffffffffffffff16815260200190815260200160002060000154146103c6576040517f08c379a00000000000000000000000000000000000000000000000000000000081526004016103bd90610ca4565b60405180910390fd5b600360008154809291906103d990610cf3565b91905055506040518060c001604052806003548152602001868152602001858152602001848152602001838152602001828152506000803373ffffffffffffffffffffffffffffffffffffffff1673ffffffffffffffffffffffffffffffffffffffff1681526020019081526020016000206000820151816000015560208201518160010155604082015181600201556060820151816003015560808201518160040190816104889190610ee7565b5060a082015181600501908161049e9190610ee7565b509050503360026000600354815260200190815260200160002060006101000a81548173ffffffffffffffffffffffffffffffffffffffff021916908373ffffffffffffffffffffffffffffffffffffffff1602179055506003543373ffffffffffffffffffffffffffffffffffffffff167fe29d35093005f4d575e1003753426b57a7f64378ba73332eef9c6ccc2b8decd660405160405180910390a35050505050565b60008060003373ffffffffffffffffffffffffffffffffffffffff1673ffffffffffffffffffffffffffffffffffffffff16815260200190815260200160002060000154036105c7576040517f08c379a00000000000000000000000000000000000000000000000000000000081526004016105be90611005565b60405180910390fd5b60008060003373ffffffffffffffffffffffffffffffffffffffff1673ffffffffffffffffffffffffffffffffffffffff1681526020019081526020016000209050858160010181905550848160020181905550838160030181905550828160040190816106359190610ee7565b50818160050190816106479190610ee7565b5080600001543373ffffffffffffffffffffffffffffffffffffffff167f41ee65669409a0ac67e14c58fee5601cb71a227e78b60a97032cb150a8b6f4e560405160405180910390a3505050505050565b60026020528060005260406000206000915054906101000a900473ffffffffffffffffffffffffffffffffffffffff1681565b6000819050919050565b6106de816106cb565b82525050565b60006020820190506106f960008301846106d5565b92915050565b6000604051905090565b600080fd5b600080fd5b600073ffffffffffffffffffffffffffffffffffffffff82169050919050565b600061073e82610713565b9050919050565b61074e81610733565b811461075957600080fd5b50565b60008135905061076b81610745565b92915050565b60006020828403121561078757610786610709565b5b60006107958482850161075c565b91505092915050565b6000819050919050565b6107b18161079e565b82525050565b600081519050919050565b600082825260208201905092915050565b60005b838110156107f15780820151818401526020810190506107d6565b60008484015250505050565b6000601f19601f8301169050919050565b6000610819826107b7565b61082381856107c2565b93506108338185602086016107d3565b61083c816107fd565b840191505092915050565b600060c08201905061085c60008301896106d5565b61086960208301886107a8565b61087660408301876107a8565b61088360608301866107a8565b8181036080830152610895818561080e565b905081810360a08301526108a9818461080e565b9050979650505050505050565b6000610160820190506108cc600083018e6106d5565b6108d9602083018d6106d5565b6108e6604083018c6106d5565b6108f3606083018b6106d5565b610900608083018a6106d5565b61090d60a08301896106d5565b61091a60c08301886106d5565b61092760e08301876106d5565b6109356101008301866106d5565b6109436101208301856106d5565b6109516101408301846106d5565b9c9b505050505050505050505050565b61096a8161079e565b811461097557600080fd5b50565b60008135905061098781610961565b92915050565b600080fd5b600080fd5b7f4e487b7100000000000000000000000000000000000000000000000000000000600052604160045260246000fd5b6109cf826107fd565b810181811067ffffffffffffffff821117156109ee576109ed610997565b5b80604052505050565b6000610a016106ff565b9050610a0d82826109c6565b919050565b600067ffffffffffffffff821115610a2d57610a2c610997565b5b610a36826107fd565b9050602081019050919050565b82818337600083830152505050565b6000610a65610a6084610a12565b6109f7565b905082815260208101848484011115610a8157610a80610992565b5b610a8c848285610a43565b509392505050565b600082601f830112610aa957610aa861098d565b5b8135610ab9848260208601610a52565b91505092915050565b600080600080600060a08688031215610ade57610add610709565b5b6000610aec88828901610978565b9550506020610afd88828901610978565b9450506040610b0e88828901610978565b935050606086013567ffffffffffffffff811115610b2f57610b2e61070e565b5b610b3b88828901610a94565b925050608086013567ffffffffffffffff811115610b5c57610b5b61070e565b5b610b6888828901610a94565b9150509295509295909350565b610b7e816106cb565b8114610b8957600080fd5b50565b600081359050610b9b81610b75565b92915050565b600060208284031215610bb757610bb6610709565b5b6000610bc584828501610b8c565b91505092915050565b610bd781610733565b82525050565b6000602082019050610bf26000830184610bce565b92915050565b7f4e487b7100000000000000000000000000000000000000000000000000000000600052602260045260246000fd5b60006002820490506001821680610c3f57607f821691505b602082108103610c5257610c51610bf8565b5b50919050565b7f5573657220616c72656164792072656769737465726564000000000000000000600082015250565b6000610c8e6017836107c2565b9150610c9982610c58565b602082019050919050565b60006020820190508181036000830152610cbd81610c81565b9050919050565b7f4e487b7100000000000000000000000000000000000000000000000000000000600052601160045260246000fd5b6000610cfe826106cb565b91507fffffffffffffffffffffffffffffffffffffffffffffffffffffffffffffffff8203610d3057610d2f610cc4565b5b600182019050919050565b60008190508160005260206000209050919050565b60006020601f8301049050919050565b600082821b905092915050565b600060088302610d9d7fffffffffffffffffffffffffffffffffffffffffffffffffffffffffffffffff82610d60565b610da78683610d60565b95508019841693508086168417925050509392505050565b6000819050919050565b6000610de4610ddf610dda846106cb565b610dbf565b6106cb565b9050919050565b6000819050919050565b610dfe83610dc9565b610e12610e0a82610deb565b848454610d6d565b825550505050565b600090565b610e27610e1a565b610e32818484610df5565b505050565b5b81811015610e5657610e4b600082610e1f565b600181019050610e38565b5050565b601f821115610e9b57610e6c81610d3b565b610e7584610d50565b81016020851015610e84578190505b610e98610e9085610d50565b830182610e37565b50505b505050565b600082821c905092915050565b6000610ebe60001984600802610ea0565b1980831691505092915050565b6000610ed78383610ead565b9150826002028217905092915050565b610ef0826107b7565b67ffffffffffffffff811115610f0957610f08610997565b5b610f138254610c27565b610f1e828285610e5a565b600060209050601f831160018114610f515760008415610f3f578287015190505b610f498582610ecb565b865550610fb1565b601f198416610f5f86610d3b565b60005b82811015610f8757848901518255600182019150602085019450602081019050610f62565b86831015610fa45784890151610fa0601f891682610ead565b8355505b6001600288020188555050505b505050505050565b7f55736572206e6f74207265676973746572656400000000000000000000000000600082015250565b6000610fef6013836107c2565b9150610ffa82610fb9565b602082019050919050565b6000602082019050818103600083015261101e81610fe2565b905091905056fea26469706673582212208736112e5a932e5aceeda242b290cd383d9bddcc122da225337e4ceb67100b4e64736f6c63430008180033",
  "linkReferences": {},
  "deployedLinkReferences": {}
}