{
  "_format": "hh-sol-artifact-1",
  "contractName": "Account",
  "sourceName": "contracts/Account.sol",
  "abi": [
    {
      "inputs": [
        {
          "internalType": "address",
          "name": "_registryAddress",
          "type": "address"
        }
      ],
      "stateMutability": "nonpayable",
      "type": "constructor"
    },
    {
      "anonymous": false,
      "inputs": [
        {
          "indexed": true,
          "internalType": "address",
          "name": "user",
          "type": "address"
        }
      ],
      "name": "DisputeInitiated",
      "type": "event"
    },
    {
      "anonymous": false,
      "inputs": [
        {
          "indexed": true,
          "internalType": "address",
          "name": "user",
          "type": "address"
        }
      ],
      "name": "DisputeLost",
      "type": "event"
    },
    {
      "anonymous": false,
      "inputs": [
        {
          "indexed": true,
          "internalType": "address",
          "name": "endorser",
          "type": "address"
        },
        {
          "indexed": true,
          "internalType": "address",
          "name": "endorsed",
          "type": "address"
        }
      ],
      "name": "EndorsementGiven",
      "type": "event"
    },
    {
      "anonymous": false,
      "inputs": [
        {
          "indexed": true,
          "internalType": "address",
          "name": "endorser",
          "type": "address"
        },
        {
          "indexed": true,
          "internalType": "address",
          "name": "endorsed",
          "type": "address"
        }
      ],
      "name": "EndorsementReceived",
      "type": "event"
    },
    {
      "anonymous": false,
      "inputs": [
        {
          "indexed": true,
          "internalType": "address",
          "name": "user",
          "type": "address"
        },
        {
          "indexed": false,
          "internalType": "uint256",
          "name": "newReputationScore",
          "type": "uint256"
        }
      ],
      "name": "ReputationUpdated",
      "type": "event"
    },
    {
      "anonymous": false,
      "inputs": [
        {
          "indexed": true,
          "internalType": "address",
          "name": "user",
          "type": "address"
        }
      ],
      "name": "TradeStatsUpdated",
      "type": "event"
    },
    {
      "anonymous": false,
      "inputs": [
        {
          "indexed": true,
          "internalType": "address",
          "name": "user",
          "type": "address"
        },
        {
          "indexed": true,
          "internalType": "uint256",
          "name": "userId",
          "type": "uint256"
        }
      ],
      "name": "UserProfileUpdated",
      "type": "event"
    },
    {
      "anonymous": false,
      "inputs": [
        {
          "indexed": true,
          "internalType": "address",
          "name": "user",
          "type": "address"
        },
        {
          "indexed": true,
          "internalType": "uint256",
          "name": "userId",
          "type": "uint256"
        }
      ],
      "name": "UserRegistered",
      "type": "event"
    },
    {
      "anonymous": false,
      "inputs": [
        {
          "indexed": true,
          "internalType": "address",
          "name": "user",
          "type": "address"
        },
        {
          "indexed": true,
          "internalType": "uint256",
          "name": "userId",
          "type": "uint256"
        },
        {
          "indexed": false,
          "internalType": "string",
          "name": "newRole",
          "type": "string"
        }
      ],
      "name": "UserRoleUpdated",
      "type": "event"
    },
    {
      "inputs": [
        {
          "internalType": "address",
          "name": "_user",
          "type": "address"
        }
      ],
      "name": "getUserInfo",
      "outputs": [
        {
          "components": [
            {
              "internalType": "uint256",
              "name": "userId",
              "type": "uint256"
            },
            {
              "internalType": "bytes32",
              "name": "userEmail",
              "type": "bytes32"
            },
            {
              "internalType": "bytes32",
              "name": "userChatHandle",
              "type": "bytes32"
            },
            {
              "internalType": "bytes32",
              "name": "userWebsite",
              "type": "bytes32"
            },
            {
              "internalType": "string",
              "name": "userAvatar",
              "type": "string"
            },
            {
              "internalType": "string",
              "name": "userRole",
              "type": "string"
            }
          ],
          "internalType": "struct Account.UserBasicInfo",
          "name": "basicInfo",
          "type": "tuple"
        },
        {
          "components": [
            {
              "internalType": "uint256",
              "name": "userReputationScore",
              "type": "uint256"
            },
            {
              "internalType": "uint256",
              "name": "userEndorsementsGiven",
              "type": "uint256"
            },
            {
              "internalType": "uint256",
              "name": "userEndorsementsReceived",
              "type": "uint256"
            },
            {
              "internalType": "uint256",
              "name": "userRatingsGiven",
              "type": "uint256"
            },
            {
              "internalType": "uint256",
              "name": "userRatingsReceived",
              "type": "uint256"
            },
            {
              "internalType": "uint256",
              "name": "userDisputesInitiated",
              "type": "uint256"
            },
            {
              "internalType": "uint256",
              "name": "userDisputesLost",
              "type": "uint256"
            },
            {
              "internalType": "uint256",
              "name": "userTotalTradesInitiated",
              "type": "uint256"
            },
            {
              "internalType": "uint256",
              "name": "userTotalTradesAccepted",
              "type": "uint256"
            },
            {
              "internalType": "uint256",
              "name": "userTotalTradesCompleted",
              "type": "uint256"
            },
            {
              "internalType": "uint256",
              "name": "userTotalTradeVolume",
              "type": "uint256"
            },
            {
              "internalType": "uint256",
              "name": "userAverageTradeVolume",
              "type": "uint256"
            },
            {
              "internalType": "uint256",
              "name": "userLastCompletedTradeDate",
              "type": "uint256"
            }
          ],
          "internalType": "struct Account.UserStats",
          "name": "stats",
          "type": "tuple"
        }
      ],
      "stateMutability": "view",
      "type": "function"
    },
    {
      "inputs": [
        {
          "internalType": "address",
          "name": "_user",
          "type": "address"
        }
      ],
      "name": "getUserReputationScore",
      "outputs": [
        {
          "internalType": "uint256",
          "name": "",
          "type": "uint256"
        }
      ],
      "stateMutability": "view",
      "type": "function"
    },
    {
      "inputs": [],
      "name": "owner",
      "outputs": [
        {
          "internalType": "address",
          "name": "",
          "type": "address"
        }
      ],
      "stateMutability": "view",
      "type": "function"
    },
    {
      "inputs": [],
      "name": "registry",
      "outputs": [
        {
          "internalType": "contract ContractRegistry",
          "name": "",
          "type": "address"
        }
      ],
      "stateMutability": "view",
      "type": "function"
    },
    {
      "inputs": [
        {
          "internalType": "address",
          "name": "_user",
          "type": "address"
        }
      ],
      "name": "updateDisputesInitiated",
      "outputs": [],
      "stateMutability": "nonpayable",
      "type": "function"
    },
    {
      "inputs": [
        {
          "internalType": "address",
          "name": "_user",
          "type": "address"
        }
      ],
      "name": "updateDisputesLost",
      "outputs": [],
      "stateMutability": "nonpayable",
      "type": "function"
    },
    {
      "inputs": [
        {
          "internalType": "address",
          "name": "_endorser",
          "type": "address"
        },
        {
          "internalType": "address",
          "name": "_endorsed",
          "type": "address"
        }
      ],
      "name": "updateEndorsementsGiven",
      "outputs": [],
      "stateMutability": "nonpayable",
      "type": "function"
    },
    {
      "inputs": [
        {
          "internalType": "address",
          "name": "_endorser",
          "type": "address"
        },
        {
          "internalType": "address",
          "name": "_endorsed",
          "type": "address"
        }
      ],
      "name": "updateEndorsementsReceived",
      "outputs": [],
      "stateMutability": "nonpayable",
      "type": "function"
    },
    {
      "inputs": [
        {
          "internalType": "address",
          "name": "_user",
          "type": "address"
        },
        {
          "internalType": "uint256",
          "name": "_tradeVolume",
          "type": "uint256"
        },
        {
          "internalType": "bool",
          "name": "_initiated",
          "type": "bool"
        },
        {
          "internalType": "bool",
          "name": "_accepted",
          "type": "bool"
        },
        {
          "internalType": "bool",
          "name": "_completed",
          "type": "bool"
        }
      ],
      "name": "updateTradeStats",
      "outputs": [],
      "stateMutability": "nonpayable",
      "type": "function"
    },
    {
      "inputs": [
        {
          "internalType": "address",
          "name": "",
          "type": "address"
        }
      ],
      "name": "userBasicInfo",
      "outputs": [
        {
          "internalType": "uint256",
          "name": "userId",
          "type": "uint256"
        },
        {
          "internalType": "bytes32",
          "name": "userEmail",
          "type": "bytes32"
        },
        {
          "internalType": "bytes32",
          "name": "userChatHandle",
          "type": "bytes32"
        },
        {
          "internalType": "bytes32",
          "name": "userWebsite",
          "type": "bytes32"
        },
        {
          "internalType": "string",
          "name": "userAvatar",
          "type": "string"
        },
        {
          "internalType": "string",
          "name": "userRole",
          "type": "string"
        }
      ],
      "stateMutability": "view",
      "type": "function"
    },
    {
      "inputs": [],
      "name": "userCount",
      "outputs": [
        {
          "internalType": "uint256",
          "name": "",
          "type": "uint256"
        }
      ],
      "stateMutability": "view",
      "type": "function"
    },
    {
      "inputs": [
        {
          "internalType": "uint256",
          "name": "",
          "type": "uint256"
        }
      ],
      "name": "userIdToAddress",
      "outputs": [
        {
          "internalType": "address",
          "name": "",
          "type": "address"
        }
      ],
      "stateMutability": "view",
      "type": "function"
    },
    {
      "inputs": [
        {
          "internalType": "bytes32",
          "name": "_userEmail",
          "type": "bytes32"
        },
        {
          "internalType": "bytes32",
          "name": "_userChatHandle",
          "type": "bytes32"
        },
        {
          "internalType": "bytes32",
          "name": "_userWebsite",
          "type": "bytes32"
        },
        {
          "internalType": "string",
          "name": "_userAvatar",
          "type": "string"
        }
      ],
      "name": "userReg",
      "outputs": [],
      "stateMutability": "nonpayable",
      "type": "function"
    },
    {
      "inputs": [
        {
          "internalType": "address",
          "name": "_user",
          "type": "address"
        }
      ],
      "name": "userReputationCalc",
      "outputs": [
        {
          "internalType": "uint256",
          "name": "",
          "type": "uint256"
        }
      ],
      "stateMutability": "nonpayable",
      "type": "function"
    },
    {
      "inputs": [
        {
          "internalType": "address",
          "name": "",
          "type": "address"
        }
      ],
      "name": "userStats",
      "outputs": [
        {
          "internalType": "uint256",
          "name": "userReputationScore",
          "type": "uint256"
        },
        {
          "internalType": "uint256",
          "name": "userEndorsementsGiven",
          "type": "uint256"
        },
        {
          "internalType": "uint256",
          "name": "userEndorsementsReceived",
          "type": "uint256"
        },
        {
          "internalType": "uint256",
          "name": "userRatingsGiven",
          "type": "uint256"
        },
        {
          "internalType": "uint256",
          "name": "userRatingsReceived",
          "type": "uint256"
        },
        {
          "internalType": "uint256",
          "name": "userDisputesInitiated",
          "type": "uint256"
        },
        {
          "internalType": "uint256",
          "name": "userDisputesLost",
          "type": "uint256"
        },
        {
          "internalType": "uint256",
          "name": "userTotalTradesInitiated",
          "type": "uint256"
        },
        {
          "internalType": "uint256",
          "name": "userTotalTradesAccepted",
          "type": "uint256"
        },
        {
          "internalType": "uint256",
          "name": "userTotalTradesCompleted",
          "type": "uint256"
        },
        {
          "internalType": "uint256",
          "name": "userTotalTradeVolume",
          "type": "uint256"
        },
        {
          "internalType": "uint256",
          "name": "userAverageTradeVolume",
          "type": "uint256"
        },
        {
          "internalType": "uint256",
          "name": "userLastCompletedTradeDate",
          "type": "uint256"
        }
      ],
      "stateMutability": "view",
      "type": "function"
    },
    {
      "inputs": [
        {
          "internalType": "bytes32",
          "name": "_userEmail",
          "type": "bytes32"
        },
        {
          "internalType": "bytes32",
          "name": "_userChatHandle",
          "type": "bytes32"
        },
        {
          "internalType": "bytes32",
          "name": "_userWebsite",
          "type": "bytes32"
        },
        {
          "internalType": "string",
          "name": "_userAvatar",
          "type": "string"
        },
        {
          "internalType": "string",
          "name": "_userRole",
          "type": "string"
        }
      ],
      "name": "userUpdateProfile",
      "outputs": [],
      "stateMutability": "nonpayable",
      "type": "function"
    }
  ],
  "bytecode": "0x60803461007a57601f61199c38819003918201601f19168301916001600160401b0383118484101761007f5780849260209460405283398101031261007a57516001600160a01b0381169081900361007a5760018060a01b031933816000541617600055600154161760015560405161190690816100968239f35b600080fd5b634e487b7160e01b600052604160045260246000fdfe608080604052600436101561001357600080fd5b60003560e01c90816307973ccf14611617575080632328aea61461157c5780636386c1c7146112d95780636da7b3fc1461119457806374d3146e1461105e5780637b103999146110355780637b489ed814610eff5780637bb500e214610e0d578063849cf2a014610bd65780638a65d87414610b165780638da5cb5b14610aed57806390ba9f941461098c578063a4e2ea0b14610952578063af10fec51461053b578063b1695201146105075763be516195146100cf57600080fd5b346105025760803660031901126105025760243560043560643567ffffffffffffffff8111610502576101069036906004016117d8565b3360005260026020526040600020546104bd57811515806104b4575b15610461576101326005546118b4565b92836005556040519361014485611698565b8452602084019283526040840190815260608401906044358252608085019283526040516040810181811067ffffffffffffffff8211176103805760405260048152633ab9b2b960e11b602082015260a0860152336000526002602052604060002093855185555160018501555160028401555160038301555180519067ffffffffffffffff8211610380576101dd600484015461165e565b601f8111610416575b50602090601f83116001146103a157918060a09492600594600092610396575b50508160011b916000199060031b1c19161760048201555b0191015190815167ffffffffffffffff81116103805761023e825461165e565b601f8111610338575b50602092601f82116001146102d457928192936000926102c9575b50508160011b916000199060031b1c19161790555b60055460005260046020526040600020336bffffffffffffffffffffffff60a01b825416179055600554337fe29d35093005f4d575e1003753426b57a7f64378ba73332eef9c6ccc2b8decd6600080a3005b015190503880610262565b601f198216938360005260206000209160005b8681106103205750836001959610610307575b505050811b019055610277565b015160001960f88460031b161c191690553880806102fa565b919260206001819286850151815501940192016102e7565b826000526020600020601f830160051c81019160208410610376575b601f0160051c01905b81811061036a5750610247565b6000815560010161035d565b9091508190610354565b634e487b7160e01b600052604160045260246000fd5b015190503880610206565b906004840160005260206000209160005b601f19851681106103fe57509260a0949260019260059583601f198116106103e5575b505050811b01600482015561021e565b015160001960f88460031b161c191690553880806103d5565b919260206001819286850151815501940192016103b2565b600484016000526020600020601f840160051c81019160208510610457575b601f0160051c01905b81811061044b57506101e6565b6000815560010161043e565b9091508190610435565b60405162461bcd60e51b815260206004820152602560248201527f456d61696c20616e6420636861742068616e646c652063616e6e6f7420626520604482015264656d70747960d81b6064820152608490fd5b50821515610122565b60405162461bcd60e51b815260206004820152601760248201527f5573657220616c726561647920726567697374657265640000000000000000006044820152606490fd5b600080fd5b34610502576020366003190112610502576004356000526004602052602060018060a01b0360406000205416604051908152f35b346105025760a03660031901126105025760643567ffffffffffffffff81116105025761056c9036906004016117d8565b60843567ffffffffffffffff81116105025761058c9036906004016117d8565b33600052600260205260406000205415610917576000546001600160a01b0316331480156108ea575b1561088f57336000526002602052604060002090600435600183015560243560028301556044356003830155825167ffffffffffffffff8111610380576105ff600484015461165e565b601f8111610844575b506020601f82116001146107d857819293946000926107cd575b50508160011b916000199060031b1c19161760048301555b6000546001600160a01b03163314610677575b5054337f41ee65669409a0ac67e14c58fee5601cb71a227e78b60a97032cb150a8b6f4e5600080a3005b805191906005820167ffffffffffffffff841161038057610698815461165e565b601f8111610785575b50602093601f8111600114610720578091929394600091610715575b508160011b916000199060031b1c19161790555b8154907f44ecf1694e247e4eed3c572c67cdd1bcb18a4c3d159a0a5cc2d2381b58dd9e1b604051602081528061070c33946020830190611798565b0390a38161064d565b9050830151856106bd565b601f198116948260005260206000209060005b87811061076d57508260019495969710610754575b5050811b0190556106d1565b85015160001960f88460031b161c191690558580610748565b90916020600181928589015181550193019101610733565b816000526020600020601f860160051c810191602087106107c3575b601f0160051c01905b8181106107b757506106a1565b600081556001016107aa565b90915081906107a1565b015190508480610622565b601f198216906004850160005260206000209160005b81811061082c57509583600195969710610813575b505050811b01600483015561063a565b015160001960f88460031b161c19169055848080610803565b9192602060018192868b0151815501940192016107ee565b600484016000526020600020601f830160051c81019160208410610885575b601f0160051c01905b8181106108795750610608565b6000815560010161086c565b9091508190610863565b60405162461bcd60e51b815260206004820152602d60248201527f4f6e6c79207468652075736572206f722061646d696e2063616e20757064617460448201526c65207468652070726f66696c6560981b6064820152608490fd5b50336000526002602052604060002054600052600460205260018060a01b036040600020541633146105b5565b60405162461bcd60e51b8152602060048201526013602482015272155cd95c881b9bdd081c9959da5cdd195c9959606a1b6044820152606490fd5b34610502576020366003190112610502576001600160a01b03610973611632565b1660005260036020526020604060002054604051908152f35b34610502576040366003190112610502576109a5611632565b6109ad611648565b9060018060a01b038091816000541633148015610a95575b8015610a1d575b6109d59061184e565b169182600052600360205260016040600020016109f281546118b4565b905516907f98e9d32fe2d0d678817f18b4f079d2699a01440f871fee0da664fffbb0fa3be6600080a3005b5060206004926001541660405193848092637050565360e01b82525afa8015610a8957836109d5918194600091610a5a575b5016331490506109cc565b610a7c915060203d602011610a82575b610a7481836116d1565b81019061182f565b87610a4f565b503d610a6a565b6040513d6000823e3d90fd5b50602060049260015416604051938480926324ed653d60e11b82525afa918215610a895783928391600091610ace575b501633146109c5565b610ae7915060203d602011610a8257610a7481836116d1565b86610ac5565b34610502576000366003190112610502576000546040516001600160a01b039091168152602090f35b34610502576020366003190112610502576001600160a01b03610b37611632565b1660005260036020526101a0604060002080549060018101549060028101546003820154600483015460058401546006850154600786015491600887015493600988015495600a89015497600c600b8b01549a01549a6040519c8d5260208d015260408c015260608b015260808a015260a089015260c088015260e0870152610100860152610120850152610140840152610160830152610180820152f35b346105025760a036600319011261050257610bef611632565b60443560243581151582036105025760643592831515840361050257608435908115158203610502576000546001600160a01b039190821633148015610db8575b8015610d5c575b610c409061184e565b8315610d0b571693846000526003602052604060002093610cf6575b610ce1575b610c8e575b827f9a7edf3816145d4d9796439facb523bfaddfbd095981f88440412e0da6598023600080a2005b6009820190610c9d82546118b4565b809255610caf600a84019182546118c3565b8091558115610ccb5704600b820155600c429101558180610c66565b634e487b7160e01b600052601260045260246000fd5b60088301610cef81546118b4565b9055610c61565b60078401610d0481546118b4565b9055610c5c565b60405162461bcd60e51b815260206004820152602360248201527f547261646520766f6c756d65206d75737420626520677265617465722074686160448201526206e20360ec1b6064820152608490fd5b5060046020836001541660405192838092637050565360e01b82525afa908115610a8957610c40918491600091610d99575b501633149050610c37565b610db2915060203d602011610a8257610a7481836116d1565b89610d8e565b50600460208360015416604051928380926324ed653d60e11b82525afa8015610a89578391600091610dee575b50163314610c30565b610e07915060203d602011610a8257610a7481836116d1565b88610de5565b34610502576020366003190112610502576001600160a01b03610e2e611632565b1680600052600360205260406000206009810154600a810290808204600a1490151715610ee957610e6e90670de0b6b3a7640000600a84015404906118c3565b916006820154603281029080820460321490151715610ee9578303928311610ee957600282015492600584029380850460051490151715610ee957602093610eb5916118c3565b8092557ffc577563f1b9a0461e24abef1e1fcc0d33d3d881f20b5df6dda59de4aae2c82183604051848152a2604051908152f35b634e487b7160e01b600052601160045260246000fd5b346105025760208060031936011261050257610f19611632565b600054336001600160a01b0391821614918215610fe1575b8215610f85575b610f4360039361184e565b169182600052526006604060002001610f5c81546118b4565b90557f538b488539bec5da1b7056f2b971300dcc72d940255474c061453f7de8c4e277600080a2005b6004925083826001541660405194858092637050565360e01b82525afa8015610a895782610f4391600395600091610fc4575b50163314935050610f38565b610fdb9150873d8911610a8257610a7481836116d1565b87610fb8565b91506004838260015416604051928380926324ed653d60e11b82525afa8015610a89578291600091611018575b5016331491610f31565b61102f9150853d8711610a8257610a7481836116d1565b8561100e565b34610502576000366003190112610502576001546040516001600160a01b039091168152602090f35b346105025760208060031936011261050257611078611632565b600054336001600160a01b0391821614918215611140575b82156110e4575b6110a260039361184e565b1691826000525260056040600020016110bb81546118b4565b90557fdad56d2d81fd6e7af68edb2bd38935358747b828fbc4be904f40daa50a9fc6f9600080a2005b6004925083826001541660405194858092637050565360e01b82525afa8015610a8957826110a291600395600091611123575b50163314935050611097565b61113a9150873d8911610a8257610a7481836116d1565b87611117565b91506004838260015416604051928380926324ed653d60e11b82525afa8015610a89578291600091611177575b5016331491611090565b61118e9150853d8711610a8257610a7481836116d1565b8561116d565b34610502576040366003190112610502576111ad611632565b6111b5611648565b6000546001600160a01b03918291821633148015611281575b8015611225575b6111de9061184e565b169182600052600360205260026040600020016111fb81546118b4565b9055167f094e691f6cebc3375ecf0e31a0a8ef412e0f394ce120aeee4e4d80282ab76175600080a3005b5060206004926001541660405193848092637050565360e01b82525afa8015610a8957836111de918194600091611262575b5016331490506111d5565b61127b915060203d602011610a8257610a7481836116d1565b87611257565b50602060049260015416604051938480926324ed653d60e11b82525afa918215610a8957839283916000916112ba575b501633146111ce565b6112d3915060203d602011610a8257610a7481836116d1565b866112b1565b34610502576020366003190112610502576114f36112f5611632565b606060a060405161130581611698565b60008152600060208201526000604082015260008382015282608082015201526000610180604051611336816116b4565b8281528260208201528260408201528260608201528260808201528260a08201528260c08201528260e082015282610100820152826101208201528261014082015282610160820152015260018060a01b03811660005260026020526040600020906113e36005604051936113aa85611698565b805485526001810154602086015260028101546040860152600381015460608601526113d8600482016116f3565b6080860152016116f3565b60a083015260018060a01b031660005260036020526040600020600c6040519161140c836116b4565b8054835260018101546020840152600281015460408401526003810154606084015260048101546080840152600581015460a0840152600681015460c0840152600781015460e084015260088101546101008401526009810154610120840152600a810154610140840152600b81015461016084015201546101808201526101806040519384936101c080865281519086015260208101516101e08601526040810151610200860152606081015161022086015260a06114dd608083015160c0610240890152610280880190611798565b9101518582036101bf1901610260870152611798565b9180516020850152602081015160408501526040810151606085015260608101516080850152608081015160a085015260a081015160c085015260c081015160e085015260e08101516101008501526101008101516101208501526101208101516101408501526101408101516101608501526101608101518285015201516101a08301520390f35b34610502576020366003190112610502576001600160a01b0361159d611632565b1660005260026020526040600020805461161360018301549261160560028201549160038101546115dc60056115d5600485016116f3565b93016116f3565b93604051978897885260208801526040870152606086015260c0608086015260c0850190611798565b9083820360a0850152611798565b0390f35b34610502576000366003190112610502576020906005548152f35b600435906001600160a01b038216820361050257565b602435906001600160a01b038216820361050257565b90600182811c9216801561168e575b602083101461167857565b634e487b7160e01b600052602260045260246000fd5b91607f169161166d565b60c0810190811067ffffffffffffffff82111761038057604052565b6101a0810190811067ffffffffffffffff82111761038057604052565b90601f8019910116810190811067ffffffffffffffff82111761038057604052565b906040519182600082546117068161165e565b908184526020946001916001811690816000146117765750600114611737575b505050611735925003836116d1565b565b600090815285812095935091905b81831061175e5750506117359350820101388080611726565b85548884018501529485019487945091830191611745565b9250505061173594925060ff191682840152151560051b820101388080611726565b919082519283825260005b8481106117c4575050826000602080949584010152601f8019910116010190565b6020818301810151848301820152016117a3565b81601f820112156105025780359067ffffffffffffffff8211610380576040519261180d601f8401601f1916602001856116d1565b8284526020838301011161050257816000926020809301838601378301015290565b9081602091031261050257516001600160a01b03811681036105025790565b1561185557565b60405162461bcd60e51b815260206004820152603160248201527f4f6e6c7920617574686f72697a656420636f6e7472616374732063616e207065604482015270393337b936903a3434b99030b1ba34b7b760791b6064820152608490fd5b6000198114610ee95760010190565b91908201809211610ee95756fea2646970667358221220e9b435511e47ff14b8e4d347e2f7c36798454008834ca05ecdb68ba567e29f9564736f6c63430008180033",
  "linkReferences": {},
  "deployedLinkReferences": {}
}