{
  "_format": "hh-sol-artifact-1",
  "contractName": "Arbitration",
  "sourceName": "contracts/Arbitration.sol",
  "abi": [
    {
      "inputs": [
        {
          "internalType": "address",
          "name": "_admin",
          "type": "address"
        },
        {
          "internalType": "address",
          "name": "_registryAddress",
          "type": "address"
        }
      ],
      "stateMutability": "nonpayable",
      "type": "constructor"
    },
    {
      "anonymous": false,
      "inputs": [
        {
          "indexed": true,
          "internalType": "uint256",
          "name": "tradeId",
          "type": "uint256"
        },
        {
          "indexed": false,
          "internalType": "uint256",
          "name": "disputeId",
          "type": "uint256"
        }
      ],
      "name": "DisputeCreated",
      "type": "event"
    },
    {
      "anonymous": false,
      "inputs": [
        {
          "indexed": true,
          "internalType": "uint256",
          "name": "tradeId",
          "type": "uint256"
        },
        {
          "indexed": false,
          "internalType": "uint256",
          "name": "disputeId",
          "type": "uint256"
        },
        {
          "indexed": true,
          "internalType": "address",
          "name": "submitter",
          "type": "address"
        },
        {
          "indexed": false,
          "internalType": "string",
          "name": "evidence",
          "type": "string"
        }
      ],
      "name": "DisputeEvidenceSubmitted",
      "type": "event"
    },
    {
      "anonymous": false,
      "inputs": [
        {
          "indexed": true,
          "internalType": "uint256",
          "name": "tradeId",
          "type": "uint256"
        },
        {
          "indexed": false,
          "internalType": "uint256",
          "name": "disputeId",
          "type": "uint256"
        }
      ],
      "name": "DisputeResolutionCanceled",
      "type": "event"
    },
    {
      "anonymous": false,
      "inputs": [
        {
          "indexed": true,
          "internalType": "uint256",
          "name": "tradeId",
          "type": "uint256"
        },
        {
          "indexed": false,
          "internalType": "uint256",
          "name": "disputeId",
          "type": "uint256"
        },
        {
          "indexed": false,
          "internalType": "uint256",
          "name": "resolutionTimestamp",
          "type": "uint256"
        }
      ],
      "name": "DisputeResolutionInitiated",
      "type": "event"
    },
    {
      "anonymous": false,
      "inputs": [
        {
          "indexed": true,
          "internalType": "uint256",
          "name": "tradeId",
          "type": "uint256"
        },
        {
          "indexed": false,
          "internalType": "uint256",
          "name": "disputeId",
          "type": "uint256"
        }
      ],
      "name": "DisputeResolutionTimelockExpired",
      "type": "event"
    },
    {
      "anonymous": false,
      "inputs": [
        {
          "indexed": true,
          "internalType": "uint256",
          "name": "tradeId",
          "type": "uint256"
        },
        {
          "indexed": false,
          "internalType": "uint256",
          "name": "disputeId",
          "type": "uint256"
        },
        {
          "indexed": false,
          "internalType": "bool",
          "name": "resolvedInFavorOfMaker",
          "type": "bool"
        }
      ],
      "name": "DisputeResolved",
      "type": "event"
    },
    {
      "anonymous": false,
      "inputs": [
        {
          "indexed": false,
          "internalType": "uint256",
          "name": "newTimelock",
          "type": "uint256"
        }
      ],
      "name": "ResolutionTimelockUpdated",
      "type": "event"
    },
    {
      "inputs": [],
      "name": "admin",
      "outputs": [
        {
          "internalType": "address",
          "name": "",
          "type": "address"
        }
      ],
      "stateMutability": "view",
      "type": "function"
    },
    {
      "inputs": [
        {
          "internalType": "uint256",
          "name": "_disputeId",
          "type": "uint256"
        }
      ],
      "name": "cancelDisputeResolution",
      "outputs": [],
      "stateMutability": "nonpayable",
      "type": "function"
    },
    {
      "inputs": [],
      "name": "disputeCount",
      "outputs": [
        {
          "internalType": "uint256",
          "name": "",
          "type": "uint256"
        }
      ],
      "stateMutability": "view",
      "type": "function"
    },
    {
      "inputs": [
        {
          "internalType": "uint256",
          "name": "",
          "type": "uint256"
        },
        {
          "internalType": "uint256",
          "name": "",
          "type": "uint256"
        }
      ],
      "name": "disputeEvidence",
      "outputs": [
        {
          "internalType": "string",
          "name": "",
          "type": "string"
        }
      ],
      "stateMutability": "view",
      "type": "function"
    },
    {
      "inputs": [
        {
          "internalType": "uint256",
          "name": "",
          "type": "uint256"
        }
      ],
      "name": "disputes",
      "outputs": [
        {
          "internalType": "uint256",
          "name": "tradeId",
          "type": "uint256"
        },
        {
          "internalType": "enum Arbitration.DisputeStatus",
          "name": "status",
          "type": "uint8"
        },
        {
          "internalType": "uint256",
          "name": "disputeTimestamp",
          "type": "uint256"
        },
        {
          "internalType": "uint256",
          "name": "resolveTimestamp",
          "type": "uint256"
        },
        {
          "internalType": "bool",
          "name": "resolvedInFavorOfMaker",
          "type": "bool"
        }
      ],
      "stateMutability": "view",
      "type": "function"
    },
    {
      "inputs": [
        {
          "internalType": "uint256",
          "name": "_disputeId",
          "type": "uint256"
        }
      ],
      "name": "getDisputeDetails",
      "outputs": [
        {
          "internalType": "uint256",
          "name": "tradeId",
          "type": "uint256"
        },
        {
          "internalType": "enum Arbitration.DisputeStatus",
          "name": "status",
          "type": "uint8"
        },
        {
          "internalType": "uint256",
          "name": "disputeTimestamp",
          "type": "uint256"
        },
        {
          "internalType": "uint256",
          "name": "resolveTimestamp",
          "type": "uint256"
        },
        {
          "internalType": "bool",
          "name": "resolvedInFavorOfMaker",
          "type": "bool"
        }
      ],
      "stateMutability": "view",
      "type": "function"
    },
    {
      "inputs": [
        {
          "internalType": "uint256",
          "name": "_tradeId",
          "type": "uint256"
        }
      ],
      "name": "getDisputeOutcome",
      "outputs": [
        {
          "internalType": "bool",
          "name": "",
          "type": "bool"
        }
      ],
      "stateMutability": "view",
      "type": "function"
    },
    {
      "inputs": [
        {
          "internalType": "uint256",
          "name": "_tradeId",
          "type": "uint256"
        }
      ],
      "name": "handleDispute",
      "outputs": [],
      "stateMutability": "nonpayable",
      "type": "function"
    },
    {
      "inputs": [
        {
          "internalType": "uint256",
          "name": "_disputeId",
          "type": "uint256"
        },
        {
          "internalType": "bool",
          "name": "_resolveInFavorOfMaker",
          "type": "bool"
        }
      ],
      "name": "initiateDisputeResolution",
      "outputs": [],
      "stateMutability": "nonpayable",
      "type": "function"
    },
    {
      "inputs": [
        {
          "internalType": "uint256",
          "name": "_tradeId",
          "type": "uint256"
        }
      ],
      "name": "isDisputeResolved",
      "outputs": [
        {
          "internalType": "bool",
          "name": "",
          "type": "bool"
        }
      ],
      "stateMutability": "view",
      "type": "function"
    },
    {
      "inputs": [],
      "name": "registry",
      "outputs": [
        {
          "internalType": "contract ContractRegistry",
          "name": "",
          "type": "address"
        }
      ],
      "stateMutability": "view",
      "type": "function"
    },
    {
      "inputs": [],
      "name": "resolutionTimelock",
      "outputs": [
        {
          "internalType": "uint256",
          "name": "",
          "type": "uint256"
        }
      ],
      "stateMutability": "view",
      "type": "function"
    },
    {
      "inputs": [
        {
          "internalType": "uint256",
          "name": "_disputeId",
          "type": "uint256"
        },
        {
          "internalType": "bool",
          "name": "_resolveInFavorOfMaker",
          "type": "bool"
        }
      ],
      "name": "resolveDispute",
      "outputs": [],
      "stateMutability": "nonpayable",
      "type": "function"
    },
    {
      "inputs": [
        {
          "internalType": "uint256",
          "name": "_disputeId",
          "type": "uint256"
        }
      ],
      "name": "resolveDisputeAfterTimelock",
      "outputs": [],
      "stateMutability": "nonpayable",
      "type": "function"
    },
    {
      "inputs": [
        {
          "internalType": "uint256",
          "name": "_tradeId",
          "type": "uint256"
        },
        {
          "internalType": "string",
          "name": "_evidence",
          "type": "string"
        }
      ],
      "name": "submitEvidence",
      "outputs": [],
      "stateMutability": "nonpayable",
      "type": "function"
    },
    {
      "inputs": [
        {
          "internalType": "uint256",
          "name": "",
          "type": "uint256"
        }
      ],
      "name": "tradeDisputeIds",
      "outputs": [
        {
          "internalType": "uint256",
          "name": "",
          "type": "uint256"
        }
      ],
      "stateMutability": "view",
      "type": "function"
    },
    {
      "inputs": [
        {
          "internalType": "uint256",
          "name": "_newTimelock",
          "type": "uint256"
        }
      ],
      "name": "updateResolutionTimelock",
      "outputs": [],
      "stateMutability": "nonpayable",
      "type": "function"
    }
  ],
  "bytecode": "0x6080346200013157601f620023f338819003918201601f19168301916001600160401b038311848410176200013657808492604094855283398101031262000131576200005a602062000052836200014c565b92016200014c565b620151806002556001600160a01b0391821691908215620000ec5716908115620000a85760018060a01b03199081600054161760005560015416176001556040516122919081620001628239f35b606460405162461bcd60e51b815260206004820152602060248201527f496e76616c696420436f6e7472616374526567697374727920616464726573736044820152fd5b60405162461bcd60e51b815260206004820152601560248201527f496e76616c69642061646d696e206164647265737300000000000000000000006044820152606490fd5b600080fd5b634e487b7160e01b600052604160045260246000fd5b51906001600160a01b0382168203620001315756fe60806040818152600436101561001457600080fd5b600091823560e01c908163155e5fce14611cf8575080632d5db63014611bef57806334b25ee21461180257806339f0a711146116ec5780633d8f6e3b146115ef5780634b54a37914611240578063564a565d146111f45780637b103999146111cc57806390bad670146111ae5780639aaf3017146108c15780639bdad207146107f9578063a28889e1146107db578063a6a7f0eb1461023f578063dd2163f214610217578063ea89735d14610161578063f5439d6e146101075763f851a440146100dd57600080fd5b34610103578160031936011261010357905490516001600160a01b039091168152602090f35b5080fd5b50346101035760203660031901126101035760207f66c54fe8553b9f531053cc67de0a61d081aee025e39422c023c53175b1db0ec7916004359061015560018060a01b038654163314612107565b8160025551908152a180f35b50346101035760203660031901126101035780916004358015158061020b575b61018a9061215e565b81526004602052209080519161019f83611ecc565b8054835260ff6001820154169260038410156101f5576101f1918460208301526002810154808584015260ff600460038401549384606087015201541615159283608082015251945195869586611f76565b0390f35b634e487b7160e01b600052602160045260246000fd5b50600354811115610181565b5034610103576020366003190112610103578060209260043581526005845220549051908152f35b5034610103578060031936011261010357600435602467ffffffffffffffff81358181116107d757366023820112156107d7578060040135928661028285611fa5565b9261028f88519485611ee8565b8584526020953684828401011161076957808488930183870137840101526001805487516324ed653d60e11b80825292959290916001600160a01b0391908b908b9084168a86600481845afa80156106ee578c968491610799575b508386918a85518094819363695730a560e01b9c8d84526004840152165afa801561072257610322918591610774575b5015156120c4565b81518481528b81600481855afa9081156107225786918a8f8793849361072f575b50865194859384928d84526004840152165afa948515610722578c9185966106fa575b50600484518094819382525afa9586156106ee578c92899285986106af575b50869051978894859384526004840152165afa9283156106a5578b93610672575b5081163314918215610665575b50501561060f578588526005855286882054936103d18515156121ef565b8489526004865260ff81898b2001541660038110156105fc576105bb5784895260068652878920805490680100000000000000008210156105a8579061041b918382018155611e3a565b93909361059657845192831161058457506104368354611e68565b601f811161053e575b5085601f83116001146104b7579180806104a695937f8722164b9614b32a2b746677da9825964edb315b8226c7cec2996a2779d01885999897958d936104ac575b501b916000199060031b1c19161790555b86805194859485528401523396830190611f2d565b0390a380f35b860151925038610480565b838a52868a2091929190601f1983168b5b81811061052957509183916104a696947f8722164b9614b32a2b746677da9825964edb315b8226c7cec2996a2779d018859a9998969410610510575b5050811b019055610491565b85015160001960f88460031b161c191690553880610504565b878301518455928501929189019189016104c8565b838a52868a20601f840160051c81019188851061057a575b601f0160051c019082905b82811061056f57505061043f565b8b8155018290610561565b9091508190610556565b634e487b7160e01b8a52604160045289fd5b634e487b7160e01b8a5260048a905289fd5b634e487b7160e01b8b526041600452848bfd5b606483878a519162461bcd60e51b83528160048401528201527f44697370757465206973206e6f7420696e2070656e64696e67207374617475736044820152fd5b634e487b7160e01b8a526021600452838afd5b865162461bcd60e51b815260048101869052602a818401527f4f6e6c7920747261646520706172746965732063616e20706572666f726d20746044820152693434b99030b1ba34b7b760b11b6064820152608490fd5b90915016331438806103b3565b82919350610692908c3d8091833e61068a8183611ee8565b81019061201a565b50505050505050505050905092906103a6565b8a513d8d823e3d90fd5b9750509150508985813d83116106e7575b6106ca8183611ee8565b8101031261010357868b91856106e08f98611fc1565b9790610385565b503d6106c0565b505051903d90823e3d90fd5b61070f9196503d8087833e61068a8183611ee8565b5050505050505050505090509438610366565b50505051903d90823e3d90fd5b965050505050508a82813d831161076d575b61074b8183611ee8565b810103126107695784838d8f946107628c91611fc1565b9138610343565b8280fd5b503d610741565b61078891503d8087833e61068a8183611ee8565b50505050505050505050503861031a565b92505094508981813d83116107d0575b6107b38183611ee8565b81010312610103578a9484836107c98f94611fc1565b91506102ea565b503d6107a9565b8580fd5b50346101035781600319360112610103576020906003549051908152f35b50346101035760203660031901126101035760043561082260018060a01b038454163314612107565b801515806108b5575b6108349061215e565b808352600460205260ff600183852001541660038110156108a1577f8153c647bdabcde3ccefab0fd45d83162cd67fbae064c9d5b20e7d9668ca1e859161087d602092156121a3565b8085526004825283852093600185549501600260ff1982541617905551908152a280f35b634e487b7160e01b84526021600452602484fd5b5060035481111561082b565b5034610103576020366003190112610103576108e760018060a01b038354163314612107565b6004351515806111a0575b6108fb9061215e565b6004358252600460205260ff6001828420015416600381101561118c5761092290156121a3565b600435825260046020526003818320015442106111495781906004358252600460205280822090815491600160ff6004830154169101600160ff1982541617905560018060a01b03600154168251936324ed653d60e11b8552602085600481855afa8015611103578690819061110d575b855163695730a560e01b8152600481018490529650869060249082906001600160a01b03165afa9485156111035786956110db575b5083516324ed653d60e11b815291602083600481845afa8015610dbb578790819061109f575b865163695730a560e01b8152600481018590529450849060249082906001600160a01b03165afa928315610dbb578793611077575b508315610efb575060015484516303577be960e21b815290602090829060049082906001600160a01b03165afa908115610dbb578791610ec1575b506001600160a01b0316803b15610e2157845163de9d858760e01b8152600481018390526001600160a01b03871660248201529087908290604490829084905af18015610dbb57908791610ead575b505060015484516324ed653d60e11b815290602090829060049082906001600160a01b03165afa908115610dbb578791610e73575b506001600160a01b0316803b15610e215786809160448751809481936344514bb760e11b8352876004840152600360248401525af18015610dbb57908791610e5f575b50505b835160043581528315156020820152819060008051602061223c83398151915290604090a27fbf4cf4ef93105e711288dee33b87db5b6dd587ce71ff12b774c2a26bdacdc0b4602085516004358152a26001548351630f4d898960e11b8082529391602090829060049082906001600160a01b03165afa908115610dbb578791610e25575b506001600160a01b031691823b15610e21578451878160248183633a698a3760e11b9b8c835260018060a01b0316988960048401525af18015610e0357908891610e0d575b5050600154855185815290602090829060049082906001600160a01b03165afa908115610e03578891610dc9575b506001600160a01b031695863b15610dc55787916024839288519485938492835260018060a01b03169a8b60048401525af18015610dbb57908791610da7575b505015610d3957506001548251918252602090829060049082906001600160a01b03165afa908115610d2f578491610cf5575b506001600160a01b031691823b15610cf05783926024849284519586938492630f6913db60e31b845260048401525af1908115610ce75750610cd457505080f35b610cdd90611ea2565b610ce45780f35b80fd5b513d84823e3d90fd5b505050fd5b90506020813d602011610d27575b81610d1060209383611ee8565b81010312610cf057610d2190611fc1565b38610c93565b3d9150610d03565b82513d86823e3d90fd5b6001548351928352909350602090829060049082906001600160a01b03165afa908115610d2f578491610cf557506001600160a01b031691823b15610cf05783926024849284519586938492630f6913db60e31b845260048401525af1908115610ce75750610cd457505080f35b610db090611ea2565b6107d7578538610c60565b85513d89823e3d90fd5b8780fd5b90506020813d602011610dfb575b81610de460209383611ee8565b81010312610dc557610df590611fc1565b38610c20565b3d9150610dd7565b86513d8a823e3d90fd5b610e1690611ea2565b610e21578638610bf2565b8680fd5b90506020813d602011610e57575b81610e4060209383611ee8565b81010312610e2157610e5190611fc1565b38610bad565b3d9150610e33565b610e6890611ea2565b6107d7578538610b25565b90506020813d602011610ea5575b81610e8e60209383611ee8565b81010312610e2157610e9f90611fc1565b38610ae2565b3d9150610e81565b610eb690611ea2565b6107d7578538610aad565b90506020813d602011610ef3575b81610edc60209383611ee8565b81010312610e2157610eed90611fc1565b38610a5e565b3d9150610ecf565b60206004918651928380926303577be960e21b82525afa908115610dbb57879161103d575b506001600160a01b0316803b15610e2157868091602487518094819363277c2ee560e01b83528760048401525af18015610dbb57908791611029575b505060015484516324ed653d60e11b815290602090829060049082906001600160a01b03165afa908115610dbb578791610fef575b506001600160a01b0316803b15610e215786809160448751809481936344514bb760e11b8352876004840152600460248401525af18015610dbb57908791610fdb575b5050610b28565b610fe490611ea2565b6107d7578538610fd4565b90506020813d602011611021575b8161100a60209383611ee8565b81010312610e215761101b90611fc1565b38610f91565b3d9150610ffd565b61103290611ea2565b6107d7578538610f5c565b90506020813d60201161106f575b8161105860209383611ee8565b81010312610e215761106990611fc1565b38610f20565b3d915061104b565b61108c9193503d8089833e61068a8183611ee8565b5050505050505050505090509138610a23565b50506020833d6020116110d3575b816110ba60209383611ee8565b81010312610e2157866110ce602494611fc1565b6109ee565b3d91506110ad565b6110f09195503d8088833e61068a8183611ee8565b50505050505050505050905093386109c8565b84513d88823e3d90fd5b50506020853d602011611141575b8161112860209383611ee8565b810103126107d7578561113c602496611fc1565b610993565b3d915061111b565b5162461bcd60e51b815260206004820152601f60248201527f54696d656c6f636b20706572696f6420686173206e6f742065787069726564006044820152606490fd5b634e487b7160e01b83526021600452602483fd5b5060035460043511156108f2565b50346101035781600319360112610103576020906002549051908152f35b503461010357816003193601126101035760015490516001600160a01b039091168152602090f35b50346101035760203660031901126101035780916004358152600460205220906101f182549160ff60018501541693600281015460ff6004600384015493015416925195869586611f76565b509034610ce457602080600319360112610103576004359060018060a01b0393846001541681516324ed653d60e11b908181528481600481865afa9081156114fa5790889188916115b7575b5016330361155f578251908082528482600481865afa9182156114fa5790889392918892611522575b508451888163695730a560e01b948582528a60048301528160249d8e92165afa908115611518578792916112f1918b91611504575015156120c4565b600486518095819382525afa9182156114fa57879291899184936114be575b50855194859384928352896004840152165afa9081156114b457859161148e575b50600881101561147b57600503611438576003546000198114611425576001018060035581519561136187611ecc565b84875283870186815283880190428252606089019288845260808a019489865289526004875285892099518a5560018a0191519060038210156114135750926004926113fb95927ffa71779ecc1dd1ef48196a5af1776f8a748036653ce2b5b310ab5e31b61ca32b999a9b9560ff8019835416911617905551600285015551600384015551151591019060ff801983541691151516179055565b6003549084865260058352818187205551908152a280f35b634e487b7160e01b8a52602160045289fd5b634e487b7160e01b855260116004528585fd5b5162461bcd60e51b81526004810191909152601f818501527f5472616465206973206e6f7420696e20646973707574656420737461747573006044820152606490fd5b634e487b7160e01b855260216004528585fd5b6114a291503d8087833e61068a8183611ee8565b50505097505050505050505038611331565b82513d87823e3d90fd5b92509250508481813d83116114f3575b6114d88183611ee8565b81010312610e215790876114ec8893611fc1565b9138611310565b503d6114ce565b84513d89823e3d90fd5b61078891503d808d833e61068a8183611ee8565b86513d8b823e3d90fd5b8680929495508193503d8311611558575b61153d8183611ee8565b81010312610e215790611551889392611fc1565b90386112b5565b503d611533565b825162461bcd60e51b815260048101859052602b60248201527f4f6e6c7920547261646520636f6e74726163742063616e20706572666f726d2060448201526a3a3434b99030b1ba34b7b760a91b6064820152608490fd5b809250868092503d83116115e8575b6115d08183611ee8565b81010312610e21576115e28891611fc1565b3861128c565b503d6115c6565b5034610103576115fe36611f52565b919061161460018060a01b038554163314612107565b801515806116e0575b6116269061215e565b808452600460205260ff600183862001541660038110156116cc5761164b90156121a3565b6002544201928342116116b857907f211b2fc9cdb851a325fb3cc3d094f8c1f22f121f7a6e20977d9c5c0b44a40c10929181865260046020526116a78387209160038301968755600483019060ff801983541691151516179055565b54935482519182526020820152a280f35b634e487b7160e01b85526011600452602485fd5b634e487b7160e01b85526021600452602485fd5b5060035481111561161d565b50346101035760209182600319360112610ce45760015482516324ed653d60e11b815260048035926001600160a01b0392918791839190829086165afa9081156117f85790849182916117bc575b50602486518094819363695730a560e01b8352876004840152165afa9081156117b25792600492611777869360ff96849161179e575015156120c4565b8152600586528181205461178c8115156121ef565b81528286522001541690519015158152f35b61078891503d8086833e61068a8183611ee8565b84513d85823e3d90fd5b809250878092503d83116117f1575b6117d58183611ee8565b810103126117ed576117e78491611fc1565b3861173a565b8380fd5b503d6117cb565b85513d86823e3d90fd5b509034610ce45761181236611f52565b82546001600160a01b03929061182b9084163314612107565b80151580611be3575b61183d9061215e565b8084526020926004845260019360ff858888200154166003811015611bcf5761186690156121a3565b8286526004815260038787200154611b8057828652600481528686205494600482848354168a51928380926324ed653d60e11b82525afa908115611b37578493929189918291611b41575b5060248b518096819363695730a560e01b83528c6004840152165afa928315611b37578893611b0f575b50848852600482526119118660048b8b208481018560ff19825416179055426003820155019060ff801983541691151516179055565b8515611a285790600481858a9b999a96959454168951928380926303577be960e21b82525afa918215611a1e579084929186926119e6575b50501691823b156117ed57865163de9d858760e01b81526004810189905291166001600160a01b0316602482015290829082908183816044810103925af180156119dc576119c4575b50506119be60008051602061223c833981519152935b5191825291151560208201529081906040820190565b0390a280f35b6119cd90611ea2565b6119d8578438611992565b8480fd5b85513d84823e3d90fd5b8193508092503d8311611a17575b6119fe8183611ee8565b810103126117ed57611a108391611fc1565b3880611949565b503d6119f4565b88513d87823e3d90fd5b5488516303577be960e21b815291925082908290600490829087165afa918215611b05578792611acf575b505016803b156119d857848091602488518094819363277c2ee560e01b83528960048401525af18015611ac557611aa0575b506119be60008051602061223c8339815191529394956119a8565b60008051602061223c8339815191529394611abd6119be92611ea2565b949350611a85565b86513d87823e3d90fd5b90809250813d8311611afe575b611ae68183611ee8565b810103126107d757611af790611fc1565b3880611a53565b503d611adc565b88513d89823e3d90fd5b611b249193503d808a833e61068a8183611ee8565b50505050505050505050905091386118db565b89513d8a823e3d90fd5b92938095508092508391503d8311611b79575b611b5e8183611ee8565b81010312610dc5579087611b73859493611fc1565b386118b1565b503d611b54565b60849087519062461bcd60e51b825260048201526024808201527f44697370757465207265736f6c7574696f6e20616c726561647920696e697469604482015263185d195960e21b6064820152fd5b634e487b7160e01b87526021600452602487fd5b50600354811115611834565b5034610103578060031936011261010357602435906004358352602091600683528184209081548110156119d857611c2691611e3a565b611ce457815193849181815490611c3c82611e68565b9283865260019288600182169182600014611cba575050600114611c7c575b85886101f189611c6d848a0385611ee8565b51928284938452830190611f2d565b87945081939291528383205b828410611ca25750505082010181611c6d6101f138611c5b565b8054848a018601528895508794909301928101611c88565b60ff19168882015294151560051b87019094019450859350611c6d92506101f19150389050611c5b565b634e487b7160e01b84526004849052602484fd5b8383346101035760209283600319360112610769576004359060018060a01b0390858160048185600154166324ed653d60e11b82525afa908115611e30579085918291611df8575b50602485518094819363695730a560e01b8352876004840152165afa9081156107225790611d76918591611dd3575015156120c4565b82526005835280822054918215159283611d95575b5050519015158152f35b9080929350526004835260ff6001838320015416906003821015611dbf5750600114908380611d8b565b634e487b7160e01b81526021600452602490fd5b611de791503d8087833e61068a8183611ee8565b50505050505050505050508661031a565b809250878092503d8311611e29575b611e118183611ee8565b810103126119d857611e238591611fc1565b87611d40565b503d611e07565b84513d87823e3d90fd5b8054821015611e525760005260206000200190600090565b634e487b7160e01b600052603260045260246000fd5b90600182811c92168015611e98575b6020831014611e8257565b634e487b7160e01b600052602260045260246000fd5b91607f1691611e77565b67ffffffffffffffff8111611eb657604052565b634e487b7160e01b600052604160045260246000fd5b60a0810190811067ffffffffffffffff821117611eb657604052565b90601f8019910116810190811067ffffffffffffffff821117611eb657604052565b60005b838110611f1d5750506000910152565b8181015183820152602001611f0d565b90602091611f4681518092818552858086019101611f0a565b601f01601f1916010190565b6040906003190112611f7157600435906024358015158103611f715790565b600080fd5b93909594919260a0850196855260038410156101f5576080936020860152604085015260608401521515910152565b67ffffffffffffffff8111611eb657601f01601f191660200190565b51906001600160a01b0382168203611f7157565b81601f82011215611f71578051611feb81611fa5565b92611ff96040519485611ee8565b81845260208284010111611f71576120179160208085019101611f0a565b90565b909161018082840312611f715781519261203660208401611fc1565b9260408101519260608201519260808301519167ffffffffffffffff92838111611f715782612066918601611fd5565b9360a0810151848111611f71578361207f918301611fd5565b9360c08201519360e0830151918211611f715761209d918301611fd5565b916101008201516008811015611f7157916101208101519161016061014083015192015190565b156120cb57565b60405162461bcd60e51b8152602060048201526014602482015273151c98591948191bd95cc81b9bdd08195e1a5cdd60621b6044820152606490fd5b1561210e57565b60405162461bcd60e51b815260206004820152602260248201527f4f6e6c792061646d696e2063616e20706572666f726d2074686973206163746960448201526137b760f11b6064820152608490fd5b1561216557565b60405162461bcd60e51b8152602060048201526016602482015275111a5cdc1d5d1948191bd95cc81b9bdd08195e1a5cdd60521b6044820152606490fd5b156121aa57565b60405162461bcd60e51b815260206004820152601b60248201527f4469737075746520697320616c7265616479207265736f6c76656400000000006044820152606490fd5b156121f657565b60405162461bcd60e51b815260206004820152601e60248201527f4e6f206469737075746520666f756e6420666f722074686520747261646500006044820152606490fdfec84a77110774854ab237145b108e924962dbaa5191275eb044a6cb09621c4a94a2646970667358221220d53fc0d37fdf7c202de00b768ef31a94a78a346ed820b432f0626727de5a353564736f6c63430008180033",
  "linkReferences": {},
  "deployedLinkReferences": {}
}